:100000000211B2045800000000145C00000000005F
:1000100000000000000000000000000000000001DF
:100020005700000213EC120666FF600C12168C7467
:0E0030000129F9E43AFA80EE22AE07021668C2
:100043000212AB8F4878497C007D007BFF7A1779D9
:100053002A7E007F0312064074482548F8E6FFB461
:100063000103C38001D39294EFB40203C38001D38D
:10007300929374482548F8E6B40303C38001D392EE
:020083009222C7
:03008B0002131647
:100093000213818F4C8B4D8A4E894FE54C6401606E
:1000A3000302020CF508F509F50AF50BF50CF550FA
:1000B300F55174402551F58274013550F583E4F010
:1000C3000551E551700205506480455070E4E4F534
:1000D30050F55174002551F58274003550F583E4D1
:1000E300F00551E551700205506480455070E4AB52
:1000F3004DAA4EA94F120666FFE598543F4FF59857
:10010300EF64C06008EF644060030201C190000225
:100113001208A77F807E8D7D5B7C001207F18F55CF
:100123008E548D538C52E4FFFE7D01FCAB55AA54D3
:10013300A953A852C312088340037FFF22C3E49547
:1001430055F555E49554F55474019553F553E495D9
:1001530052F552AB4DAA4EA94F90000112067FFBF8
:100163006401702CC28E538EFE5389BF5389CF43D3
:100173008E40AF55AE54AD53AC5278081208948FED
:100183008D85558BC2AB5389BF538FFDD28E806251
:10019300EB64027026538EEF438E01538EF7438E2A
:1001A30004AF55AE54AD53AC5278081208948FD6B1
:1001B3008555D753AFFB438E1080377FFF22AB4D5E
:1001C300AA4EA94F120666FF701390000812067F0D
:1001D300B40105438E20801A538EDF8015EFB4805F
:1001E3001190000812067FB40105438780800353F2
:1001F300877FAB4DAA4EA94F90000712067F70046C
:10020300C29C8002D29C7F0022E54C640260030200
:100213000305F50DF50EF50FF510F511F550F55134
:1002230074E02551F58274013550F583E4F00551EE
:10023300E551700205506480455070E4E4F550F5D3
:100243005174802551F58274003550F583E4F0052F
:1002530051E551700205506480455070E4AB4DAADE
:100263004EA94F120666FF64C06005EF64407075C7
:10027300EFB4C005439A808003539A7F9000021223
:1002830008A77F807E8D7D5B7C001207F18F558EE2
:10029300548D538C52E4FFFE7D01FCAB55AA54A947
:1002A30053A852C312088340037FFF22C3E495552A
:1002B300F555E49554F55474019553F553E495526B
:1002C300F552538EEF538EF7438E04AF55AE54ADB4
:1002D30053AC5278081208948FD68555D753AFFB89
:1002E300438E1080037FFF22AB4DAA4EA94F90008F
:1002F3000712067FC454F0FFE59A54EF4FF59A7F37
:100303000022E54C64036003020439F512F513F58A
:1003130014F515F516F550F55174602551F58274F1
:10032300023550F583E4F00551E551700205506440
:1003330040455070E4E4F550F55174002551F582C1
:1003430074013550F583E4F00551E5517002055011
:100353006440455070E4AB4DAA4EA94F120666FFA8
:1003630064C06008EF6440600302041CEFB4C0057E
:1003730043AC80800353AC7F9000021208A77F80B8
:100383007E8D7D5B7C001207F18F558E548D538CCF
:1003930052E4FFFE7D01FCAB55AA54A953A852C3F6
:1003A30012088340037FFF22C3E49555F555E49576
:1003B30054F55474019553F553E49552F552AB4DEE
:1003C300AA4EA94F90000112067FFBB4031D43AC54
:1003D30040AF55AE54AD53AC5278081208948FD445
:1003E3008555D553D1F043D10A8031EB6402702691
:1003F300538EEF53ACBF538EF7438E04AF55AE54B9
:10040300AD53AC5278081208948FD68555D753AFA5
:10041300FB438E1080067FFF227FFF22AB4DAA4E47
:10042300A94F90000712067FC454F0FFE5AC54EFC8
:100433004FF5AC7F0022E54C6404600302056DF5C3
:1004430017F518F519F51AF51BF550F55174A02594
:1004530051F58274023550F583E4F00551E551708E
:100463000205506420455070E4E4F550F55174C022
:100473002551F58274013550F583E4F00551E551BA
:10048300700205506420455070E4AB4DAA4EA94F4D
:10049300120666FF64C06008EF6440600302055003
:1004A300EFB4C005438480800353847F900002121D
:1004B30008A77F807E8D7D5B7C001207F18F558EB0
:1004C300548D538C52E4FFFE7D01FCAB55AA54A915
:1004D30053A852C312088340037FFF22C3E49555F8
:1004E300F555E49554F55474019553F553E4955239
:1004F300F552AB4DAA4EA94F90000112067FFBB4F3
:10050300041D438440AF55AE54AD53AC527808122A
:1005130008948FD28555D353D10F43D1A08031EBAB
:1005230064027026538EEF5384BF538EF7438E04B9
:10053300AF55AE54AD53AC5278081208948FD6859C
:1005430055D753AFFB438E1080067FFF227FFF22D8
:10055300AB4DAA4EA94F90000712067FC454F0FF7B
:10056300E58454EF4FF5847F00227FFF22E709F6ED
:1005730008DFFA8046E709F208DFFA803E88828CBA
:1005830083E709F0A3DFFA8032E309F608DFFA8094
:1005930078E309F208DFFA807088828C83E309F03C
:1005A300A3DFFA806489828A83E0A3F608DFFA80F6
:1005B3005889828A83E0A3F208DFFA804C80D280D4
:1005C300FA80C680D4806980F28033801080A68050
:1005D300EA809A80A880DA80E280CA803389828A9E
:1005E30083ECFAE493A3C8C582C8CCC583CCF0A33B
:1005F300C8C582C8CCC583CCDFE9DEE7800D89821C
:100603008A83E493A3F608DFF9ECFAA9F0EDFB2261
:1006130089828A83ECFAE0A3C8C582C8CCC583CC9F
:10062300F0A3C8C582C8CCC583CCDFEADEE880DB93
:1006330089828A83E493A3F208DFF980CC88F0EF00
:1006430060010E4E60C388F0ED2402B4040050B97B
:10065300F582EB2402B4040050AF23234582239098
:1006630005C073BB010689828A83E0225002E72218
:10067300BBFE02E32289828A83E49322BB010CE559
:100683008229F582E5833AF583E0225006E9258243
:10069300F8E622BBFE06E92582F8E222E58229F587
:1006A30082E5833AF583E49322BC000BBE0029EF75
:1006B3008DF084FFADF022E4CCF875F008EF2FFF46
:1006C300EE33FEEC33FCEE9DEC984005FCEE9DFE14
:1006D3000FD5F0E9E4CEFD22EDF8F5F0EE8420D25B
:1006E3001CFEADF075F008EF2FFFED33FD400798CA
:1006F3005006D5F0F222C398FD0FD5F0EA22BB01D4
:1007030010E58229F582E5833AF583E0F5F0A3E06D
:10071300225009E92582F886F008E622BBFE0AE9A1
:100723002582F8E2F5F008E222E5832AF583E993CE
:10073300F5F0A3E99322F8BB0111E58229F582E5DF
:10074300833AF583E8F0E5F0A3F0225009E9258226
:10075300C8F608A6F022BBFE09E92582C8F2E5F037
:1007630008F222E88FF0A4CC8BF0A42CFCE98EF0E5
:10077300A42CFC8AF0EDA42CFCEA8EF0A4CDA8F006
:100783008BF0A42DCC3825F0FDE98FF0A42CCD35CA
:10079300F0FCEB8EF0A4FEA9F0EB8FF0A4CFC5F034
:1007A3002ECD39FEE43CFCEAA42DCE35F0FDE43C2D
:1007B300FC2275F008758200EF2FFFEE33FECD3378
:1007C300CDCC33CCC58233C5829BED9AEC99E582BF
:1007D30098400CF582EE9BFEED9AFDEC99FC0FD54B
:1007E300F0D6E4CEFBE4CDFAE4CCF9A88222B8003B
:1007F300C1B90059BA002DEC8BF084CFCECDFCE506
:10080300F0CBF97818EF2FFFEE33FEED33FDEC3329
:10081300FCEB33FB10D703994004EB99FB0FD8E5AE
:10082300E4F9FA227818EF2FFFEE33FEED33FDECF7
:1008330033FCC933C910D7059BE99A4007EC9BFCED
:10084300E99AF90FD8E0E4C9FAE4CCFB2275F01079
:10085300EF2FFFEE33FEED33FDCC33CCC833C8109E
:10086300D7079BEC9AE899400AED9BFDEC9AFCE8CC
:1008730099F80FD5F0DAE4CDFBE4CCFAE4C8F92219
:10088300EB9FF5F0EA9E42F0E99D42F0E89C45F0CB
:1008930022E8600FECC313FCED13FDEE13FEEF1320
:1008A300FFD8F122BB010DE58229F582E5833AF5F4
:1008B300830209025007E92582F80208F5BBFE0707
:1008C300E92582F802090EE58229F582E5833AF5E6
:1008D3008302091BA42582F582E5F03583F5832283
:1008E300BB010689828A83F0225002F722BBFE01F4
:1008F300F322E6FB08E6F908E6FA08E6CBF822E07D
:10090300F8A3E0F9A3E0FAA3E0FB22E2FB08E2F993
:1009130008E2FA08E2CBF822E493F8740193F9743D
:100923000293FA740393FB22FAE6FB0808E6F9251F
:10093300F0F618E6CA3AF622D083D082F8E4937030
:1009430012740193700DA3A393F8740193F5828835
:1009530083E4737402936860EFA3A3A380DFE5527B
:100963002446F8E605522278433007027846E475B8
:10097300F00112092B0206662000EB7F2ED20080C5
:1009830018EF540F2490D43440D4FF30040BEF24D9
:10099300BFB41A0050032461FFE5536002155305E9
:1009A30056E5567002055530070D7843E475F0019E
:1009B30012092BEF0208E30200397403D207800304
:1009C300E4C207F5528B438A448945E4F553F55550
:1009D300F556E55360077F2012099C80F57554FF97
:1009E300C201C200C202C203C205C206C208120982
:1009F3006AFF700D3007057F001209ADAF56AE5583
:100A030022B4255FC2D5C20412096AFF24D0B40AF6
:100A130000501A75F00A785330D50508B6FF010661
:100A2300C6A426F620D5047002D20380D924CFB4FD
:100A33001A00EF5004C2E5D204020BADD20180C606
:100A4300D20080C0D20280BCD2D580BAD20580B495
:100A53007F2012099C2002077401B5530040F11254
:100A63000961FF12099C0209D5D208D206809512AA
:100A73000961FB120961FA120961F94A4B7006799F
:100A83007E7A0C7BFF20022EE553602A7E008E8245
:100A930075830012067F60060EEE655470F0C2D5B2
:100AA300EBC0E0EAC0E0E9C0E0EE120BF4D0E0F9FD
:100AB300D0E0FAD0E0FB120666FF60AAEBC0E0EAE2
:100AC300C0E0E9C0E012099CD0E02401F9D0E03491
:100AD30000FAD0E0FBE5540460DCD554D980877B71
:100AE300FF7A0B79F0D202809C791080027908C2D8
:100AF30006C2088008D2D5790A8004790AC2D5E5EE
:100B030054047002F554E4FAFDFEFF120961FC7B04
:100B130008200113120961FD7B1030000A120961DC
:100B2300FE120961FF7B20EC3382D592D55013C3AB
:100B3300E43000069FFFE49EFEE42001039DFDE4F4
:100B43009CFCE4CBF8C201EC700CCFCECDCCE824F6
:100B5300F8F870F38017C3EF33FFEE33FEED33FD88
:100B6300EC33FCEB33FB994002FB0FD8E9EB30018C
:100B730005F8D0E0C448B201C0E00AEC4D4E4F780E
:100B8300207B0070C2EAB5540040BCC0E0120BF6F3
:100B9300D0F0D0E0200104C4C0E0C4B201C0F01220
:100BA3000985D0F0D5F0EB0209D512093B0A72533F
:100BB3000AEC580A434C0A3F420AF04F0AF8440A27
:100BC300F8490A58430AFE550AE2460AE2450AE290
:100BD300470C9E500A472D0A4B2E0A6E2B0A4F23B1
:100BE3000A6C200C872A0A074800000A663F3F3F29
:100BF30000790AA2D5200314300509B910020404B0
:100C0300B9080104A2D5200602500104200268920B
:100C130002B553005034C0E07F203003197F30A267
:100C23000272067205500F120C4DC202C206C205B3
:100C3300C2087F30800F300503E9C0E012099C3001
:100C43000503D0E0F9D0E0B553CC3005177F30B9B8
:100C5300100C12099C7F583004077F788003B90871
:100C63000312099C3002057F2D02099C7F20200876
:100C7300F87F2B2006F322920280CF286E756C6CCE
:100C83002900D2011209613001F8C201785330D52D
:100C93000108F6020A072D5043495812096124033B
:100CA300B405004001E4900C999312098D743A1233
:100CB300098DD203755304020AECE4F53DF53CF5C6
:100CC3003BF53AF54243BA801214FB12163D121655
:100CD300AFD2AFE55B2401F55BE4355AF55AE43551
:100CE30059F559E43558F558E47B05FAF9F8AF5B43
:100CF300AE5AAD59AC581207F1AC00AD01AE02AF1C
:100D030003E4FBFAF9F8C31208837002D2CCE47B44
:100D1300D07A07F9F8AF5BAE5AAD59AC581207F168
:100D2300AC00AD01AE02AF03E4FBFAF9F8C312085D
:100D330083700CE5577F0070027F018F57C2CCE4AC
:100D43007B0EFAF9F8AF5BAE5AAD59AC581207F106
:100D5300AC00AD01AE02AF03E4FBFAF9F8C312082D
:100D63008370077A007922121451E47B0EFAF9F8A2
:100D7300AF5BAE5AAD59AC581207F1AC00AD01AE42
:100D830002AF03E4FBFAF9F8C31208836003020F0E
:100D9300567A00795C1200267546FF75471675482A
:100DA300EC85224985234A7B007A00795C1209BDD0
:100DB3007B007A00795C1200267546FF754716752D
:100DC30048FB852A49852B4A7B007A00795C120906
:100DD300BD7B007A00795C1200267546FF754716C5
:100DE3007548FF85324985334A7B007A00795C1266
:100DF30009BD7B007A00795C120026E52B2533FFC1
:100E0300E52A3532FEE5232FFFE5223EFEE48F413E
:100E13008E40F53FF53E7546FF75471775480585C6
:100E23003D4C853C4B853B4A853A49FB7A00795CCE
:100E33001209BD7B007A00795C120026C3E4954158
:100E4300FF74049540FEE4953FFDE4953EFCE47B8E
:100E5300E87A03F9F8120766C006C007AE22AF238B
:100E6300AB07AA06E4F9F8D007D0061207F18F3DC5
:100E73008E3C8D3B8C3A7546FF7547177548118F2D
:100E83004C8E4B8D4A8C497B007A00795C1209BDEC
:100E93007B007A00795C120026C3E49541FF740459
:100EA3009540FEE4953FFDE4953EFCE47BE87A0340
:100EB300F9F8120766C006C007AE2AAF2BAB07AA24
:100EC30006E4F9F8D007D0061207F18F3D8E3C8D6A
:100ED3003B8C3A7546FF75471775481C8F4C8E4BF4
:100EE3008D4A8C497B007A00795C1209BD7B007ABC
:100EF30000795C120026C3E49541FF74049540FE1B
:100F0300E4953FFDE4953EFCE47BE87A03F9F812AF
:100F13000766C006C007AE32AF33AB07AA06E4F9D3
:100F2300F8D007D0061207F18F3D8E3C8D3B8C3AEB
:100F33007546FF7547177548228F4C8E4B8D4A8C2B
:100F4300497B007A00795C1209BD7B007A00795CE9
:100F53001200267F011216D1020CD6EFD39407405C
:100F6300037FFF22120666FED3940340037FFF2212
:100F7300EF7041EE700B90000112067FF452935212
:100F830094120666B4010B90000112067F4293F49B
:100F93005294120666FEB4020A90000112067F42C2
:100FA300934294EEB4030D90000112067FFEF452B7
:100FB30093EE4294EF64017043120666FE700B9049
:100FC300000112067FF452915292EEB4010B90008D
:100FD3000112067F4291F45292120666B4020A90FD
:100FE300000112067F42914292120666B4030D90ED
:100FF300000112067FFEF45291EE4292EF640270FA
:1010030043120666FE700B90000112067FF45295A0
:101013005296EEB4010B90000112067F4295F452F2
:1010230096120666B4020A90000112067F429542A8
:1010330096120666B4030D90000112067FFEF45269
:1010430095EE4296EF64037043120666FE700B90B2
:10105300000112067FF452B152B2EEB4010B9000BC
:101063000112067F42B1F452B2120666B4020A902C
:10107300000112067F42B142B2120666B4030D901C
:10108300000112067FFEF452B1EE42B2EF64047027
:1010930043120666FE700B90000112067FF452B3F2
:1010A30052B4EEB4010B90000112067F42B3F45226
:1010B300B4120666B4020A90000112067F42B342DC
:1010C300B4120666B4030D90000112067FFEF452BB
:1010D300B3EE42B4EF64057043120666FE700B90E4
:1010E300000112067FF452C952CAEEB4010B9000FC
:1010F3000112067F42C9F452CA120666B4020A906C
:10110300000112067F42C942CA120666B4030D905B
:10111300000112067FFEF452C9EE42CAEF64067064
:1011230043120666FE700B90000112067FF452CB49
:1011330052CCEEB4010B90000112067F42CBF45265
:10114300CC120666B4020A90000112067F42CB421B
:10115300CC120666B4030D90000112067FFEF45212
:10116300CBEE42CCEF64077043120666FF700B9020
:10117300000112067FF452E152E2EFB4010B90003A
:101183000112067F42E1F452E2120666B4020A90AB
:10119300000112067F42E142E2120666B4030D909B
:1011A300000112067FFFF452E1EF42E27F00227852
:1011B3007FE4F6D8FD75816F0211F9020CBDE4934B
:1011C300A3F8E493A34003F68001F208DFF4802937
:1011D300E493A3F85407240CC8C333C4540F442026
:1011E300C8834004F456800146F6DFE4800B010215
:1011F300040810204080900003E47E019360BCA3A8
:10120300FF543F30E509541FFEE493A360010ECF62
:1012130054C025E060A840B8E493A3FAE493A3F88C
:10122300E493A3C8C582C8CAC583CAF0A3C8C5824C
:10123300C8CAC583CADFE9DEE780BEEFD3940F4097
:10124300028060E4F5BDF5BEE5BC54F044404FF5C3
:10125300BC00000000000000000000E4FDE5BC301D
:10126300E53D53BCDFE5DEAFBD30E50EEFFEACBEC2
:10127300ECFBEEF54DEBF54E8020754D008F4EE502
:10128300BEC4540FFBE54EC4F8540FC868FFE54DC8
:10129300C454F048F54DEF4BF54EAE4DAF4E220D15
:1012A300BDFABA7E107F0022C0E0C083C082C0D0E6
:1012B30075D000C007E59A30E021539AFEE510C3CC
:1012C30094804003751000AF10051074802FF582D1
:1012D300E43400F583E59BF0751105E59A30E128C8
:1012E300539AFDE50D650E601C74E0250DF582E44F
:1012F3003401F583E0F59B050DE50DC394804008AB
:10130300750D008003750F00D007D0D0D082D08335
:10131300D0E032C0E0C083C082C0D075D000C00727
:10132300E5AC30E02153ACFEE515C39440400375B2
:101333001500AF15051574002FF582E43401F5830C
:10134300E5ADF0751605E5AC30E12853ACFDE512CB
:101353006513601C74602512F582E43402F583E0A2
:10136300F5AD0512E512C3944040087512008003E1
:10137300751400D007D0D0D082D083D0E032C0E043
:10138300C083C082C0D075D000C007E58430E0219F
:101393005384FEE51AC394204003751A00AF1A055F
:1013A3001A74C02FF582E43401F583E585F0751BCB
:1013B30005E58430E1285384FDE5176518601C7446
:1013C300A02517F582E43402F583E0F5850517E5DA
:1013D30017C3942040087517008003751900D007C0
:1013E300D0D0D082D083D0E032C0E0C083C082C0EE
:1013F300D075D000C007309820C298E50BC3948005
:101403004003750B00AF0B050B74002FF582E4341A
:1014130000F583E599F0750C05309927C299E50825
:101423006509601C74402508F582E43401F583E006
:10143300F5990508E508C394804008750800800302
:10144300750A00D007D0D0D082D083D0E0328B434E
:101453008A448945E4F546F547F546E54604FF1217
:101463000046E4F547E54704FF12154F7D051216C4
:101473000AAB43AA44A94575F008E546A4F582855D
:10148300F08375F002E5471208D7EE8FF0120739A3
:101493000547E547C3940440CC0546E546C394039A
:1014A30040B92290000112067FFFE5DE54F04FF5AC
:1014B300DE90000212067FC43354E0FFE5DE54DF02
:1014C3004FF5DE120666FFD3941F502B90000312D4
:1014D300067FFED39401501F90000412067FFDD3B4
:1014E30094035013EDC43354E0FDEEC4333333544B
:1014F300804D4F90FEA8F0227544037543017B0095
:101503007A0079437F01120F5E7544187543017B9E
:10151300007A0079437F03120F5E7544037543031A
:101523007B007A0079437F03120F5E75441C754379
:10153300037B007A0079437F01120F5E754410E448
:10154300F543FB7A0079437F05020F5E8F48E4F58C
:1015530049784A7C00FD7BFF7A17792DFE7F0412C0
:10156300064074492548F8E624FE600F1460111400
:1015730060132403701275490C800D7549018008AE
:10158300E4F549800375490BAF4922EFD394014039
:10159300037FFF22EDD3940340037FFF22EF700408
:1015A300C2AD8002D2ADED700553B7DFC2BDBD0140
:1015B3000553B7DFD2BDBD020543B720C2BDBD038E
:1015C3000543B720D2BD7F0022EFD3940140037FB0
:1015D300FF22EDD3940340037FFF22EF7004C2ACDC
:1015E3008002D2ACED700553B7EFC2BCBD01055309
:1015F300B7EFD2BCBD020543B710C2BCBD03054360
:10160300B710D2BC7F00228F488D49E4F54AF54BD1
:10161300F54CF54AE54AC395495013AF4812123EBB
:10162300EF254CF54CEE354BF54B054A80E6E54985
:10163300FD7C00AE4BAF4C0206AC754340754401D4
:101643007548007547C2754601754500754A017BAB
:10165300007A0079437F011200967D017F01121504
:10166300CC53A23F2274E0250EF582E43401F583C6
:10167300EFF0050EE50EC394804003E4F50EE50F8D
:101683007006750F01439A022274402509F582E41E
:101693003401F583EFF00509E509C394804003E4C1
:1016A300F509E50A7005750A01D2992275431FE40D
:1016B300F54675470175440F754501FB7A0079437B
:1016C3001214A67F011216E1E4FDFF02158E7D6060
:1016D3007C09ED1D70011C144C70F7DFF122BF0172
:1016E3000443BC802253BC7F226164635F76616CD8
:1016F3007565203D20257500202575002025752062
:101703002000746F74616C20256C64202000636179
:101713006C203D20256C6C640020256C6C640020DB
:0E172300256C6C640D0A000102030102030430
:00000001FF
