:10000000020C2DEFAF06AC07FF3395E0EFFEAD0419
:10001000ED3395E0FCE42DFFEE3CFE2201020301EE
:10002000020304020E677D607C09ED1D70011C1443
:100030004C70F7DFF122BF010443BC802253BC7F28
:01004000229D
:10004300020D268F5378547C007D007BFF7A007964
:100053001C7E007F0312064074532553F8E6FFB459
:100063000103D38001C39294EFB40203D38001C38D
:10007300929374532553F8E6B40303D38001C392D8
:020083009222C7
:03008B00020D91D2
:10009300020DFC8F578B588A59895AE557640160C2
:1000A3000302020CF539F53AF53BF53CF53DF55BFA
:1000B300F55C7440255CF5827401355BF583E4F0EF
:1000C300055CE55C7002055B6480455B70E4E4F508
:1000D3005BF55C7400255CF5827400355BF583E4A5
:1000E300F0055CE55C7002055B6480455B70E4AB26
:1000F30058AA59A95A120666FFE598543F4FF59836
:10010300EF64C06008EF644060030201C190000225
:100113001208587F807E8D7D5B7C001207A28F6062
:100123008E5F8D5E8C5DE4FFFE7D01FCAB60AA5F9C
:10013300A95EA85DC312083440037FFF22C3E49580
:1001430060F560E4955FF55F7401955EF55EE49597
:100153005DF55DAB58AA59A95A90000112067FFBC1
:100163006401702CC28E538EFE5389BF5389CF43D3
:100173008E40AF60AE5FAD5EAC5D78081208458F10
:100183008D85608BC2AB5389BF538FFDD28E806246
:10019300EB64027026538EEF438E01538EF7438E2A
:1001A30004AF60AE5FAD5EAC5D78081208458FD6D4
:1001B3008560D753AFFB438E1080377FFF22AB5848
:1001C300AA59A95A120666FF701390000812067FF7
:1001D300B40105438E20801A538EDF8015EFB4805F
:1001E3001190000812067FB40105438780800353F2
:1001F300877FAB58AA59A95A90000712067F70044B
:10020300C29C8002D29C7F0022E5576402600302F5
:100213000305F53EF53FF540F541F542F55BF55C29
:1002230074E0255CF5827401355BF583E4F0055CCD
:10023300E55C7002055B6480455B70E4E4F55BF5A7
:100243005C7480255CF5827400355BF583E4F0050E
:100253005CE55C7002055B6480455B70E4AB58AAA7
:1002630059A95A120666FF64C06005EF64407075B1
:10027300EFB4C005439A808003539A7F9000021223
:1002830008587F807E8D7D5B7C001207A28F608E75
:100293005F8D5E8C5DE4FFFE7D01FCAB60AA5FA910
:1002A3005EA85DC312083440037FFF22C3E4956058
:1002B300F560E4955FF55F7401955EF55EE4955D29
:1002C300F55D538EEF538EF7438E04AF60AE5FAD93
:1002D3005EAC5D78081208458FD68560D753AFFBB7
:1002E300438E1080037FFF22AB58AA59A95A90006E
:1002F3000712067FC454F0FFE59A54EF4FF59A7F37
:100303000022E55764036003020439F543F544F51D
:1003130045F546F547F55BF55C7460255CF582743D
:1003230002355BF583E4F0055CE55C7002055B6414
:1003330040455B70E4E4F55BF55C7400255CF58295
:100343007401355BF583E4F0055CE55C7002055BE5
:100353006440455B70E4AB58AA59A95A120666FF7C
:1003630064C06008EF6440600302041CEFB4C0057E
:1003730043AC80800353AC7F9000021208587F8007
:100383007E8D7D5B7C001207A28F608E5F8D5E8CFD
:100393005DE4FFFE7D01FCAB60AA5FA95EA85DC3BF
:1003A30012083440037FFF22C3E49560F560E495AF
:1003B3005FF55F7401955EF55EE4955DF55DAB58A1
:1003C300AA59A95A90000112067FFBB4031D43AC3E
:1003D30040AF60AE5FAD5EAC5D78081208458FD468
:1003E3008560D553D1F043D10A8031EB6402702686
:1003F300538EEF53ACBF538EF7438E04AF60AE5FA3
:10040300AD5EAC5D78081208458FD68560D753AFD3
:10041300FB438E1080067FFF227FFF22AB58AA5931
:10042300A95A90000712067FC454F0FFE5AC54EFBD
:100433004FF5AC7F0022E5576404600302056DF5B8
:1004430048F549F54AF54BF54CF55BF55C74A02589
:100453005CF5827402355BF583E4F0055CE55C7062
:1004630002055B6420455B70E4E4F55BF55C74C0F6
:10047300255CF5827401355BF583E4F0055CE55C8E
:100483007002055B6420455B70E4AB58AA59A95A16
:10049300120666FF64C06008EF6440600302055003
:1004A300EFB4C005438480800353847F900002121D
:1004B30008587F807E8D7D5B7C001207A28F608E43
:1004C3005F8D5E8C5DE4FFFE7D01FCAB60AA5FA9DE
:1004D3005EA85DC312083440037FFF22C3E4956026
:1004E300F560E4955FF55F7401955EF55EE4955DF7
:1004F300F55DAB58AA59A95A90000112067FFBB4C7
:10050300041D438440AF60AE5FAD5EAC5D780812FE
:1005130008458FD28560D353D10F43D1A08031EBEF
:1005230064027026538EEF5384BF538EF7438E04B9
:10053300AF60AE5FAD5EAC5D78081208458FD685BF
:1005430060D753AFFB438E1080067FFF227FFF22CD
:10055300AB58AA59A95A90000712067FC454F0FF5A
:10056300E58454EF4FF5847F00227FFF22E709F6ED
:1005730008DFFA8046E709F208DFFA803E88828CBA
:1005830083E709F0A3DFFA8032E309F608DFFA8094
:1005930078E309F208DFFA807088828C83E309F03C
:1005A300A3DFFA806489828A83E0A3F608DFFA80F6
:1005B3005889828A83E0A3F208DFFA804C80D280D4
:1005C300FA80C680D4806980F28033801080A68050
:1005D300EA809A80A880DA80E280CA803389828A9E
:1005E30083ECFAE493A3C8C582C8CCC583CCF0A33B
:1005F300C8C582C8CCC583CCDFE9DEE7800D89821C
:100603008A83E493A3F608DFF9ECFAA9F0EDFB2261
:1006130089828A83ECFAE0A3C8C582C8CCC583CC9F
:10062300F0A3C8C582C8CCC583CCDFEADEE880DB93
:1006330089828A83E493A3F208DFF980CC88F0EF00
:1006430060010E4E60C388F0ED2402B4040050B97B
:10065300F582EB2402B4040050AF23234582239098
:1006630005C073BB010689828A83E0225002E72218
:10067300BBFE02E32289828A83E49322BB010CE559
:100683008229F582E5833AF583E0225006E9258243
:10069300F8E622BBFE06E92582F8E222E58229F587
:1006A30082E5833AF583E49322BC000BBE0029EF75
:1006B3008DF084FFADF022E4CCF875F008EF2FFF46
:1006C300EE33FEEC33FCEE9DEC984005FCEE9DFE14
:1006D3000FD5F0E9E4CEFD22EDF8F5F0EE8420D25B
:1006E3001CFEADF075F008EF2FFFED33FD400798CA
:1006F3005006D5F0F222C398FD0FD5F0EA22BB01D4
:1007030010E58229F582E5833AF583E0F5F0A3E06D
:10071300225009E92582F886F008E622BBFE0AE9A1
:100723002582F8E2F5F008E222E5832AF583E993CE
:10073300F5F0A3E99322F8BB0111E58229F582E5DF
:10074300833AF583E8F0E5F0A3F0225009E9258226
:10075300C8F608A6F022BBFE09E92582C8F2E5F037
:1007630008F22275F008758200EF2FFFEE33FECDFD
:1007730033CDCC33CCC58233C5829BED9AEC99E55E
:100783008298400CF582EE9BFEED9AFDEC99FC0FEE
:10079300D5F0D6E4CEFBE4CDFAE4CCF9A88222B8B6
:1007A30000C1B90059BA002DEC8BF084CFCECDFC3B
:1007B300E5F0CBF97818EF2FFFEE33FEED33FDECC8
:1007C30033FCEB33FB10D703994004EB99FB0FD8B1
:1007D300E5E4F9FA227818EF2FFFEE33FEED33FD4F
:1007E300EC33FCC933C910D7059BE99A4007EC9B4E
:1007F300FCE99AF90FD8E0E4C9FAE4CCFB2275F0DE
:1008030010EF2FFFEE33FEED33FDCC33CCC833C8EE
:1008130010D7079BEC9AE899400AED9BFDEC9AFCF4
:10082300E899F80FD5F0DAE4CDFBE4CCFAE4C8F9A3
:1008330022EB9FF5F0EA9E42F0E99D42F0E89C45E9
:10084300F022E8600FECC313FCED13FDEE13FEEF93
:1008530013FFD8F122BB010DE58229F582E5833A26
:10086300F5830208A15007E92582F8020894BBFE2C
:1008730007E92582F80208ADE58229F582E5833A86
:10088300F5830208BAA42582F582E5F03583F58362
:1008930022E6FB08E6F908E6FA08E6CBF822E0F8D8
:1008A300A3E0F9A3E0FAA3E0FB22E2FB08E2F908E4
:1008B300E2FA08E2CBF822E493F8740193F97402A4
:1008C30093FA740393FB22EFD3940740037FFF2231
:1008D300120666FED3940340037FFF22EF7041EEBE
:1008E300700B90000112067FF45293529412066625
:1008F300B4010B90000112067F4293F45294120646
:1009030066FEB4020A90000112067F42934294EEFF
:10091300B4030D90000112067FFEF45293EE42944D
:10092300EF64017043120666FE700B90000112061D
:100933007FF452915292EEB4010B90000112067FA4
:100943004291F45292120666B4020A900001120612
:100953007F42914292120666B4030D900001120683
:100963007FFEF45291EE4292EF64027043120666E8
:10097300FE700B90000112067FF452955296EEB46E
:10098300010B90000112067F4295F45296120666FF
:10099300B4020A90000112067F429542961206663F
:1009A300B4030D90000112067FFEF45295EE4296B9
:1009B300EF64037043120666FE700B90000112068B
:1009C3007FF452B152B2EEB4010B90000112067FD4
:1009D30042B1F452B2120666B4020A900001120642
:1009E3007F42B142B2120666B4030D9000011206B3
:1009F3007FFEF452B1EE42B2EF6404704312066616
:100A0300FE700B90000112067FF452B352B4EEB4A1
:100A1300010B90000112067F42B3F452B412066632
:100A2300B4020A90000112067F42B342B412066672
:100A3300B4030D90000112067FFEF452B3EE42B4EC
:100A4300EF64057043120666FE700B9000011206F8
:100A53007FF452C952CAEEB4010B90000112067F13
:100A630042C9F452CA120666B4020A900001120681
:100A73007F42C942CA120666B4030D9000011206F2
:100A83007FFEF452C9EE42CAEF6406704312066653
:100A9300FE700B90000112067FF452CB52CCEEB4E1
:100AA300010B90000112067F42CBF452CC12066672
:100AB300B4020A90000112067F42CB42CC120666B2
:100AC300B4030D90000112067FFEF452CBEE42CC2C
:100AD300EF64077043120666FF700B900001120665
:100AE3007FF452E152E2EFB4010B90000112067F52
:100AF30042E1F452E2120666B4020A9000011206C1
:100B03007F42E142E2120666B4030D900001120631
:100B13007FFFF452E1EF42E27F0022E4F54D43BA56
:100B230080120F811210FB12116CD2AFE50C24015D
:100B3300F50CE4350BF50BE4350AF50AE43509F554
:100B430009E47BF47A01F9F8AF0CAE0BAD0AAC09FA
:100B53001207A2AC00AD01AE02AF03E4FBFAF9F851
:100B6300C31208347010E5087F0070027F018F08FC
:100B7300E50824FF92CCE47B0EFAF9F8AF0CAE0B38
:100B8300AD0AAC091207A2AC00AD01AE02AF03E49B
:100B9300FBFAF9F8C312083470077A00790D120EC4
:100BA300CCE47B0EFAF9F8AF0CAE0BAD0AAC09122C
:100BB30007A2AC00AD01AE02AF03E4FBFAF9F8C340
:100BC300120834705D7525A575265A7527017F12A5
:100BD300FE1200038E288F29752A0185162B851C8A
:100BE3002C85182D851A2E850E2F851430851031EE
:100BF300851232851E338524348520358522367B44
:100C0300007A0079257D127C001210908E378F3880
:100C13001200038E378F387B007A0079257D1412FA
:100C230011497F01120026020B2F787FE4F6D8FDCD
:100C3300758160020C74020B1EE493A3F8E493A382
:100C43004003F68001F208DFF48029E493A3F8540B
:100C530007240CC8C333C4540F4420C8834004F48E
:100C630056800146F6DFE4800B01020408102040A1
:100C73008090118EE47E019360BCA3FF543F30E566
:100C830009541FFEE493A360010ECF54C025E06016
:100C9300A840B8E493A3FAE493A3F8E493A3C8C5E4
:100CA30082C8CAC583CAF0A3C8C582C8CAC583CAD5
:100CB300DFE9DEE780BEEFD3940F40028060E4F506
:100CC300BDF5BEE5BC54F044404FF5BC0000000048
:100CD300000000000000E4FDE5BC30E53D53BCDF4F
:100CE300E5DEAFBD30E50EEFFEACBEECFBEEF55836
:100CF300EBF55980207558008F59E5BEC4540FFB9E
:100D0300E559C4F8540FC868FFE558C454F048F5D2
:100D130058EF4BF559AE58AF59220DBDFABA7E10B4
:100D23007F0022C0E0C083C082C0D075D000C0075E
:100D3300E59A30E021539AFEE541C3948040037560
:100D43004100AF41054174802FF582E43400F583FF
:100D5300E59BF0754205E59A30E128539AFDE53E9F
:100D6300653F601C74E0253EF582E43401F583E0C1
:100D7300F59B053EE53EC394804008753E00800325
:100D8300754000D007D0D0D082D083D0E032C0E00D
:100D9300C083C082C0D075D000C007E5AC30E0216D
:100DA30053ACFEE546C394404003754600AF460589
:100DB3004674002FF582E43401F583E5ADF0754701
:100DC30005E5AC30E12853ACFDE5436544601C7494
:100DD300602543F582E43402F583E0F5AD0543E590
:100DE30043C3944040087543008003754500D00712
:100DF300D0D0D082D083D0E032C0E0C083C082C0E4
:100E0300D075D000C007E58430E0215384FEE54B64
:100E1300C394204003754B00AF4B054B74C02FF5B3
:100E230082E43401F583E585F0754C05E58430E112
:100E3300285384FDE5486549601C74A02548F58264
:100E4300E43402F583E0F5850548E548C394204082
:100E5300087548008003754A00D007D0D0D082D0EF
:100E630083D0E032C0E0C083C082C0D075D000C060
:100E730007309820C298E53CC394804003753C003A
:100E8300AF3C053C74002FF582E43400F583E5990B
:100E9300F0753D05309927C299E539653A601C74B0
:100EA300402539F582E43401F583E0F5990539E508
:100EB30039C3948040087539008003753B00D0071F
:100EC300D0D0D082D083D0E0328B4E8A4F8950E489
:100ED300F551F552F551E55104FF120046E4F55280
:100EE300E55204FF120FD57D051210C8EF7802CE2C
:100EF300C313CE13D8F9FFAB4EAA4FA95075F00810
:100F0300E551A4F58285F08375F002E55212088855
:100F1300EE8FF01207390552E552C3940440C10520
:100F230051E551C3940340AE2290000112067FFFA6
:100F3300E5DE54F04FF5DE90000212067FC4335411
:100F4300E0FFE5DE54DF4FF5DE120666FFD3941FA4
:100F5300502B90000312067FFED39401501F900084
:100F63000412067FFDD394035013EDC43354E0FD04
:100F7300EEC433333354804D4F90FEA8F022754FA7
:100F830003754E017B007A00794E7F011208CA7502
:100F93004F18754E017B007A00794E7F031208CA01
:100FA300754F03754E037B007A00794E7F03120859
:100FB300CA754F1C754E037B007A00794E7F011270
:100FC30008CA754F10E4F54EFB7A00794E7F05028F
:100FD30008CA8F53E4F55478557C00FD7BFF7A00F3
:100FE300791FFE7F0412064074542553F8E624FE4D
:100FF300600F1460111460132403701275540C8075
:101003000D7554018008E4F554800375540BAF54F7
:1010130022EFD3940140037FFF22EDD394034003D7
:101023007FFF22EF7004C2AD8002D2ADED70055395
:10103300B7DFC2BDBD010553B7DFD2BDBD02054356
:10104300B720C2BDBD030543B720D2BD7F0022EF49
:10105300D3940140037FFF22EDD3940340037FFF2A
:1010630022EF7004C2AC8002D2ACED700553B7EF2F
:10107300C2BCBD010553B7EFD2BCBD020543B710D7
:10108300C2BCBD030543B710D2BC7F00228B4E8A7E
:101093004F89508C518D52E4F553F554FFEFC395AE
:1010A30052E49551501AAB4EAA4FA9508F827583C3
:1010B3000012067F2554F554E43553F5530F80DDB4
:1010C300AE53AF54228F538D54E4F555F556F5576F
:1010D300F555E555C395545013AF53120CB9EF258D
:1010E30057F557EE3556F556055580E6E554FD7C24
:1010F30000AE56AF570206AC754E40754F0175539F
:10110300007552C27551017550007555017B007A07
:1011130000794E7F011200967D017F011210525318
:10112300A23F227440253AF582E43401F583EFF0BF
:10113300053AE53AC394804003E4F53AE53B70058C
:10114300753B01D299228B4E8A4F8950E4FEEEC340
:101153009D5015AB4EAA4FA9508E8275830012067F
:101163007FFF1211260E80E622754E1FE4F551759E
:101173005201754F0F755001FB7A00794E120F2CF7
:101183007F01120036E4FDFF021014040900000081
:0511930000010800004E
:00000001FF
