:100E7600120481F59D90000112049AFFE5BC549F6F
:100E86004FF5BC90000212049AB4010543BC808061
:100E96000353BC7F90000312049AB40105439720C4
:100EA60080035397DF90000512049AB40104D2AD73
:100EB6008002C2AD90000412049AB40103D2BD228E
:030EC600C2BD2288
:0B108C00BF010443BC802253BC7F2244
:100DB400EFD3940740028060E4F5BDF5BEE5BC5472
:100DC400E044084FF5BC00000000000000000000F3
:100DD40000000000000000000000E4FBE5BC30E47B
:100DE4003353BCEFE59730E509E5BD5403ADBEFCD4
:100DF400801DAFBD7C00AD077E00ED7802C333CE0D
:100E040033CED8F9FFE5BE5403FDEEFCEF4DFDAF44
:0C0E140005AE04220BBBFAC47E047F0074
:010E200022AF
:03002B00020026AA
:0400260053BCEF32A6
:0F107C007D847C0AED1D70011C144C70F7DFF1B0
:01108B002242
:100F4700000000000000000000000000000000009A
:100F5700000000000000000000000000000000008A
:100F6700000000000000000000000000000000007A
:0A0F77000000000000000000000070
:100D4100045E00000000046200000000045A00007C
:0C0D51000000086605070604030001020C
:10000300753702753840753901E4F53AF53BF53C2F
:0D001300FB7A007937120E767F0102108C07
:100EC9007576017575017B007A0079757F011206C7
:100ED9009275763C7575037B007A0079757F0112EE
:100EE900069275760C7575027B007A0079757F0319
:100EF9001206927576C07575037B007A0079757F45
:040F09000302069247
:100FDE00753740753802753C00753BC2753A017520
:100FEE003900753E01E4F53F754001F541F542F5D6
:0B0FFE0043FB7A0079377F010208E610
:080F0D008B548A5589568D575B
:100F1500E4F558F559FFFEC3EF9557EE9400501DC3
:100F2500AB54AA55A9568F828E8312049A2559F57A
:100F350059E43558F5580FBF00010E80DAAE58AFA9
:010F45005952
:010F46002288
:100A8000E4F508F509F50AF50BF50CF50D780E7C83
:100A900000FD7BFF7A0F7947FE7F0C12045B781A0A
:100AA0007C007D007BFF7A0F79537E007F0C12045F
:100AB0005B78267C007D007BFF7A0F795F7E007F6C
:100AC0000C12045BE4F532F536F535F534F533C236
:100AD000B3120003120FDED2AFD2B3E5612401F5E9
:100AE00061E43560F560E4355FF55FE4355EF55E41
:100AF000E47B01FAF9F8AF61AE60AD5FAC5E120560
:100B000068AC00AD01AE02AF03E4FBFAF9F8C31222
:100B100006087004B2B3D2B27D017F03120FB08E0B
:100B20000E8F0F7D027F03120FB08E108F117D0488
:100B30007F03120FB08E128F13753B00753C00754A
:100B40003D1A753E03753FE87B007A00790E7D08FB
:100B5000120B697B007A00791A753B087F01120C31
:090B60001F7F6412107C020ADB05
:080B69008B378A3889398D3A77
:100B7100E4F540F540E540C3953A4003020C1EAB55
:100B810037AA38A93975F002E540A4F58285F083CA
:100B91001204C7FDACF0E41202D1A804A905AA060B
:100BA100AB077F007EC07D8F7C44120031C004C042
:100BB10005C006C007AB37AA38A93975F002E54070
:100BC100A4F58285F0831204C7FDACF0E41202D1D2
:100BD100A804A905AA06AB07D007D006D005D00402
:100BE10012022FC004C005C006C007AC3EAD3FE4F1
:100BF1001202D1D003D002D001D00012012612037B
:100C01000AAB3BAA3CA93D75F002E540A4F58285FB
:0D0C1100F083EE8FF01204FF0540020B7619
:010C1E0022B3
:020FB0008D377B
:100FB200E4FDFC121041AF371210557F6412107C11
:100FC2007F01120DB4AC06AD07C3ED9412EC940090
:0B0FD20050057E007F1222AE04AF0528
:010FDD0022F1
:101041001F74662FF8E6FE1392B7EEA2E192B6A2E4
:04105100E292922273
:101055001F74662FF8E6FE139295EEA2E19294A214
:04106500E29293225E
:080C1F008F378B388A39893ABE
:100C2700783C7C007D007BFF7A0F796B7E007F1616
:100C370012045BE4F552F553FD753CA5753D5A75F5
:100C47003E55753FAA853740754114F542754301F6
:100C5700EDC3953B5037AB38AA39A93A75F002ED89
:100C6700A4F58285F0831204C7FFED25E02444F83C
:100C7700A60775F002EDA4F58285F0831204C7E597
:100C8700F0FFED25E02445F8A6070D80C37B007A29
:100C970000793C7D14120F0D8E528F53EFF550E5FE
:0E0CA70052F5517B007A00793C7D16020F81D8
:100D5D0020289F000000000000000000000000009F
:100D6D000000000000000000000000000000000076
:100D7D0000000000000000000000002028770000A7
:100D8D000000000000000000000000000000000056
:100D9D000000000000000000000000000000000046
:060DAD0000000000000040
:0608E6008B448A4589469F
:1008EC00EF64016003020A7D756E01F56FF570F51A
:1008FC0071F572F573F5747F28789FE4F608DFFCC8
:10090C007F287877E4F608DFFCAB44AA45A94612A9
:10091C000481D394C040037F012290000A12049AF0
:10092C00B40104D2BC8002C2BC120481FFE598540D
:10093C003F4FF598EF64C06008EF64406003020A13
:10094C000190000212062C7FB07E837D857C001204
:10095C0005688F4A8E498D488C47E4FFFE7D01FC6B
:10096C00AB4AAA49A948A847C312060840037F020C
:10097C0022C3E4954AF54AE49549F5497401954832
:10098C00F548E49547F547AB44AA45A946900001C4
:10099C0012049AFB6401702CC28E538EFE5389BFD5
:1009AC005389CF438E40AF4AAE49AD48AC47780827
:1009BC001206198F8D854A8BC2AB5389BF538FFD9D
:1009CC00D28E8065EB64027029538EEF438E0153F7
:1009DC008EF7438E04AF4AAE49AD48AC4778081247
:1009EC0006198FD6854AD753AFFB538EF7438E101B
:1009FC0080377F0222AB44AA45A946120481FF70BE
:100A0C001390000812049AB40105438E20801A53E7
:100A1C008EDF8015EFB4801190000812049AB40197
:100A2C0005438780800353877FAB44AA45A9469032
:100A3C00000912049AB40104D2AC8002C2AC90003A
:100A4C000712049AB40104D29C8002C29C90000B41
:100A5C0012049A54C0FFE5A2543F4FF5A290000C2B
:100A6C0012049AB4010543971080035397EF7F004B
:030A7C00227F03D3
:010A7F002254
:10100900749F2570F8A6070570E570C394284003FE
:0D101900E4F570E5717005757101D2992242
:10106900120481FF600C121009740129F9E43AFA9B
:0310790080EE22E4
:080F81008B548A5589568D57E7
:100F8900E4FDFCC3ED95577480F86C985018AB5488
:100F9900AA55A9568D828C8312049AFF1210090D45
:060FA900BD00010C80DD1B
:010FAF00221F
:03002300020E21A9
:100E2100C0E0C0D075D000C000C00730981AC29889
:100E3100E5747014E572C394284003757200AF72B3
:100E4100057274772FF8A699309921C299E56F65DB
:100E5100706016749F256FF8E6F599056FE56FC30D
:100E610094284008756F008003757100D007D00089
:050E7100D0D0D0E032FA
:10102600C292EF139293EF5402C31324FF9294EFEC
:0B10360054041313543F24FF92952232
:10069200EFD3940740037FFF22120481FED3940319
:1006A20040037FFF22EF7041EE700B9000011204B5
:1006B2009AF452935294120481B4010B90000112E5
:1006C200049A4293F45294120481FEB4020A9000F6
:1006D2000112049A42934294EEB4030D9000011267
:1006E200049AFEF45293EE4294EF640170431204B2
:1006F20081FE700B90000112049AF452915292EE14
:10070200B4010B90000112049A4291F45292120425
:1007120081B4020A90000112049A42914292120498
:1007220081B4030D90000112049AFEF45291EE423C
:1007320092EF64027043120481FE700B900001126A
:10074200049AF452955296EEB4010B9000011204F1
:100752009A4295F45296120481B4020A9000011250
:10076200049A42954296120481B4030D900001123C
:10077200049AFEF45295EE4296EF6403704312041B
:1007820081FE700B90000112049AF452B152B2EE43
:10079200B4010B90000112049A42B1F452B2120455
:1007A20081B4020A90000112049A42B142B21204C8
:1007B20081B4030D90000112049AFEF452B1EE428C
:1007C200B2EF64047043120481FE700B90000112B8
:1007D200049AF452B352B4EEB4010B900001120425
:1007E2009A42B3F452B4120481B4020A9000011284
:1007F200049A42B342B4120481B4030D9000011270
:10080200049AFEF452B3EE42B4EF6405704312044C
:1008120081FE700B90000112049AF452C952CAEE82
:10082200B4010B90000112049A42C9F452CA120494
:1008320081B4020A90000112049A42C942CA120407
:1008420081B4030D90000112049AFEF452C9EE42E3
:10085200CAEF64067043120481FE700B900001120D
:10086200049AF452CB52CCEEB4010B900001120464
:100872009A42CBF452CC120481B4020A90000112C3
:10088200049A42CB42CC120481B4030D90000112AF
:10089200049AFEF452CBEE42CCEF6407704312048A
:1008A20081FF700B90000112049AF452E152E2EFC0
:1008B200B4010B90000112049A42E1F452E21204D4
:1008C20081B4020A90000112049A42E142E2120447
:1008D20081B4030D90000112049AFFF452E1EF4239
:0408E200E27F00228F
:10002E00020376E86480F8E933E83360110460F087
:10003E00ED33EC337009E8FCE9FDEAFEEBFF220438
:10004E0060DED3EB9FEA9EE99DE8C2E78CF0C2F733
:10005E0095F0400CE8CCF8E9CDF9EACEFAEBCFFBFF
:10006E0012034185D0F05804700320D5B3E8047014
:10007E00075002B2D502038092D5EC0460F7E4CCAF
:10008E00C0E0C398F8603B94186008400DD0E0FBC8
:10009E00020358E4FBFAC9FC8028E830E406E4C900
:1000AE00FBE4CAFCE830E305E4C9CACBFCE854071C
:1000BE006010F8C3E913F9EA13FAEB13FBEC13FC27
:1000CE00D8F130F52FC3E49CFCEF9BFFEE9AFEEDCA
:1000DE0099FDD0E0FBEF4E4D4C701222DB03020374
:1000EE007DEC2CFCEF33FFEE33FEED33FDED30E710
:1000FE00EB020358EF2BFFEE3AFEED39FDD0E0FB9D
:10010E0050130BBB0003020380ED13FDEE13FEEF45
:08011E0013FFEC13FC0203586F
:10012600EC4D6011E8497017ED33EC3304600DE4D3
:10013600FCFFFEFD22E933E8330470F80203761271
:10014600034158046009E4CC248150062850090272
:10015600038028400302037DC0E0EB4A7044B98067
:1001660006D0E0FB02036CEF4E701CBD8008EBFF6F
:10017600EAFEE9FD80EBE98DF0A4FEE5F002020F50
:10018600E9CDF9EAFEEBFFEF89F0A4FCE5F0CE89B4
:10019600F0A42EFFE435F0CD89F0A42DFEE435F071
:1001A6008067EF4E7005BD80D780C3EF8BF0A4AC9F
:1001B600F0EE8BF0A42CFCE435F0F8EF8AF0A42CDA
:1001C600E5F038FCE433CB8DF0A42CFCE5F03BF8ED
:1001D600EE8AF0A42CFCE5F038F8E433CF89F0A4DD
:1001E6002CFCE5F038CF3400CE89F0A42FFFE5F0E3
:1001F6003EFEE433C98DF0A42EFEE5F039CD8AF03B
:10020600A42FFFE5F03EFEE43DFD33D0E0FB5007B2
:100216000BBB000F020380EC2CFCEF33FFEE33FE2A
:06022600ED33FD02035858
:10022C00020380EC5D046005E85904700302037658
:10023C00120341580460F6EC4860F2EC7004FDFEC9
:10024C00FF22C860DB2481C85009C39860025006A5
:10025C0002037D9850CAF582E9294B4A7005AB829E
:10026C0002036C75F0007C1A7880C3EF9BEE9AED5C
:10027C0099400DC3EF9BFFEE9AFEED99FDE842F01D
:10028C00DC23ACF0D0E0FFD0E0FED0E0FDAB822070
:10029C00E7101BEB60BAEC2CFCEF33FFEE33FEEDFA
:1002AC0033FD020358E803F830E705C0F075F000A1
:1002BC00EF2FFFEE33FEED33FD40B830E7C280AADE
:1002CC0075F020800E75F010800575F0087D007EAD
:1002DC00007F003392D530D5031205FAEC33401071
:1002EC00EF33FFEE33FEED33FDEC33FCD5F0ED22B6
:0E02FC00E5F0247EA2D513CC92E7CDCEFF22F2
:10030A00EDD2E7CD33EC3392D524814006E4FFFEEB
:10031A00FDFC22FCE4CFCECDCC24E0501174FF804A
:10032A00EDC3CC13CCCD13CDCE13CECF13CF0470E7
:07033A00F030D5DE0205FAE8
:10034100E9D2E7C933E833F892D5EDD2E7CD33EC02
:0703510033FC5002B2D5227B
:10035800EC30E7100FBF000C0EBE00080DBD000406
:100368000BEB6014A2D5EB13FCED92E7FD2274FFB2
:10037800FCFDFEFF22E480F8A2D574FF13FC7D800B
:03038800E480EF1F
:03000000020CB53A
:0C0CB500787FE4F6D8FD7581C6020CFCC7
:10038B00E709F608DFFA8046E709F208DFFA803E54
:10039B0088828C83E709F0A3DFFA8032E309F60841
:1003AB00DFFA8078E309F208DFFA807088828C83A9
:1003BB00E309F0A3DFFA806489828A83E0A3F6085D
:1003CB00DFFA805889828A83E0A3F208DFFA804C37
:1003DB0080D280FA80C680D4806980F2803380100E
:1003EB0080A680EA809A80A880DA80E280CA803377
:1003FB0089828A83ECFAE493A3C8C582C8CCC583EF
:10040B00CCF0A3C8C582C8CCC583CCDFE9DEE780BE
:10041B000D89828A83E493A3F608DFF9ECFAA9F03D
:10042B00EDFB2289828A83ECFAE0A3C8C582C8CC93
:10043B00C583CCF0A3C8C582C8CCC583CCDFEADEAC
:10044B00E880DB89828A83E493A3F208DFF980CC0E
:10045B0088F0EF60010E4E60C388F0ED2402B40407
:10046B000050B9F582EB2402B4040050AF232345AE
:06047B0082239003DB73F5
:10048100BB010689828A83E0225002E722BBFE0279
:09049100E32289828A83E49322AC
:10049A00BB010CE58229F582E5833AF583E0225017
:1004AA0006E92582F8E622BBFE06E92582F8E22261
:0D04BA00E58229F582E5833AF583E493227B
:1004C700BB0110E58229F582E5833AF583E0F5F073
:1004D700A3E0225009E92582F886F008E622BBFE50
:1004E7000AE92582F8E2F5F008E222E5832AF58396
:0804F700E993F5F0A3E993225B
:1004FF00F8BB0111E58229F582E5833AF583E8F02F
:10050F00E5F0A3F0225009E92582C8F608A6F022EB
:0D051F00BBFE09E92582C8F2E5F008F222D2
:10052C0075F008758200EF2FFFEE33FECD33CDCC86
:10053C0033CCC58233C5829BED9AEC99E582984009
:10054C000CF582EE9BFEED9AFDEC99FC0FD5F0D6E6
:10055C00E4CEFBE4CDFAE4CCF9A88222B800C1B910
:10056C000059BA002DEC8BF084CFCECDFCE5F0CB4E
:10057C00F97818EF2FFFEE33FEED33FDEC33FCEB87
:10058C0033FB10D703994004EB99FB0FD8E5E4F942
:10059C00FA227818EF2FFFEE33FEED33FDEC33FC2F
:1005AC00C933C910D7059BE99A4007EC9BFCE99A23
:1005BC00F90FD8E0E4C9FAE4CCFB2275F010EF2F68
:1005CC00FFEE33FEED33FDCC33CCC833C810D70768
:1005DC009BEC9AE899400AED9BFDEC9AFCE899F8A3
:0E05EC000FD5F0DAE4CDFBE4CCFAE4C8F92236
:0E05FA00C3E49FFFE49EFEE49DFDE49CFC2212
:10060800EB9FF5F0EA9E42F0E99D42F0E89C45F048
:0106180022BF
:10061900E8600FECC313FCED13FDEE13FEEF13FFBF
:03062900D8F122E3
:10062C00BB010DE58229F582E5833AF58302066963
:10063C005007E92582F802065CBBFE07E92582F823
:10064C00020675E58229F582E5833AF58302068276
:100CC100020A80E493A3F8E493A34003F68001F2BF
:100CD10008DFF48029E493A3F85407240CC8C33334
:100CE100C4540F4420C8834004F456800146F6DF03
:100CF100E4800B0102040810204080900D41E47E45
:100D0100019360BCA3FF543F30E509541FFEE493F7
:100D1100A360010ECF54C025E060A840B8E493A3BE
:100D2100FAE493A3F8E493A3C8C582C8CAC583CAE9
:100D3100F0A3C8C582C8CAC583CADFE9DEE780BEA1
:010DB300003F
:0D065C00E6FB08E6F908E6FA08E6CBF8220E
:0C066900E0F8A3E0F9A3E0FAA3E0FB2214
:0D067500E2FB08E2F908E2FA08E2CBF82205
:10068200E493F8740193F9740293FA740393FB22CE
:00000001FF
