:020000040800F2
:100000003039002069010008C3030008A10300087B
:10001000C1030008F9010008E10700080000000022
:100020000000000000000000000000001D060008A5
:100030008103000800000000E50300081F06000817
:100040008301000883010008830100088301000880
:100050008301000883010008830100088301000870
:10006000830100088301000883010008D902000809
:1000700001030008830100082D030008590300084C
:100080008301000883010008830100088301000840
:100090008301000883010008830100088301000830
:1000A0008301000883010008830100088301000820
:1000B0008301000875060008E506000883010008B2
:1000C0008301000883010008830100088301000800
:1000D000830100080907000883010008750700086C
:1000E00083010008830100088301000883010008E0
:1000F000830100088301000883010008000000005C
:10010000830100080000000083010008830100084B
:1001100083010008830100088301000883010008AF
:10012000830100088301000883010008830100089F
:1001300083010008000000000000000083010008A7
:10014000830100088301000883010008830100087F
:10015000DFF810D000F03EF8004800478114000896
:10016000AFF300803039002006488047064800473A
:10017000FEE7FEE7FEE7FEE7FEE7FEE7FEE7FEE757
:10018000FEE7FEE7250600085101000840EA0103EA
:100190009B0703D009E008C9121F08C0042AFAD23D
:1001A00003E011F8013B00F8013B521EF9D2704701
:1001B000D2B201E000F8012B491EFBD270470022A9
:1001C000F6E710B513460A4604461946FFF7F0FF56
:1001D000204610BD064C074D06E0E06840F00103E4
:1001E00094E8070098471034AC42F6D3FFF7B4FF09
:1001F000101D0008301D0008FEE7034610B5002062
:10020000024603E09C5C521C204480B28A42F9DB27
:1002100010BD000070B50446104DC0074FF40051EA
:10022000284602D000F012FF01E000F00DFFA00709
:100230004FF48041284602D500F008FF01E000F0AD
:1002400003FF60074FF40041284603D5BDE8704026
:1002500000F0FCBEBDE8704000F0F6BE000C0140AE
:1002600070B5C1600546002614461046314600F0C0
:1002700098F8084307D14FF00040844202D220464C
:1002800000F0B8F90446AE60C5E90046204670BDEE
:100290002DE9F04104460F46D4E901100B1A2068FD
:1002A000C51A954200D31546421E1140461AAE4269
:1002B00000D32E46E068324608443946FFF766FF11
:1002C000AA1BB919E068FFF761FF60682844606005
:1002D0002846BDE8F081000010B5084C022200213C
:1002E000204600F0EAFD002806D020460122BDE8A5
:1002F0001040002100F0DBBD10BD000000000240F6
:1003000010B5084C02220121204600F0D6FD00283D
:1003100007D001221146204600F0C9FD0249012004
:10032000087010BD000002401800002010B5084CF5
:1003300002220321204600F0C0FD002807D0012240
:100340000321204600F0B3FD02490120487010BD92
:10035000000002401800002010B5084C02220421C1
:10036000204600F0AAFD002806D020460122BDE864
:100370001040042100F09BBD10BD000000000240B1
:100380007047000010B5044601F088FA062C03D22D
:10039000024830F8140010BD002010BDA811002044
:1003A000FEE750EA010206D0431E41F1FF3203404E
:1003B0000A40134302D00020C11770470120FBE719
:1003C000FEE770470907090E002806DA00F00F0063
:1003D00000F1E02080F8141D704700F1E02080F863
:1003E0000014704770472DE9F00340F6FF7400F5E4
:1003F00010690025E9B3012973D10023002100EB26
:10040000830701EB410600EB061606EB4306B6F840
:1004100080C4944501D8A6F88054B6F88064D7F813
:1004200000C9491C6644C9B2C7F800691829E8D355
:100430005B1CDBB2182BE1D30021002303EB430745
:1004400000EB071606EB4106B6F88064964257D9D2
:1004500000EB8108C6EB062CD8F8008900EBC70733
:10046000A8EB0606A61BBCFBF6F60F4487F8A06BAC
:100470004BE0FFE7002300EB810703EB430600EBB3
:10048000061636F811C0944501D826F8115036F8F2
:100490001160D7F800C95B1C6644DBB2C7F800697D
:1004A000182BEAD3491CC9B21829E3D30021002331
:1004B00003EB430700EB071636F81160964211D99B
:1004C00000EB8108C6EB062CD8F8008900EBC707C3
:1004D000A8EB0606A61BBCFBF6F60F4487F860697E
:1004E00005E020E000EBC7060E4486F860595B1C6F
:1004F000DBB2182BDCD3491CC9B21829D7D30CE0C6
:1005000000EBC7060E4486F8A05B5B1CDBB2182B21
:1005100094D3491CC9B218298FD34846BDE8F003CB
:100520006021FFF74CBEBDE8F003704710B540F204
:10053000036001F089F90322BDE810404FF46043E5
:100540001021014800F0AEBD000C01402DE9FF4133
:100550000E4624A10024D1E90021CDE9002123A1E8
:1005600040F69808D1E90021CDE9022106EB4601C9
:1005700000EB0115182E18D21DF80400FFF74AFEF3
:100580004046401EFDD20120FFF7FCFE193025F841
:1005900014000020FFF7F6FE05EB440719303882FF
:1005A0000320FFF7EFFE193014E002A8005DFFF70B
:1005B00031FE4046401EFDD20520FFF7E3FE25F840
:1005C00014000420FFF7DEFE05EB4407388202200A
:1005D000FFF7D8FE641CE4B23884082CCAD3BDE807
:1005E000FF81000002010003040607050406070559
:1005F0000201000330B5044601250021FFF7D1FEBA
:10060000084309D144B1E807844204D264084FEAA0
:100610004505FBD1680830BD204630BD704700F06D
:1006200069BA0000104810B5016841F4700101601A
:100630000E48016841F00101016000214160C16282
:1006400001680B4A114001604FF47F01816001682D
:1006500021F48021016001F055F9BDE8104000212E
:100660004FF0006001F016B888ED00E00010024085
:10067000FFFFF6EA70B5184D0221284601F0CEF9C9
:10068000012827D10221284601F0C5F9134CA08882
:1006900068B1A08801281DD10021284601F0AAF9DF
:1006A00080B260802188884208D9401A0AE000217F
:1006B000284601F09FF9208001200AE04FF6FF72E2
:1006C000511A0844A060A0680549B1FBF0F0E08031
:1006D0000020A08070BD0000000400400800002041
:1006E00040420F0010B5074C0121204601F096F959
:1006F000012805D12046BDE81040012101F08BB949
:1007000010BD00000008004010B5174C15492046E8
:1007100001F092FA002823D02068201D0068134CB5
:100720000421204600F0ECFA0421204600F032FCBF
:10073000A0F2DC500E49424201F6B830FFF7A8FDA6
:100740000421204600F0DCFA40F2DC52042120466D
:1007500000F011FC2046BDE81040042100F0E0BA92
:1007600010BD0000040304000038014000000240F6
:100770005429002010B5174C1549204601F05CFAA9
:10078000002823D02068201D0068134C0221204639
:1007900000F0B6FA0221204600F0FCFBA0F2DC508B
:1007A0000E49424201F2EC50FFF772FD0221204651
:1007B00000F0A6FA40F2DC520221204600F0DBFBFA
:1007C0002046BDE81040022100F0AABA10BD00008A
:1007D000040304000048004000000240302F0020C5
:1007E000FEE702E008C8121F08C1002AFAD17047CC
:1007F0007047002001E001C1121F002AFBD17047A1
:10080000816841F00801816081680907FCD4816832
:1008100041F00401816081684907FCD470471205EA
:10082000A2F5801201290BD0022908D1816B21F495
:100830004011816302F44011826B11438163704760
:10084000C16A21F47001C16202F47001C26A1143ED
:10085000C162704710B52D4C204600F063F80020AF
:1008600000F0BEF801220221204600F011F9012219
:100870001102204600F00CF90021204600F048F853
:10088000062201212046FFF7CAFF0022012311465C
:10089000204600F0B1F801231A461946204600F020
:1008A000ABF8022201231146204600F0A5F80322EE
:1008B00001231146204600F09FF80422012311462F
:1008C000204600F099F8052201231146204600F049
:1008D00093F84FF460220121204600F063F80122D2
:1008E0001146204600F043F8204600F038F8642016
:1008F00000F0F8F82046FFF783FF204600F02AF8C2
:100900002046BDE81040012100F0B5B800240140A8
:100910000029816802D041F4006101E021F4006106
:10092000816070470A4910B540180CD0B0F5806F4F
:100930000CD140F20A34204600F0A2FF2046BDE868
:10094000104000F08FBF40F20934F4E710BD000002
:1009500000DCFEBF816841F480718160704781686E
:10096000C90703D1816841F0010181607047002A05
:100970004FEAC1720AD01AB1826842F480128260D2
:1009800089070ED5816841F4004109E01AB18268F7
:1009900022F480128260890703D5816821F4004126
:1009A00081607047012909D0022906D1816821F4AC
:1009B000E04181608168114381607047816821F462
:1009C0006021F6E710B500F02DFF00F0F3FF00F016
:1009D0003FFB00F0D5F9BDE81040FFF73BBF00003A
:1009E00004490A6822F470220A600A6802430A6015
:1009F000704700000424014030B51F24062909D2A5
:100A0000456B01EB81018C40A54302FA01F42C43B4
:100A1000446318E00C290AD2056B891F01EB8101A0
:100A20008C40A54302FA01F42C4304630BE0102927
:100A300009D2C56A0C3901EB81018C40A54302FA49
:100A400001F42C43C46207250A2A08D2046902EB88
:100A500042018D40AC438B402343036130BD122AD9
:100A6000FCD2C4680A3A02EB42018D40AC438B4091
:100A70002343C36030BDCA0703D0826842F48002BA
:100A80008260890703D5816841F400118160704755
:100A9000002A4FEAC15211D0002A03DA426842F418
:100AA000807242604A0503D5426842F48062426027
:100AB000890715D5816841F0020110E0002A03DAA8
:100AC000426822F4807242604A0503D5426822F4EB
:100AD00080624260890703D5816821F0020181604C
:100AE000704700000249086008680028FCD1704780
:100AF0000400002003480168002902D00168491E53
:100B0000016070470400002010B588B04FF4A06069
:100B100000F09AFE184C0121204600F061F9684669
:100B200000F01CFA01218DF81A10144802908DF87B
:100B30001910002140F2DC50CDE90310104800905C
:100B40008DF81810019105916A460121204600F0A8
:100B500062F90121204600F0F3F80121204600F05F
:100B6000E0F902220121204600F091F901212046FE
:100B700000F0C6F808B010BD000002407823002045
:100B80000448004010B588B01C216846FFF717FBE9
:100B90004FF4A06000F058FE184C0221204600F0EF
:100BA0001FF9684600F0DAF91548002102908DF827
:100BB0001A1001208DF8190040F2DC50CDE9031025
:100BC000104800908DF8181005916A4602212046C1
:100BD00000F021F90221204600F0B2F8022120465F
:100BE00000F09FF907484021001F00F0FDFF02219F
:100BF000204600F095F808B010BD0000000002404B
:100C0000302F00200448004010B588B04FF4A06099
:100C100000F01AFE184C0321204600F0E1F8684667
:100C200000F09CF901218DF81A10144802908DF8FB
:100C30001910002140F2DC50CDE90310104800905B
:100C40008DF81810019105916A460321204600F0A5
:100C5000E2F80321204600F073F80321204600F05B
:100C600060F902220321204600F011F903212046F9
:100C700000F046F808B010BD00000240C017002088
:100C80000438014010B588B04FF4A06000F0DCFDDE
:100C9000184C0421204600F0A3F8684600F05EF9E5
:100CA0001548002102908DF81A1001208DF81900C6
:100CB00040F2DC50CDE90310104800908DF8181078
:100CC00005916A460421204600F0A5F8042120463B
:100CD00000F036F80421204600F023F907484021AF
:100CE000001F00F081FF0421204600F019F808B031
:100CF00010BD0000000002405429002004380140CB
:100D000070B50C46054600F01DF940B104EB8400B7
:100D100005EB8000816821F00101816070BDFEE774
:100D200070B50C46054600F00DF940B104EB8400A7
:100D300005EB8000816841F00101816070BDFEE734
:100D400070B50C46054600F0FDF840B104EB840098
:100D500005EB8000816821F02001816070BDFEE715
:100D600070B50C46054600F0EDF840B104EB840088
:100D700005EB8000816841F02001816070BDFEE7D5
:100D800010B5144C88B00021204600F029F8124814
:100D9000002100908DF8181001208DF81900000234
:100DA000019080000390182004900C4A4FF40050EA
:100DB000029205908DF81A106A46204600F02BF832
:100DC00000212046FFF7CCFF00212046FFF7A8FFB7
:100DD00008B010BD000002404C240140B4110020B6
:100DE00070B50D46044600F0ADF898B105EB8500EE
:100DF00004EB8002906820F0010090600020906079
:100E0000D060106150616068AA000F2191400843D2
:100E1000606070BDFEE770B514460D46064600F0F2
:100E200091F850B305EB850006EB80002168016165
:100E3000A1684161218A89B2C1608168E36821F4B7
:100E40007C52616819436369134319438160217EB1
:100E50000129816812D021F040018160617E012961
:100E600081680ED021F080018160A17E0029816817
:100E70000AD041F01001816070BDFEE741F04001F1
:100E8000EBE741F08001EFE721F01001F3E770B5E7
:100E900015460C46064600F055F838B104EB8400C0
:100EA00006EB800081682943816070BDFEE74368DE
:100EB00089008A4013434360704710B58C00134685
:100EC000A24001EB810100EB8101022B04D0042B35
:100ED00008D0082B0CD0FEE700688968104001F0AC
:100EE00002010AE000688968104001F0040104E092
:100EF00000688968104001F0080110B109B10120B3
:100F000010BD002010BD70B515460C46064600F019
:100F100019F828B104EB840006EB8000456170BD30
:100F2000FEE770B50C46054600F00CF840B104EB46
:100F3000840005EB8000816821F48041816070BDF0
:100F4000FEE700000246044B01209A4202D1042928
:100F500000D90020704700000004024050B1002179
:100F60000160416001768160C160417601618176F6
:100F700041617047FEE770B515460C460646FFF71F
:100F8000E1FF30B104EB840106EB8101A8B2C86037
:100F900070BDFEE770B50C460546FFF7D3FF28B1DC
:100FA00004EB840005EB8000C06870BDFEE7000024
:100FB0002DE9F0410546214800240F46854203D023
:100FC0001F48854200D102241E4830F8140000F06A
:100FD0003BFC1C48083830F8140000F035FC194878
:100FE00003220A3000F1200650F8243056F824007D
:100FF000182100F057F8A6F11000032250F8243011
:1010000056F82400042100F04DF8284600F0C0FDF9
:101010003946284600F092FD0421284600F024FEBF
:101020000821284600F026FE284600F0F6FD284656
:10103000BDE8F0414FF4417100F0F4BD00380140CB
:101040000048004022000020416170470161704764
:1010500010B5134C012304220021204600F022F891
:10106000022304220021204600F01CF804231A4623
:101070000021204600F016F8082304220021204613
:1010800000F010F8102304220021204600F00AF896
:10109000204620230422BDE81040002100F002B8C1
:1010A000000801402DE9F04301F00F04CD0602D500
:1010B000042A18D0144300224FF00F094FF0010802
:1010C00008FA02F51D4019D00768960009FA06FCD7
:1010D00027EA0C0704FA06FC4CEA070C282908D07A
:1010E000482908D008E0C26B44F003041A43C263E5
:1010F000E1E7456100E00561C0F800C0521C92B212
:10110000082ADDD3082208FA02F51D4014D04768EA
:101110009600203E09FA06FC27EA0C0704FA06FCB2
:101120004CEA070C282902D0482902D002E0456188
:1011300000E00561C0F804C0521C92B2102AE2D34C
:10114000BDE8F083F0B5144C002801DAE36900E053
:101150006368450D2E0185B2C0F30157B540C0F359
:101160000342032F05D0C6020AD503269640B34397
:1011700007E023F0E062636823F0E063636002E06D
:10118000AB4343F0E06201B12A43002801DAE26197
:10119000F0BD6260F0BD000000000140012901685F
:1011A00003D021F480610160704741F48061FAE767
:1011B0002DE9F04116460D00044617D0022000F03C
:1011C0009DFA384BB0FBF3F13F2900D33F21626811
:1011D00022F03F020A436260334A954215D8B0FBC1
:1011E000F3F1491C3F2902D33F2103E0FEE7022926
:1011F00000D8022121626900B0FBF1F0042800D27E
:101200000420E169C0F30B0028E0284F05EBC5037B
:101210004FF47A7C05EB450203EB0513BD4221D860
:101220004FF496756943B1FBFCF1491C216246B14C
:10123000B0FBF3F0E16941F48041E161010506D0C2
:1012400007E0B0FBF2F0E16921F48041F5E740F0FE
:101250000100E16941F40041E161E1690143E161BB
:10126000BDE8F081C1EB0111C900B1FBFCF1491CE3
:10127000216286B1B0FBF3F0E16941F48041E161A4
:10128000E16941F40041E161E1690143E16101206B
:10129000C4F89000E4E7B0FBF2F0E16921F480418A
:1012A000EDE7000040420F00A0860100801A060012
:1012B00001617047016841F0010101607047A1F5CB
:1012C000A062013A09D000EB9110026801F01F03FF
:1012D000012199408A4302607047416980697047E3
:1012E00000EB9110006801F01F02012191400840BD
:1012F00000D001207047000010B50C4600281ED118
:1013000040F2036000F0A0FA40F2157000F09CFA81
:10131000C02303221C210A48FFF7C4FE2146094CC2
:1013200000222046FFF744FF002272231146204688
:1013300000F013F82046BDE81040FFF7BBBF10BD1A
:10134000000C014000540040921C03D041F0010108
:101350000161704721F00101FAE710B5046824F03B
:1013600002040C430460C3F309010A43826010BD08
:10137000016841F4807101607047016841F40071B7
:10138000016070472DE9F0411E461746884600244B
:1013900000B9244C01212046FFF700FF40F201650F
:1013A00029462046FFF79CFF0028F9D12046FFF789
:1013B000DFFF4FF4A06529462046FFF791FF002884
:1013C000F9D06FF0010241462046FFF7BDFF40F221
:1013D000015529462046FFF783FF0028F9D029460A
:1013E0002046FFF76CFF39462046FFF761FF40F2C9
:1013F000075529462046FFF773FF0028F9D03146EC
:101400002046FFF755FF29462046FFF769FF0028D1
:10141000F9D02046FFF7B1FF20688005FCD40020FA
:10142000BDE8F0810054004070B540F2036000F068
:101430000BFA114D4FF48054234603221021284605
:10144000FFF730FE21462846FFF7FEFD4FF4C0604F
:1014500000F0FAF901210948FFF774FE4FF44074D7
:101460002346032210212846FFF71CFE214628466A
:10147000BDE87040FFF7E8BD000C014000023000FD
:101480000026344600F096FAFFF79CFAFFF7CCFFEF
:10149000FFF74CF84FF4E125284600F0F1FA284612
:1014A00000F032FB3A490020FFF726FF00F0E8FB8E
:1014B000DFF8E0804FF4FA794FF4805B4FF0320AA6
:1014C000D8F800004546401CB0FBF9F2C8F800000F
:1014D00009FB120048B9304896F00106594602D07F
:1014E000FFF7B4FD01E0FFF7AFFD204600F0F4F98F
:1014F00021462A48FFF72AF8641CE4B2182C12D0BF
:10150000302C05D3002201212448FEF76CFF002473
:101510000021204600F0D8FB2968B1FBFAF20AFB53
:10152000121030B130E0002211461C48FEF75BFF7C
:10153000EEE71B4D45F6A52040F2663728800120D6
:10154000A870A5F8037068714FF41072A5F51071BA
:10155000A81DFEF71BFEA5F558714FF4907201F21D
:10156000A650FEF713FE39462846FEF746FEA5F8BC
:101570006603BD1C2A460A49002000F03BFB2A46B0
:101580000749022000F036FB0120FFF7ABFA97E78E
:10159000801A060000000020000C014060000020BE
:1015A000400E0020134910B5401810D0B0F5704F10
:1015B0001ED1012200210E2000F01EF8002211464B
:1015C0000F2000F019F80122114625200CE000221E
:1015D00011460D2000F010F8012200210C2000F02F
:1015E0000BF8012200212720BDE8104000F004B8CC
:1015F00010BD000000B8FFBFF0B506461F4800242C
:101600000F460068234600F4E0654FF4A060854271
:101610000FD006DCB5F5407F16D0B5F5806F06D14A
:101620000FE0B5F5C06F09D0B5F5E06F04D000F05C
:1016300027F80224234608E0042306E001240323BC
:1016400003E00324012300E00424C4F104008740E4
:10165000C3F104010F20C8401040384306F1E021D7
:10166000000181F8000406F01F0101208840710983
:10167000890001F1E021C1F80001F0BD0CED00E0AE
:101680000249084302490860704700000000FA055B
:101690000CED00E0024A114001430248016070472E
:1016A00080FFFF1F08ED00E0124B10B55968124A89
:1016B0001140DA6A0C2822F0005217D2DFE800F05D
:1016C00006060606160916091010101041EA8031A8
:1016D0000CE020F0040041EA803040F0805105E049
:1016E00020F00C0041EA803142F000525960DA6289
:1016F00010BD000000100240FF3FFFEF70B540A199
:1017000088B02EC98DE82E003EA1414DD1E90021BF
:10171000CDE904213BA10446D1E90021CDE9062110
:10172000696800203B4BC1F3810222B13A49012A8A
:1017300040D0022A01D019463CE06A684FF4803359
:1017400002F480329A421ED1EA6A12F0804F00D031
:101750003249EA6A02F480329A420DD1EA6AC2F34F
:101760000313EA6A5B1CC2F30322921C112A00D104
:101770001422B1FBF3F15143EA6A02F00F02521C4A
:10178000B1FBF2F300E0264B6968C1F3834269685C
:10179000890001D542F010020F2A01D2921C00E00C
:1017A000521C03FB02F10F2A04D103EB4301490051
:1017B00001EB53016A686B68C2F303121DF8022043
:1017C00021FA02F2C3F3022304AE6D68F35C22FA3D
:1017D00003F3C5F3C22506AE755D22FA05F544B1E3
:1017E000012C08D0022C08D0032C00D1284608B0C8
:1017F00070BD0846FBE71046F9E71846F7E700001A
:1018000000000000000000000102030406070809B0
:101810000010024000127A0040787D01006CDC026A
:1018200000093D0010B540F2026000F00DF840F2F2
:10183000096000F009F84FF4A06000F005F8BDE879
:1018400010400120FFF730BF054901EB90110A68F5
:1018500000F01F030120984002430A607047000017
:1018600000100240054901EB90110A6800F01F03C7
:101870000120984082430A60704700000010024037
:10188000054901EB90110A6800F01F030120984000
:1018900002430A60704700000010024030B50D4B53
:1018A0000021A3F10C040022104600EB400503EBDD
:1018B000850535F81150401C2A44C0B292B2042864
:1018C000F3D3900824F81100491CC9B20629EAD3C1
:1018D00030BD0000B411002000F007018023CB4090
:1018E0000749182804D201EBD0000222017804E055
:1018F0000522A2EBD0000322095C0020FFF742BDC5
:101900005D00002025480021026842F48032026018
:101910004FF6FF730268491C12F4003F01D199424F
:10192000F8D10168890300D4FEE71D490A6822F056
:101930000702D21C0A604168416041684160416809
:1019400041F4806141604168164A1140416041683C
:10195000154A11434160C16A144A1140C162C16A0B
:10196000134A1143C162016841F08061016001685E
:101970000901FCD5016841F08071016001688901AD
:10198000FCD5416821F003014160416841F002014A
:10199000416041680907FCD5704700000010024013
:1019A00000200240FFFFC3DF0000352000F0FEBF33
:1019B0004906010070B50E484FF47A710068B0FB1B
:1019C000F1F0401EB0F1807F11D24FF0E024606151
:1019D00065170F212846FEF7F5FC0020A0610720BF
:1019E00020612846BDE870400021FEF7EBBCFEE711
:1019F000140000200246002039B1012907D0022935
:101A000007D0032900D1106C7047506B7047906B62
:101A10007047D06B7047C94301617047C268006965
:101A20000A40084202D00AB10120704700207047E6
:101A300070B5104A0C4605465378002BFCD00020A8
:101A400050700D4E03213046FFF75AF92A46032104
:101A50003046FFF758FA224603213046FFF78BFA4B
:101A600003213046FFF75CF9BDE870408021034850
:101A700000F0CDB8180000200000024000380140FE
:101A800010B50A4C01462046FFF792FA2046FFF7B0
:101A900089FD40F2DC5206490648FEF7E1FBFFF7FC
:101AA000B3F8BDE81040FFF7EDB800000038014082
:101AB000E41100200C35002070B5104A0C46054694
:101AC0001378002BFCD0002010700D4E0121304601
:101AD000FFF716F92A4601213046FFF714FA22468D
:101AE00001213046FFF747FA01213046FFF718F988
:101AF000BDE870408021034800F089B8180000203C
:101B0000000002400048004010B50A4C0146204643
:101B1000FFF74EFA2046FFF745FD074940F2DC5239
:101B200001F5BC50FEF79CFBFEF7EEFFBDE8104050
:101B3000FFF728B8004800409C1D002070B5124AED
:101B400004460D460020A11A131594421AD005DC54
:101B50000E49611816D0994208D113E0994211D06C
:101B6000B1F56C4F02D10320FFF7C8FD00EB550023
:101B7000B0FBF5F04FF6F071014000F00F02114399
:101B8000A16070BD0220EFE7004C004000BCFFBF29
:101B9000134A10B5811A1315904213D007DC11496E
:101BA00040180CD098421AD140F212440FE09942EA
:101BB0000BD0B1F56C4F12D140F20E3407E040F279
:101BC000114404E040F2134401E040F21444204682
:101BD000FFF756FE2046BDE81040FFF743BE10BD9C
:101BE000004C004000BCFFBF426922F040020A43A3
:101BF000426170470B4628B1022807D111461846AA
:101C0000FFF75ABF11461846FFF712BF70474269E7
:101C100022F080020A4342617047C16841F40051DA
:101C2000C160704700EB9110026801F01F030121B1
:101C300099400A430260704730B5C1F38912825857
:101C400000EB915001F01F05012404FA05F3006830
:101C50001A40C1F3044104FA01F3184202D00AB158
:101C6000012030BD002030BDC26822F004020A43CA
:101C7000C2607047C26822F008020A43C26070471F
:101C800070B5104D00240023295D06221846FFF789
:101C900079FB0023295D07221846FFF773FB002319
:101CA000295D02221846FFF76DFB0023295D032200
:101CB0001846FFF767FB641CE4B2032CE3D3002053
:101CC00070BD00005D00002070B5044630281BD2B6
:101CD0000E4D2978C808B0EBD40F11D0681C182914
:101CE00005D200EBD10000230178022205E0052295
:101CF000A2EBD1010023415C03220020FFF742FB4D
:101D00002046FFF7E9FD2C7070BD00005C0000204C
:101D1000301D00080000002060000000E2070008FD
:101D2000901D000860000020D0380000F207000875
:101D300000000000000000000000000000000000A3
:101D400000000000000E270701010E061107120710
:101D50001307020603060306040600000002000043
:101D60000400000000040000000400000004000063
:101D70000800000000080000000800000008014002
:101D8000000C0140000C01400010014000404244A2
:04000005080001519D
:00000001FF
