:101865001203E1F59D9000011203FAFFE5BC549FB8
:101875004FF5BC9000021203FAB4010543BC808009
:101885000353BC7F9000031203FAB401054397206C
:1018950080035397DF9000051203FAB40104D2AD1B
:1018A5008002C2AD9000041203FAB40103D2BD2236
:0318B500C2BD228F
:0C1A8900EFB4010443BC802253BC7F2258
:10167A00EFD3940740028061E4F5BDF5BEE5BC54A2
:10168A00E044084FF5BC0000000000000000000024
:10169A0000000000000000000000E4FBE5BC30E4AC
:1016AA003353BCEFE59730E509E5BD5403ADBEFC05
:1016BA00801DAFBD7C00AD077E00ED7802C333CE3E
:1016CA0033CED8F9FFE5BE5403FDEEFCEF4DFDAF76
:0D16DA0005AE04220BEBB4FAC37E047F00C2
:0116E70022E0
:03002B00020026AA
:0400260053BCEF32A6
:101A5F007D847C0AED1D70011C144C70F7EF1F7014
:061A6F00011E144E70EA96
:011A7500224E
:1006E000000000000000000000000000000000000A
:1006F00000000000000000000000000000000000FA
:1007000000000000000000000000000000000000E9
:1007100000000000000000000000000000000000D9
:1007200000000000000000000000000000000000C9
:1007300000000000000000000000000000000000B9
:1007400000000000000000000000000000000000A9
:100750000000000000000000000000000000000099
:100760000000000000000000002B00D6008600A260
:1007700000C60074002A001A00160011000C001BAD
:10078000001B00180017000B00030004000F0046B8
:1007900000AC0059005200B3010E01E501A3008D29
:1007A0000001000000000000000000000000000048
:1007B0000000000000000000000000000000000039
:1007C0000000000000000000000000000000000029
:1007D00000000000000000130011006D007100799E
:1007E000007F0040000E000F000B0006000500080F
:1007F000000D000E000B000600010007003E00ADDA
:1008000000440035009A013201F101BC009E000055
:1008100000000000000000000000000000000000D8
:1008200000000000000000000000000000000000C8
:1008300000000000000000000000000000000000B8
:100840000000000000000015006E014200EC00D125
:1008500000F9008C004A0022001B00100017002144
:1008600000250026001B001000010004001800B441
:1008700000C40063006A00E201A2020701AD006C3F
:100880000000000000000000000000000000000068
:100890000000000000000000000000000000000058
:1008A0000000000000000000000000000000000048
:1008B0000000000000000000000B002C013200D0FE
:1008C000010000F8007B002A0019000A0004000B58
:1008D000000C000E00120013000C000800030009B9
:1008E00000A3011C00660069011701CE022901A9BD
:1008F000008900000000000000000000000000006F
:1009000000000000000000000000000000000000E7
:1009100000000000000000000000000000000000D7
:1009200000000000000000000048008C013B00B106
:10093000010500F80053002300150016001A0017E7
:100940000020001D00150008000200030013007CB9
:1009500000FD006E0074010701D0022501E500B121
:100960000000000000000000000000000000000087
:100970000000000000000000000000000000000077
:100980000000000000000000000000000000000067
:10099000000000000000000000100062011900C00B
:1009A00000E900DD00560023001D001B00140013A9
:1009B000001E001F001E000C000500050011004B6A
:1009C00000E4009B008000B9016C021E0216010ABF
:1009D000000F000000000000000000000000000008
:1009E0000000000000000000000000000000000007
:1009F00000000000000000000000000000000000F7
:100A000000000000000000000000004800AC00ED05
:100A100000BC00E500D7003A0031001700110010BB
:100A20000018001C001C001C001200080005000E2D
:100A3000003A00BF00A0006E00C001410216023F54
:100A400001F500920000000000000000000000001E
:100A50000000000000000000000000000000000690
:100A60000006000600060006000500050005000659
:100A70000005000600060006000600060005000549
:100A80000006000600060006000600060006000636
:100A90000006000600060006000600060006000626
:100AA0000006000600060006000600060006000616
:100AB0000006000600060006000700060006000605
:100AC00000070007000700070006000600060006F2
:100AD00000060006000600060006000600060006E6
:100AE00000060006000600060006000600060000DC
:100AF00000000000000000000000000000000000F6
:100B000000000000000000000000000000000000E5
:100B100000000000000000000000000000000000D5
:100B200000000000000000000000000000000000C5
:100B300000000000000000000000000000000000B5
:080B40000000000000000000AD
:101594004400800000000044008400000000440077
:1015A4007C000000004800880507060403000102CF
:1019ED009000557402F0A37440F0A37401F0E4A3C9
:1019FD00F0A3F0A3F07B017A0079551218657F01F1
:031A0D00021A8931
:1017BA0090009D7401F090009CF0FB7A00799CFFE8
:1017CA00120E9B90009D743CF090009C7403F07B79
:1017DA00017A00799C7F01120E9B90009D740CF097
:1017EA0090009C7402F07B017A00799C7F03120EB0
:1017FA009B90009D74C0F090009C7403F07B017A6A
:07180A0000799CFF020E9B18
:1019BD009000557440F0A37402F0A3120679000153
:1019CD00C20090005C7401F0E4A3F0A304F0E4A362
:1019DD00F0A3F0A3F07B017A0079557F010210EF9F
:0E18B800900076EBF0A3EAF0A3E9F0A3EDF0C8
:1018C600E4A3F0A3F0FFFE900079E0FDC3EF9DEEE8
:1018D60094005027900076E0FBA3E0FAA3E0F98F8E
:1018E600828E831203FAFD90007BE02DF090007A41
:1018F600E03400F00FBF00010E80CC90007AE0FECD
:03190600A3E0FF5C
:0119090022BB
:081811007B017D327C007F02A7
:10181900900055EFF0A3ECF0A3EDF0A3EBF09000EE
:1018290055E0FF14F0EF6033900058E014601404A1
:101839007020C2B3900056E0FEA3E0FF121A5FD2F7
:10184900B3800FC2B2900056E0FEA3E0FF121A5F08
:0C185900D2B27F647E00121A5F80C322AE
:10190A00900061EDF090005EEBF0A3EAF0A3E9F03D
:10191A0012048EFFAEF0900061E014F06021900096
:10192A005EE0FBA3E0FAA3E0F9A3E075F002A4F5F8
:0F193A008285F0831204B92FFFE5F03EFE80D7BF
:01194900227B
:10175500900097EBF0A3EAF0A3E9F0A3ECF0A3ED7A
:10176500F0E41202317B9A7A997999783F12012631
:1017750012026A900097E0FBA3E0FAA3E0F990005B
:1017850004EE8FF012051090009AE0FCA3E0FDE452
:101795001202317BCD7ACC794C783F1201261202A8
:1017A5006A900097E0FBA3E0FAA3E0F9900006EE4B
:0517B5008FF002051099
:10147B0090005EEBF0A3EAF0A3E9F0A3ECF0A3ED90
:10148B00F0900061E0FCA3E0FDE4120231E4FBFA12
:10149B0079C0783F12012612026A90005EE0FBA32E
:1014AB00E0FAA3E0F9900008EE8FF012051090001F
:1014BB0061E0FCA3E0FDE41202317B9A7A99791981
:1014CB00783F12012612026A90005EE0FBA3E0FA5D
:1014DB00A3E0F990000AEE8FF012051090000812AD
:1014EB0004B9FFAEF07C007D0A12043990005EE077
:0D14FB00FBA3E0FAA3E0F9EE8FF00204F18C
:1012CD00900055EBF0A3EAF0A3E9F0A3ECF0A3ED49
:1012DD00F0900058E0FCA3E0FDE41202317BCD7AE2
:1012ED00CC794C784312003512026A900055E0FB20
:1012FD00A3E0FAA3E0F9900002EE8FF01205109032
:10130D000058E0FCA3E0FDE41202317B0A7AD779A4
:10131D00A3784212003512026A900055E0FBA3E05B
:10132D00FAA3E0F9EE8FF01204F1900055E0FBA363
:10133D00E0FAA3E0F912048EFFAEF07C007D0A12F4
:10134D000427AC06AD07E41202317B9A7A9979999C
:10135D00783F12012612026A900055E0FBA3E0FAD5
:10136D00A3E0F9900008EE8FF012051012048EFF25
:10137D00AEF07C007D0A120427AC06AD07E4120224
:10138D00317BCD7ACC794C783F12012612026A90CE
:10139D000055E0FBA3E0FAA3E0F990000AEE8FF010
:0313AD0002051026
:0B160B00900055EBF0A3EAF0A3E9F01B
:10161600A3E0FBA3E0FAA3E0F9A3E0FD12190AE4B4
:1016260090005DF090005CE0147043900055E0FB84
:10163600A3E0FAA3E0F99000081204B9FDC3EF9DF8
:10164600EE95F0500890005D7401F08005E490007E
:101656005DF090000A1204B9FDC3EF9DEE95F050BF
:101666000DAD07AC0612147B90005D7402F090007D
:031676005DE0FF35
:01167900224E
:100B48009000001206790000000090000412067957
:100B58000000000078087C007D017BFF7A0A79EEAE
:100B68007E007F101203BBE4FE78187C007D017BB9
:100B7800FF7A0A79FE7F101203BB78287C007D017A
:100B88007BFF7A0B790E7E007F041203BB782C7CE6
:100B9800007D017BFF7A0B79127E007F041203BB74
:100BA80078307C007D017BFF7A0B79167E007F040C
:100BB8001203BB78347C007D017BFF7A0B791A7EA7
:100BC800007F141203BBE4900048F0A3F0A3F0A345
:100BD800F0A3F0A3F0A3F0A3F0A3F0A3F0A3F0A375
:100BE800F0A3F01219ED1219BDD2AFD2B37F2C7E4B
:100BF80001121A5F7D027F011219887B017A007940
:100C080018AD07AC061212CD7B017D1E7C007F0358
:100C1800121819900080E0FCA3E0FDA3E0FEA3E019
:100C28002401FFE43EFEE43DFDE43CFC900080121C
:100C3800066DE47B01FAF9F8900080E0FCA3E0FD82
:100C4800A3E0FEA3E0FF120579AC00AD01AE02AF50
:100C580003E4FBFAF9F8C31206197004B2B3D2B26E
:100C6800E47B01FAF9F8900080E0FCA3E0FDA3E042
:100C7800FEA3E0FF120579AC00AD01AE02AF03E4BC
:100C8800FBFAF9F8C31206196003020E917D027F80
:100C980001121988900008EEF0A3EFF0E0240FF09D
:100CA800900008E03400F0E0FEA3E0FF900050E080
:100CB800FD04F0ED25E02430F582E43400F583EE00
:100CC800F0A3EFF0900050E0C394024002E4F090EB
:100CD8000051E0FD04F0ED25E02434F582E4340011
:100CE800F583EEF0A3EFF0900051E0C3940A4002C0
:100CF800E4F0900053E04401F0E4900052F09000DA
:100D080052E0FFC394025031EF25E02430F582E42D
:100D18003400F583E0FEA3E0FF90001AE0FCA3E0B6
:100D2800FDC3EF9DEE9C5009900053E054FEF08007
:100D380008900052E004F080C5900053E030E003D2
:100D48004404F0900053E04402F0E4900052F09024
:100D58000052E0FFC3940A5031EF25E02434F582B5
:100D6800E43400F583E0FEA3E0FF900018E0FCA364
:100D7800E0FDD3EF9DEE9C4009900053E054FDF058
:100D88008008900052E004F080C5900053E05406BB
:100D9800FFBF06137B017A0079347D0A12190A9085
:100DA8000010EEF0A3EFF0900018E0FFA3E0900031
:100DB8000ACFF0A3EFF0900022E0FFA3E090000C30
:100DC800CFF0A3EFF0900020E0FFA3E090000ECF5B
:100DD800F0A3EFF0900053E0540664066003020E9F
:100DE800737B0190005804F0A37400F0A37434F0EE
:100DF800A3740AF0A37401F07A00791812160B9004
:100E08000054EFF024FE600504703C8037E47F0155
:100E1800FEFDFC900004E0F8A3E0F9A3E0FAA3E0EB
:100E2800FBC31206195003121811E47F02FEFDFCE1
:100E3800900004E0F8A3E0F9A3E0FAA3E0FBD312E2
:100E480006194003121811E4900053F0900004E0D2
:100E5800FCA3E0FDA3E0FEA3E02401FFE43EFEE4E2
:100E68003DFDE43CFC90000412066D900054E0FF48
:100E7800900012E4F0A3EFF07B017A00790890006B
:100E8800597408F07F011213B07F647E00121A5F54
:030E9800020C1B2E
:05198800900055EDF098
:10198D00E4FDFC121A2B900055E0FF121A457F055D
:10199D007E00121A5F7F0112167AAC06AD07C3EDF9
:0F19AD00940AEC94005004E4FEFF22AE04AF0550
:0119BC002208
:101A2B001F74882FF582E43400F583E0FE1392B720
:0A1A3B00EEA2E192B6A2E29292221E
:101A45001F74882FF582E43400F583E0FE13929528
:0A1A5500EEA2E19294A2E292932225
:0E13B000900055EFF0A3EBF0A3EAF0A3E9F0F4
:1013BE00785A7C007D017BFF7A0B792E7E007F1A96
:1013CE001203BBE4900074F0A3F0FD900055E0FF13
:1013DE0090005A74A5F0A3745AF0A37455F0A37438
:1013EE00AAF0A3EFF0A37418F0E4A3F0A304F09016
:1013FE000059E0FFEDC39F5048900056E0FBA3E07C
:10140E00FAA3E0F975F002EDA4F58285F0831204DB
:10141E00B9FFED25E02462F582E43400F583EFF0A8
:10142E0075F002EDA4F58285F0831204B9E5F0FFA4
:10143E00ED25E02463F582E43400F583EFF00D80B2
:10144E00AE7B017A00795A7D181218B8900074EEAE
:10145E00F0A3EFF0900074E0FCA3E0900072F0ECCB
:0D146E00A3F07B017A00795A7D1A02194A19
:1015B40020283000000000000000000000000000AF
:1015C4000000000000000000000000000000000017
:1015D40000000000000000000000002028080000B7
:1015E40000000000000000000000000000000000F7
:1015F40000000000000000000000000000000000E7
:06160400000000000000E0
:0B10EF00900062EBF0A3EAF0A3E9F030
:1010FA00EF640160030212CA90009004F0E4A3F0C6
:10110A00A3F0A3F0A3F0A3F0A3F07F287830E4F6CD
:10111A0008DFFC7F287808E4F608DFFC900062E02C
:10112A00FBA3E0FAA3E0F91203E1D394C040037FE2
:10113A00012290000A1203FAB40104D2BC8002C24E
:10114A00BC1203E1FFE598543F4FF598EF64C06085
:10115A0008EF6440600302124490000212063D7FC9
:10116A00B07E837D857C0012057990006512066D3C
:10117A00E4FFFE7D01FC900065E0F8A3E0F9A3E03E
:10118A00FAA3E0FBC312061940037F02229000650E
:10119A00E0F8A3E0F9A3E0FAA3E0FBC3E49BFFE4D1
:1011AA009AFE740199FDE498FC90006512066D9010
:1011BA000062E0FBA3E0FAA3E0F99000011203FA4F
:1011CA00FB64017038C28E538EFE5389BF5389CF98
:1011DA00438E40900065E0FCA3E0FDA3E0FEA3E09F
:1011EA00FF780812062A8F8D900065A3A3A3E0F565
:1011FA008BC2AB5389BF538FFDD28E8076EB6402CC
:10120A007035538EEF438E01538EF7438E04900050
:10121A0065E0FCA3E0FDA3E0FEA3E0FF7808120668
:10122A002A8FD6900065A3A3A3E0F5D753AFFB534B
:10123A008EF7438E10803C7F0222900062E0FBA36F
:10124A00E0FAA3E0F91203E1FF7013900008120319
:10125A00FAB40105438E20801A538EDF8015EFB44D
:10126A0080119000081203FAB401054387808003B5
:10127A0053877F900062E0FBA3E0FAA3E0F99000B5
:10128A00091203FAB40104D2AC8002C2AC9000077E
:10129A001203FAB40104D29C8002C29C90000B1281
:1012AA0003FA54C0FFE5A2543F4FF5A290000C1276
:1012BA0003FAB4010543971080035397EF7F002286
:0212CA007F03A0
:0112CC0022FF
:10000300900092E02430F8A607E004F0C39428405F
:0E00130002E4F0900093E0700404F0D2992211
:101A76001203E1FF600C120003740129F9E43AFA3B
:031A860080EE22CD
:0E194A00900076EBF0A3EAF0A3E9F0A3EDF035
:10195800E4FDFC900079E0FFC3ED9F7480F86C987B
:10196800501D900076E0FBA3E0FAA3E0F98D828C8D
:0F197800831203FAFF1200030DBD00010C80D48F
:01198700223D
:030023000216E8DA
:1016E800C0E0C083C082C0D075D000C000C006C0B2
:1016F80007309820C298900096E07018900094E007
:10170800C394284002E4F0900094E0FF04F07408C9
:101718002FF8A699309927C299900092E0FF90007F
:1017280091E0FE6F601374302EF8E6F599E004F04E
:10173800C394284009E4F08005900093E4F0D007B2
:0D174800D006D000D0D0D082D083D0E032C7
:101A1000C292EF139293EF5402C31324FF9294EFF8
:0B1A200054041313543F24FF9295223E
:100E9B00EFD3940740037FFF221203E1FED39403A9
:100EAB0040037FFF22EF7041EE700B9000011203A5
:100EBB00FAF4529352941203E1B4010B9000011215
:100ECB0003FA4293F452941203E1FEB4020A900027
:100EDB00011203FA42934294EEB4030D90000112F7
:100EEB0003FAFEF45293EE4294EF64017043120343
:100EFB00E1FE700B9000011203FAF452915292EE44
:100F0B00B4010B9000011203FA4291F452921203B6
:100F1B00E1B4020A9000011203FA429142921203C9
:100F2B00E1B4030D9000011203FAFEF45291EE426C
:100F3B0092EF640270431203E1FE700B90000112FA
:100F4B0003FAF452955296EEB4010B900001120382
:100F5B00FA4295F452961203E1B4020A9000011280
:100F6B0003FA429542961203E1B4030D900001126D
:100F7B0003FAFEF45295EE4296EF640370431203AC
:100F8B00E1FE700B9000011203FAF452B152B2EE73
:100F9B00B4010B9000011203FA42B1F452B21203E6
:100FAB00E1B4020A9000011203FA42B142B21203F9
:100FBB00E1B4030D9000011203FAFEF452B1EE42BC
:100FCB00B2EF640470431203E1FE700B9000011248
:100FDB0003FAF452B352B4EEB4010B9000011203B6
:100FEB00FA42B3F452B41203E1B4020A90000112B4
:100FFB0003FA42B342B41203E1B4030D90000112A1
:10100B0003FAFEF452B3EE42B4EF640570431203DD
:10101B00E1FE700B9000011203FAF452C952CAEEB2
:10102B00B4010B9000011203FA42C9F452CA120325
:10103B00E1B4020A9000011203FA42C942CA120338
:10104B00E1B4030D9000011203FAFEF452C9EE4213
:10105B00CAEF640670431203E1FE700B900001129D
:10106B0003FAF452CB52CCEEB4010B9000011203F5
:10107B00FA42CBF452CC1203E1B4020A90000112F3
:10108B0003FA42CB42CC1203E1B4030D90000112E0
:10109B0003FAFEF452CBEE42CCEF6407704312031B
:1010AB00E1FF700B9000011203FAF452E152E2EFF0
:1010BB00B4010B9000011203FA42E1F452E2120365
:1010CB00E1B4020A9000011203FA42E142E2120378
:1010DB00E1B4030D9000011203FAFFF452E1EF4269
:0410EB00E27F00227E
:10002E000202D6E86480F8E933E83360110460F028
:10003E00ED33EC337009E8FCE9FDEAFEEBFF220438
:10004E0060DED3EB9FEA9EE99DE8C2E78CF0C2F733
:10005E0095F0400CE8CCF8E9CDF9EACEFAEBCFFBFF
:10006E001202A185D0F05804700320D5B3E80470B5
:10007E00075002B2D50202E092D5EC0460F7E4CC50
:10008E00C0E0C398F8603B94186008400DD0E0FBC8
:10009E000202B8E4FBFAC9FC8028E830E406E4C9A1
:1000AE00FBE4CAFCE830E305E4C9CACBFCE854071C
:1000BE006010F8C3E913F9EA13FAEB13FBEC13FC27
:1000CE00D8F130F52FC3E49CFCEF9BFFEE9AFEEDCA
:1000DE0099FDD0E0FBEF4E4D4C701222DB03020275
:1000EE00DDEC2CFCEF33FFEE33FEED33FDED30E7B0
:1000FE00EB0202B8EF2BFFEE3AFEED39FDD0E0FB3E
:10010E0050130BBB00030202E0ED13FDEE13FEEFE6
:08011E0013FFEC13FC0202B810
:10012600EC4D6011E8497017ED33EC3304600DE4D3
:10013600FCFFFEFD22E933E8330470F80202D61212
:1001460002A158046009E4CC248150062850090213
:1001560002E02840030202DDC0E0EB4A7044B980A9
:1001660006D0E0FB0202CCEF4E701CBD8008EBFF10
:10017600EAFEE9FD80EBE98DF0A4FEE5F002020F50
:10018600E9CDF9EAFEEBFFEF89F0A4FCE5F0CE89B4
:10019600F0A42EFFE435F0CD89F0A42DFEE435F071
:1001A6008067EF4E7005BD80D780C3EF8BF0A4AC9F
:1001B600F0EE8BF0A42CFCE435F0F8EF8AF0A42CDA
:1001C600E5F038FCE433CB8DF0A42CFCE5F03BF8ED
:1001D600EE8AF0A42CFCE5F038F8E433CF89F0A4DD
:1001E6002CFCE5F038CF3400CE89F0A42FFFE5F0E3
:1001F6003EFEE433C98DF0A42EFEE5F039CD8AF03B
:10020600A42FFFE5F03EFEE43DFD33D0E0FB5007B2
:100216000BBB000F0202E0EC2CFCEF33FFEE33FECB
:06022600ED33FD0202B8F9
:10022C0075F020800E75F010800575F0087D007E4D
:10023C00007F003392D530D50312060BEC334010FF
:10024C00EF33FFEE33FEED33FDEC33FCD5F0ED2256
:0E025C00E5F0247EA2D513CC92E7CDCEFF2292
:10026A00EDD2E7CD33EC3392D524814006E4FFFE8C
:10027A00FDFC22FCE4CFCECDCC24E0501174FF80EB
:10028A00EDC3CC13CCCD13CDCE13CECF13CF047088
:07029A00F030D5DE02060B77
:1002A100E9D2E7C933E833F892D5EDD2E7CD33ECA3
:0702B10033FC5002B2D5221C
:1002B800EC30E7100FBF000C0EBE00080DBD0004A7
:1002C8000BEB6014A2D5EB13FCED92E7FD2274FF53
:1002D800FCFDFEFF22E480F8A2D574FF13FC7D80AC
:0302E800E480EFC0
:03000000021508DE
:0C150800787FE4F6D8FD75815702154F7E
:1002EB00E709F608DFFA8046E709F208DFFA803EF5
:1002FB0088828C83E709F0A3DFFA8032E309F608E2
:10030B00DFFA8078E309F208DFFA807088828C8349
:10031B00E309F0A3DFFA806489828A83E0A3F608FD
:10032B00DFFA805889828A83E0A3F208DFFA804CD7
:10033B0080D280FA80C680D4806980F280338010AE
:10034B0080A680EA809A80A880DA80E280CA803317
:10035B0089828A83ECFAE493A3C8C582C8CCC5838F
:10036B00CCF0A3C8C582C8CCC583CCDFE9DEE7805F
:10037B000D89828A83E493A3F608DFF9ECFAA9F0DE
:10038B00EDFB2289828A83ECFAE0A3C8C582C8CC34
:10039B00C583CCF0A3C8C582C8CCC583CCDFEADE4D
:1003AB00E880DB89828A83E493A3F208DFF980CCAF
:1003BB0088F0EF60010E4E60C388F0ED2402B404A8
:1003CB000050B9F582EB2402B4040050AF2323454F
:0603DB00822390033B7336
:1003E100BB010689828A83E0225002E722BBFE021A
:0903F100E32289828A83E493224D
:1003FA00BB010CE58229F582E5833AF583E02250B8
:10040A0006E92582F8E622BBFE06E92582F8E22201
:0D041A00E58229F582E5833AF583E493221B
:10042700EF8DF0A4A8F0CF8CF0A428CE8DF0A42EE9
:02043700FE22A3
:10043900BC000BBE0029EF8DF084FFADF022E4CCA7
:10044900F875F008EF2FFFEE33FEEC33FCEE9DEC70
:10045900984005FCEE9DFE0FD5F0E9E4CEFD22EDB6
:10046900F8F5F0EE8420D21CFEADF075F008EF2F00
:10047900FFED33FD4007985006D5F0F222C398FDF1
:050489000FD5F0EA228E
:10048E00BB010A89828A83E0F5F0A3E02250068739
:10049E00F009E71922BBFE07E3F5F009E3192289FB
:0B04AE00828A83E493F5F0740193222E
:1004B900BB0110E58229F582E5833AF583E0F5F081
:1004C900A3E0225009E92582F886F008E622BBFE5E
:1004D9000AE92582F8E2F5F008E222E5832AF583A4
:0804E900E993F5F0A3E9932269
:1004F100BB010A89828A83F0E5F0A3F0225006F756
:0F05010009A7F01922BBFE06F3E5F009F3192252
:10051000F8BB0111E58229F582E5833AF583E8F01D
:10052000E5F0A3F0225009E92582C8F608A6F022DA
:0D053000BBFE09E92582C8F2E5F008F222C1
:10053D0075F008758200EF2FFFEE33FECD33CDCC75
:10054D0033CCC58233C5829BED9AEC99E5829840F8
:10055D000CF582EE9BFEED9AFDEC99FC0FD5F0D6D5
:10056D00E4CEFBE4CDFAE4CCF9A88222B800C1B9FF
:10057D000059BA002DEC8BF084CFCECDFCE5F0CB3D
:10058D00F97818EF2FFFEE33FEED33FDEC33FCEB76
:10059D0033FB10D703994004EB99FB0FD8E5E4F931
:1005AD00FA227818EF2FFFEE33FEED33FDEC33FC1E
:1005BD00C933C910D7059BE99A4007EC9BFCE99A12
:1005CD00F90FD8E0E4C9FAE4CCFB2275F010EF2F57
:1005DD00FFEE33FEED33FDCC33CCC833C810D70757
:1005ED009BEC9AE899400AED9BFDEC9AFCE899F892
:0E05FD000FD5F0DAE4CDFBE4CCFAE4C8F92225
:0E060B00C3E49FFFE49EFEE49DFDE49CFC2200
:10061900EB9FF5F0EA9E42F0E99D42F0E89C45F037
:0106290022AE
:10062A00E8600FECC313FCED13FDEE13FEEF13FFAE
:03063A00D8F122D2
:10063D00BB010DE58229F582E5833AF5830206B704
:10064D005007E92582F80206AABBFE07E92582F8C4
:10065D000206C3E58229F582E5833AF5830206D0C9
:0C066D00ECF0A3EDF0A3EEF0A3EFF02200
:10067900A8828583F0D083D0821206901206901248
:100689000690120690E473E493A3C583C5F0C5836D
:10069900C8C582C8F0A3C583C5F0C583C8C582C8CB
:0106A900222E
:10151400020B48E493A3F8E493A34003F68001F29A
:1015240008DFF48029E493A3F85407240CC8C333D8
:10153400C4540F4420C8834004F456800146F6DFA7
:10154400E4800B0102040810204080901594E47E8E
:10155400019360BCA3FF543F30E509541FFEE4939C
:10156400A360010ECF54C025E060A840B8E493A363
:10157400FAE493A3F8E493A3C8C582C8CAC583CA8E
:10158400F0A3C8C582C8CAC583CADFE9DEE780BE46
:01160A0000DF
:0D06AA00E6FB08E6F908E6FA08E6CBF822C0
:0C06B700E0F8A3E0F9A3E0FAA3E0FB22C6
:0D06C300E2FB08E2F908E2FA08E2CBF822B7
:1006D000E493F8740193F9740293FA740393FB2280
:00000001FF
