:101B7A001203E1F59D9000011203FAFFE5BC549FA0
:101B8A004FF5BC9000021203FAB4010543BC8080F1
:101B9A000353BC7F9000031203FAB4010543972054
:101BAA0080035397DF9000051203FAB40104D2AD03
:101BBA008002C2AD9000041203FAB40103D2BD221E
:031BCA00C2BD2277
:0C1DEE00EFB4010443BC802253BC7F22F0
:10198100EFD3940740028061E4F5BDF5BEE5BC5498
:10199100E044084FF5BC000000000000000000001A
:1019A10000000000000000000000E4FBE5BC30E4A2
:1019B1003353BCEFE59730E509E5BD5403ADBEFCFB
:1019C100801DAFBD7C00AD077E00ED7802C333CE34
:1019D10033CED8F9FFE5BE5403FDEEFCEF4DFDAF6C
:0D19E10005AE04220BEBB4FAC37E047F00B8
:0119EE0022D6
:03002B00020026AA
:0400260053BCEF32A6
:101DC4007D847C0AED1D70011C144C70F7EF1F70AC
:061DD400011E144E70EA2E
:011DDA0022E6
:100C260000000000000000000000000000000000BE
:100C360000000000000000000000000000000000AE
:100C4600000000000000000000000000000000009E
:100C5600000000000000000000000000000000008E
:100C6600000000000000000000000000000000007E
:100C7600000000000000000000000000000000006E
:100C8600000000000000000000000000000000005E
:100C9600000000000000000000000000000000004E
:100CA6000000000000000000002B00D6008600A215
:100CB60000C60074002A001A00160011000C001B62
:100CC600001B00180017000B00030004000F00466D
:100CD60000AC0059005200B3010E01E501A3008DDE
:100CE60000010000000000000000000000000000FD
:100CF60000000000000000000000000000000000EE
:100D060000000000000000000000000000000000DD
:100D160000000000000000130011006D0071007952
:100D2600007F0040000E000F000B000600050008C3
:100D3600000D000E000B000600010007003E00AD8E
:100D460000440035009A013201F101BC009E00000A
:100D5600000000000000000000000000000000008D
:100D6600000000000000000000000000000000007D
:100D7600000000000000000000000000000000006D
:100D86000000000000000015006E014200EC00D1DA
:100D960000F9008C004A0022001B001000170021F9
:100DA60000250026001B001000010004001800B4F6
:100DB60000C40063006A00E201A2020701AD006CF4
:100DC600000000000000000000000000000000001D
:100DD600000000000000000000000000000000000D
:100DE60000000000000000000000000000000000FD
:100DF6000000000000000000000B002C013200D0B3
:100E0600010000F8007B002A0019000A0004000B0C
:100E1600000C000E00120013000C0008000300096D
:100E260000A3011C00660069011701CE022901A971
:100E36000089000000000000000000000000000023
:100E4600000000000000000000000000000000009C
:100E5600000000000000000000000000000000008C
:100E660000000000000000000048008C013B00B1BB
:100E7600010500F80053002300150016001A00179C
:100E86000020001D00150008000200030013007C6E
:100E960000FD006E0074010701D0022501E500B1D6
:100EA600000000000000000000000000000000003C
:100EB600000000000000000000000000000000002C
:100EC600000000000000000000000000000000001C
:100ED600000000000000000000100062011900C0C0
:100EE60000E900DD00560023001D001B001400135E
:100EF600001E001F001E000C000500050011004B1F
:100F060000E4009B008000B9016C021E0216010A73
:100F1600000F0000000000000000000000000000BC
:100F260000000000000000000000000000000000BB
:100F360000000000000000000000000000000000AB
:100F460000000000000000000000004800AC00EDBA
:100F560000BC00E500D7003A003100170011001070
:100F66000018001C001C001C001200080005000EE2
:100F7600003A00BF00A0006E00C001410216023F09
:100F860001F50092000000000000000000000000D3
:100F96000000000000000000000000000000000645
:100FA600000600060006000600050005000500060E
:100FB60000050006000600060006000600050005FE
:100FC60000060006000600060006000600060006EB
:100FD60000060006000600060006000600060006DB
:100FE60000060006000600060006000600060006CB
:100FF60000060006000600060007000600060006BA
:1010060000070007000700070006000600060006A6
:10101600000600060006000600060006000600069A
:101026000006000600060006000600060006000090
:1010360000000000000000000000000000000000AA
:10104600000000000000000000000000000000009A
:10105600000000000000000000000000000000008A
:10106600000000000000000000000000000000007A
:10107600000000000000000000000000000000006A
:10108600000000000000000000000000000000005A
:10109600000000000000000000000000000000004A
:0810A600000000000000000042
:0B1AC1004800A805070604030001020E
:101D52009000817402F0A37440F0A37401F0E4A334
:101D6200F0A3F0A3F07B017A007981121B7A7F0144
:031D7200021DEE61
:101B23009000BD7401F09000BCF0FB7A0079BCFF1B
:101B33001210AE9000BD743CF09000BC7403F07BB7
:101B4300017A0079BC7F011210AE9000BD740CF0D5
:101B53009000BC7402F07B017A0079BC7F03121001
:101B6300AE9000BD74C0F09000BC7403F07B017AAA
:071B73000079BCFF0210AE77
:101D22009000817440F0A37402F0A31206BF000178
:101D3200C2009000887401F0E4A3F0A304F0E4A3CD
:101D4200F0A3F0A3F07B017A0079817F01021302F4
:0E1BCD009000A2EBF0A3EAF0A3E9F0A3EDF084
:101BDB00E4A3F0A3F0FFFE9000A5E0FDC3EF9DEEA4
:101BEB00940050279000A2E0FBA3E0FAA3E0F98F4A
:101BFB00828E831203FAFD9000A7E02DF09000A6D1
:101C0B00E03400F00FBF00010E80CC9000A6E0FE88
:031C1B00A3E0FF44
:011C1E0022A3
:041C1F007B017C00C9
:101C2300900081EFF0A3ECF0A3EDF0A3EBF09000B4
:101C330081E0FF14F0EF6033900084E0146014043B
:101C43007020C2B3900082E0FEA3E0FF121DC4D255
:101C5300B3800FC2B2900082E0FEA3E0FF121DC466
:0C1C6300D2B27F647E00121DC480C32238
:101C6F0090008DEDF090008AEBF0A3EAF0A3E9F07D
:101C7F001204A4FFAEF090008DE014F060219000EC
:101C8F008AE0FBA3E0FAA3E0F9A3E075F002A4F564
:0F1C9F008285F0831204CF2FFFE5F03EFE80D741
:011CAE002213
:0814E0007B017A0079107D0AFE
:0E14E800900081EBF0A3EAF0A3E9F0A3EDF091
:1014F600E4A3F0A31206BFFFFFFFFF90008A1206C7
:10150600BF00000000900084E0FFA3E0C39F4003FB
:101516000215EB900081E0FBA3E0FAA3E0F990004E
:1015260085E075F004A4F58285F083120653E4FB8A
:10153600FAF9F8C312062F70030215E2900081E053
:10154600FBA3E0FAA3E0F9900085E075F004A4F5AA
:101556008285F083120653900086E0F8A3E0F9A393
:10156600E0FAA3E0FBC312062F5021900081E0FBB6
:10157600A3E0FAA3E0F9900085E075F004A4F582F3
:1015860085F0831206539000861206B3900081E020
:10159600FBA3E0FAA3E0F9900085E075F004A4F55A
:1015A6008285F08312065390008AE0F8A3E0F9A33F
:1015B600E0FAA3E0FBD312062F4021900081E0FB66
:1015C600A3E0FAA3E0F9900085E075F004A4F582A3
:1015D60085F08312065390008A1206B3900085E0C8
:1015E60004F002150B90008AE0F8A3E0F9A3E0FAF4
:1015F600A3E0FB900086E0FCA3E0FDA3E0FEA3E0F1
:10160600C39BFFEE9AFEED99FDEC98FC74FFFBFA86
:10161600F9F8C312062F7005FFFEFDFC2290008A22
:10162600E0F8A3E0F9A3E0FAA3E0FB900086E0FC73
:10163600A3E0FDA3E0FEA3E0C39BFFEE9AFEED99B7
:04164600FDEC98FC23
:01164A00227D
:101A5C009000B7EBF0A3EAF0A3E9F0A3ECF0A3ED50
:101A6C00F0E41202317B9A7A997999783F12012627
:101A7C0012026A9000B7E0FBA3E0FAA3E0F9900031
:101A8C0004EE8FF01205269000BAE0FCA3E0FDE412
:101A9C001202317BCD7ACC794C783F12012612029E
:101AAC006A9000B7E0FBA3E0FAA3E0F9900006EE21
:051ABC008FF002052679
:1017F90090008AEBF0A3EAF0A3E9F0A3ECF0A3EDE3
:10180900F090008DE0FCA3E0FDE4120231E4FBFA64
:1018190079C0783F12012612026A90008AE0FBA380
:10182900E0FAA3E0F9900008EE8FF0120526900087
:101839008DE0FCA3E0FDE41202317B9A7A997919D3
:10184900783F12012612026A90008AE0FBA3E0FAAF
:10185900A3E0F990000AEE8FF01205269000081215
:1018690004CFFFAEF07C007D0A12043990008AE0B3
:0D187900FBA3E0FAA3E0F9EE8FF0020507F3
:10164B00900081EBF0A3EAF0A3E9F0A3ECF0A3ED9B
:10165B00F0900084E0FCA3E0FDE41202317BCD7A34
:10166B00CC794C784312003512026A900081E0FB72
:10167B00A3E0FAA3E0F9900002EE8FF0120526909A
:10168B000084E0FCA3E0FDE41202317B0A7AD779F7
:10169B00A3784212003512026A900081E0FBA3E0AE
:1016AB00FAA3E0F9EE8FF0120507900081E0FBA39F
:1016BB00E0FAA3E0F91204A4FFAEF07C007D0A125D
:1016CB000427AC06AD07E41202317B9A7A9979991B
:1016DB00783F12012612026A900081E0FBA3E0FA28
:1016EB00A3E0F9900008EE8FF01205261204A4FF78
:1016FB00AEF07C007D0A120427AC06AD07E41202A3
:10170B00317BCD7ACC794C783F12012612026A904C
:10171B000081E0FBA3E0FAA3E0F990000AEE8FF062
:03172B000205268E
:0B191200900081EBF0A3EAF0A3E9F0E5
:10191D00A3E0FBA3E0FAA3E0F9A3E0FD121C6FE442
:10192D00900089F0900088E0147043900081E0FBF6
:10193D00A3E0FAA3E0F99000081204CFFDC3EF9DD8
:10194D00EE95F050089000897401F08005E4900048
:10195D0089F090000A1204CFFDC3EF9DEE95F05073
:10196D000DAD07AC061217F99000897402F09000C6
:03197D0089E0FFFF
:011980002244
:10075A009000001206BF000000009000041206BFBD
:10076A00000000009000081206BF00000000900080
:10077A000C1206BF0000000078107C007D017BFF90
:10078A007A1079347E007F281203BBE4900038F097
:10079A00A3F0A3F0A3F0783C7C007D017BFF7A10E4
:1007AA00795CFE7F101203BBE4FE784C7C007D016D
:1007BA007BFF7A10796C7F101203BB785C7C007D1A
:1007CA00017BFF7A10797C7E007F041203BB78607C
:1007DA007C007D017BFF7A1079807E007F141203F2
:1007EA00BBE4900074F0A3F0A3F0A3F0A3F0A3F08D
:1007FA00A3F0A3F0A3F0A3F0A3F0A3F0A3F0121DBB
:10080A0052121D22D2AFD2B37F2C7E01121DC47D9B
:10081A00027F01121CED7B017A00794CAD07AC0610
:10082A0012164B7D1E7F03121C1F900000E0FCA3D2
:10083A00E0FDA3E0FEA3E02401FFE43EFEE43DFD6B
:10084A00E43CFC9000001206B3E47B01FAF9F8904C
:10085A000000E0FCA3E0FDA3E0FEA3E0FF12058F89
:10086A00AC00AD01AE02AF03E4FBFAF9F8C312061D
:10087A002F7004B2B3D2B2E47B01FAF9F890000007
:10088A00E0FCA3E0FDA3E0FEA3E0FF12058FAC00AD
:10089A00AD01AE02AF03E4FBFAF9F8C312062F600A
:1008AA0003020C1C7D027F01121CED90003CEEF04D
:1008BA00A3EFF0E0240FF090003CE03400F0E0FEFB
:1008CA00A3E0FF90007CE0FD04F0ED25E0245CF558
:1008DA0082E43400F583EEF0A3EFF090007CE0C3ED
:1008EA0094024002E4F090007DE0FD04F0ED25E082
:1008FA002460F582E43400F583EEF0A3EFF0900073
:10090A007DE0C3940A4002E4F090007FE04401F0E5
:10091A00E490007EF090007EE0FFC394025031EF35
:10092A0025E0245CF582E43400F583E0FEA3E0FFD1
:10093A0090004EE0FCA3E0FDC3EF9DEE9C500990B1
:10094A00007FE054FEF0800890007EE004F080C54D
:10095A0090007FE030E0174404F0900000E0FCA330
:10096A00E0FDA3E0FEA3E0FF9000081206B39000AA
:10097A007FE04402F0E490007EF090007EE0FFC346
:10098A00940A5031EF25E02460F582E43400F583BF
:10099A00E0FEA3E0FF90004CE0FCA3E0FDD3EF9D56
:1009AA00EE9C400990007FE054FDF0800890007EA4
:1009BA00E004F080C590007FE05406FFBF06137B79
:1009CA00017A0079607D0A121C6F900044EEF0A350
:1009DA00EFF090004CE0FFA3E090003ECFF0A3EFD1
:1009EA00F0900056E0FFA3E0900040CFF0A3EFF0B4
:1009FA00900054E0FFA3E0900042CFF0A3EFF09004
:100A0A00007FE0540664066003020B7C7B019000C1
:100A1A008404F0A37400F0A37460F0A3740AF0A332
:100A2A007401F07A00794C121912900080EFF024C8
:100A3A00FE6005047048803BE47F01FEFDFC9000E7
:100A4A0004E0F8A3E0F9A3E0FAA3E0FBC312062F3F
:100A5A0050077D327F02121C1FE47F02FEFDFC90CC
:100A6A000004E0F8A3E0F9A3E0FAA3E0FBD312063E
:100A7A002F400B7B017D327C007F02121C239000E9
:100A8A0080E0D394005003020B56900008E0F8A3CC
:100A9A00E0F9A3E0FAA3E0FB900000E0FCA3E0FD8C
:100AAA00A3E0FEA3E09BFFEE9AFEED99FDEC98FC15
:100ABA00C004C005C006C007900038E475F00112F2
:100ACA00048EFEE5F07802C333CE33CED8F9241073
:100ADA00F58274003EF583D007D006D005D0041203
:100AEA0006B3C3900039E0940A900038E0940040BD
:100AFA0004E4F0A3F01214E0E47B14FAF9F8C31248
:100B0A00062F500B7B017DE87C037F03121C23E434
:100B1A0090003BF0900008E0F8A3E0F9A3E0FAA304
:100B2A00E0FB900000E0FCA3E0FDA3E0FEA3E0C32D
:100B3A009BFFEE9AFEED99FDEC98FCE47B32FAF904
:100B4A00F8D312062F4005E490003AF0E490007FB3
:100B5A00F0900004E0FCA3E0FDA3E0FEA3E0240182
:100B6A00FFE43EFEE43DFDE43CFC9000041206B3C3
:100B7A00806690007FE030E25F90003BE070599021
:100B8A000008E0F8A3E0F9A3E0FAA3E0FB90000074
:100B9A00E0FCA3E0FDA3E0FEA3E0C39BFFEE9AFE08
:100BAA00ED99FDEC98FCE47B32FAF9F8C312062FB2
:100BBA00502690003B7401F090003AE004F0C39094
:100BCA000039E0940A900038E09400400B7B017DE4
:100BDA00E87C037F05121C23900080E0FF9000460A
:100BEA00E4F0A3EFF01214E0900048EEF0A3EFF067
:100BFA00900004A3A3E0FFA3E090004ACFF0A3EF84
:100C0A00F07B017A00793C9000857408F07F01122C
:0C0C1A00172E7F647E00121DC4020834F7
:051CED00900081EDF004
:101CF200E4FDFC121D90900081E0FF121DAA7F05F9
:101D02007E00121DC47F01121981AC06AD07C3ED1E
:0F1D1200940AEC94005004E4FEFF22AE04AF05E7
:011D2100229F
:101D90001F74A82FF582E43400F583E0FE1392B798
:0A1DA000EEA2E192B6A2E2929222B6
:101DAA001F74A82FF582E43400F583E0FE139295A0
:0A1DBA00EEA2E19294A2E2929322BD
:0E172E00900081EFF0A3EBF0A3EAF0A3E9F046
:10173C0078867C007D017BFF7A1079947E007F1A7D
:10174C001203BBE49000A0F0A3F0FD900081E0FF39
:10175C0090008674A5F0A3745AF0A37455F0A3748A
:10176C00AAF0A3EFF0A37418F0E4A3F0A304F09094
:10177C000085E0FFEDC39F5048900082E0FBA3E0A2
:10178C00FAA3E0F975F002EDA4F58285F08312045A
:10179C00CFFFED25E0248EF582E43400F583EFF0E5
:1017AC0075F002EDA4F58285F0831204CFE5F0FF0D
:1017BC00ED25E0248FF582E43400F583EFF00D8005
:1017CC00AE7B017A0079867D18121BCD9000A0EEBD
:1017DC00F0A3EFF09000A0E0FCA3E090009EF0ECF2
:0D17EC00A3F07B017A0079867D1A021CAF04
:101ACC002028300000000000000000000000000092
:101ADC0000000000000000000000000000000000FA
:101AEC00000000000000000000000020280800009A
:101AFC0000000000000000000000000000000000DA
:101B0C0000000000000000000000000000000000C9
:061B1C00000000000000C3
:0B13020090008EEBF0A3EAF0A3E9F0EE
:10130D00EF640160030214DD9000B004F0E4A3F07B
:10131D00A3F0A3F0A3F0A3F0A3F07F287830E4F6B8
:10132D0008DFFC7F287808E4F608DFFC90008EE0EB
:10133D00FBA3E0FAA3E0F91203E1D394C040037FCD
:10134D00012290000A1203FAB40104D2BC8002C239
:10135D00BC1203E1FFE598543F4FF598EF64C06070
:10136D0008EF644060030214579000021206837F59
:10137D00B07E837D857C0012058F9000911206B39F
:10138D00E4FFFE7D01FC900091E0F8A3E0F9A3E0FD
:10139D00FAA3E0FBC312062F40037F0222900091B7
:1013AD00E0F8A3E0F9A3E0FAA3E0FBC3E49BFFE4BC
:1013BD009AFE740199FDE498FC9000911206B39089
:1013CD00008EE0FBA3E0FAA3E0F99000011203FA0E
:1013DD00FB64017038C28E538EFE5389BF5389CF83
:1013ED00438E40900091E0FCA3E0FDA3E0FEA3E05E
:1013FD00FF78081206408F8D900091A3A3A3E0F50E
:10140D008BC2AB5389BF538FFDD28E8076EB6402B6
:10141D007035538EEF438E01538EF7438E0490003B
:10142D0091E0FCA3E0FDA3E0FEA3E0FF7808120627
:10143D00408FD6900091A3A3A3E0F5D753AFFB53F4
:10144D008EF7438E10803C7F022290008EE0FBA32E
:10145D00E0FAA3E0F91203E1FF7013900008120304
:10146D00FAB40105438E20801A538EDF8015EFB438
:10147D0080119000081203FAB401054387808003A0
:10148D0053877F90008EE0FBA3E0FAA3E0F9900074
:10149D00091203FAB40104D2AC8002C2AC90000769
:1014AD001203FAB40104D29C8002C29C90000B126C
:1014BD0003FA54C0FFE5A2543F4FF5A290000C1261
:1014CD0003FAB4010543971080035397EF7F002271
:0214DD007F038B
:0114DF0022EA
:100003009000B2E02430F8A607E004F0C39428403F
:0E00130002E4F09000B3E0700404F0D29922F1
:101DDB001203E1FF600C120003740129F9E43AFAD3
:031DEB0080EE2265
:0E1CAF009000A2EBF0A3EAF0A3E9F0A3EDF0A1
:101CBD00E4FDFC9000A5E0FFC3ED9F7480F86C98E7
:101CCD00501D9000A2E0FBA3E0FAA3E0F98D828CF9
:0F1CDD00831203FAFF1200030DBD00010C80D427
:011CEC0022D5
:030023000219EFD0
:1019EF00C0E0C083C082C0D075D000C000C006C0A8
:1019FF0007309820C2989000B6E070189000B4E0BD
:101A0F00C394284002E4F09000B4E0FF04F074089F
:101A1F002FF8A699309927C2999000B2E0FF900055
:101A2F00B1E0FE6F601374302EF8E6F599E004F024
:101A3F00C394284009E4F080059000B3E4F0D00788
:0D1A4F00D006D000D0D0D082D083D0E032BD
:101D7500C292EF139293EF5402C31324FF9294EF90
:0B1D850054041313543F24FF929522D6
:1010AE00EFD3940740037FFF221203E1FED3940394
:1010BE0040037FFF22EF7041EE700B900001120390
:1010CE00FAF4529352941203E1B4010B9000011200
:1010DE0003FA4293F452941203E1FEB4020A900012
:1010EE00011203FA42934294EEB4030D90000112E2
:1010FE0003FAFEF45293EE4294EF6401704312032E
:10110E00E1FE700B9000011203FAF452915292EE2E
:10111E00B4010B9000011203FA4291F452921203A1
:10112E00E1B4020A9000011203FA429142921203B4
:10113E00E1B4030D9000011203FAFEF45291EE4257
:10114E0092EF640270431203E1FE700B90000112E5
:10115E0003FAF452955296EEB4010B90000112036D
:10116E00FA4295F452961203E1B4020A900001126B
:10117E0003FA429542961203E1B4030D9000011258
:10118E0003FAFEF45295EE4296EF64037043120397
:10119E00E1FE700B9000011203FAF452B152B2EE5E
:1011AE00B4010B9000011203FA42B1F452B21203D1
:1011BE00E1B4020A9000011203FA42B142B21203E4
:1011CE00E1B4030D9000011203FAFEF452B1EE42A7
:1011DE00B2EF640470431203E1FE700B9000011233
:1011EE0003FAF452B352B4EEB4010B9000011203A1
:1011FE00FA42B3F452B41203E1B4020A900001129F
:10120E0003FA42B342B41203E1B4030D900001128B
:10121E0003FAFEF452B3EE42B4EF640570431203C8
:10122E00E1FE700B9000011203FAF452C952CAEE9D
:10123E00B4010B9000011203FA42C9F452CA120310
:10124E00E1B4020A9000011203FA42C942CA120323
:10125E00E1B4030D9000011203FAFEF452C9EE42FE
:10126E00CAEF640670431203E1FE700B9000011288
:10127E0003FAF452CB52CCEEB4010B9000011203E0
:10128E00FA42CBF452CC1203E1B4020A90000112DE
:10129E0003FA42CB42CC1203E1B4030D90000112CB
:1012AE0003FAFEF452CBEE42CCEF64077043120306
:1012BE00E1FF700B9000011203FAF452E152E2EFDB
:1012CE00B4010B9000011203FA42E1F452E2120350
:1012DE00E1B4020A9000011203FA42E142E2120363
:1012EE00E1B4030D9000011203FAFFF452E1EF4254
:0412FE00E27F002269
:10002E000202D6E86480F8E933E83360110460F028
:10003E00ED33EC337009E8FCE9FDEAFEEBFF220438
:10004E0060DED3EB9FEA9EE99DE8C2E78CF0C2F733
:10005E0095F0400CE8CCF8E9CDF9EACEFAEBCFFBFF
:10006E001202A185D0F05804700320D5B3E80470B5
:10007E00075002B2D50202E092D5EC0460F7E4CC50
:10008E00C0E0C398F8603B94186008400DD0E0FBC8
:10009E000202B8E4FBFAC9FC8028E830E406E4C9A1
:1000AE00FBE4CAFCE830E305E4C9CACBFCE854071C
:1000BE006010F8C3E913F9EA13FAEB13FBEC13FC27
:1000CE00D8F130F52FC3E49CFCEF9BFFEE9AFEEDCA
:1000DE0099FDD0E0FBEF4E4D4C701222DB03020275
:1000EE00DDEC2CFCEF33FFEE33FEED33FDED30E7B0
:1000FE00EB0202B8EF2BFFEE3AFEED39FDD0E0FB3E
:10010E0050130BBB00030202E0ED13FDEE13FEEFE6
:08011E0013FFEC13FC0202B810
:10012600EC4D6011E8497017ED33EC3304600DE4D3
:10013600FCFFFEFD22E933E8330470F80202D61212
:1001460002A158046009E4CC248150062850090213
:1001560002E02840030202DDC0E0EB4A7044B980A9
:1001660006D0E0FB0202CCEF4E701CBD8008EBFF10
:10017600EAFEE9FD80EBE98DF0A4FEE5F002020F50
:10018600E9CDF9EAFEEBFFEF89F0A4FCE5F0CE89B4
:10019600F0A42EFFE435F0CD89F0A42DFEE435F071
:1001A6008067EF4E7005BD80D780C3EF8BF0A4AC9F
:1001B600F0EE8BF0A42CFCE435F0F8EF8AF0A42CDA
:1001C600E5F038FCE433CB8DF0A42CFCE5F03BF8ED
:1001D600EE8AF0A42CFCE5F038F8E433CF89F0A4DD
:1001E6002CFCE5F038CF3400CE89F0A42FFFE5F0E3
:1001F6003EFEE433C98DF0A42EFEE5F039CD8AF03B
:10020600A42FFFE5F03EFEE43DFD33D0E0FB5007B2
:100216000BBB000F0202E0EC2CFCEF33FFEE33FECB
:06022600ED33FD0202B8F9
:10022C0075F020800E75F010800575F0087D007E4D
:10023C00007F003392D530D503120621EC334010E9
:10024C00EF33FFEE33FEED33FDEC33FCD5F0ED2256
:0E025C00E5F0247EA2D513CC92E7CDCEFF2292
:10026A00EDD2E7CD33EC3392D524814006E4FFFE8C
:10027A00FDFC22FCE4CFCECDCC24E0501174FF80EB
:10028A00EDC3CC13CCCD13CDCE13CECF13CF047088
:07029A00F030D5DE02062161
:1002A100E9D2E7C933E833F892D5EDD2E7CD33ECA3
:0702B10033FC5002B2D5221C
:1002B800EC30E7100FBF000C0EBE00080DBD0004A7
:1002C8000BEB6014A2D5EB13FCED92E7FD2274FF53
:1002D800FCFDFEFF22E480F8A2D574FF13FC7D80AC
:0302E800E480EFC0
:030000000218865D
:0C188600787FE4F6D8FD7581570218CD7C
:1002EB00E709F608DFFA8046E709F208DFFA803EF5
:1002FB0088828C83E709F0A3DFFA8032E309F608E2
:10030B00DFFA8078E309F208DFFA807088828C8349
:10031B00E309F0A3DFFA806489828A83E0A3F608FD
:10032B00DFFA805889828A83E0A3F208DFFA804CD7
:10033B0080D280FA80C680D4806980F280338010AE
:10034B0080A680EA809A80A880DA80E280CA803317
:10035B0089828A83ECFAE493A3C8C582C8CCC5838F
:10036B00CCF0A3C8C582C8CCC583CCDFE9DEE7805F
:10037B000D89828A83E493A3F608DFF9ECFAA9F0DE
:10038B00EDFB2289828A83ECFAE0A3C8C582C8CC34
:10039B00C583CCF0A3C8C582C8CCC583CCDFEADE4D
:1003AB00E880DB89828A83E493A3F208DFF980CCAF
:1003BB0088F0EF60010E4E60C388F0ED2402B404A8
:1003CB000050B9F582EB2402B4040050AF2323454F
:0603DB00822390033B7336
:1003E100BB010689828A83E0225002E722BBFE021A
:0903F100E32289828A83E493224D
:1003FA00BB010CE58229F582E5833AF583E02250B8
:10040A0006E92582F8E622BBFE06E92582F8E22201
:0D041A00E58229F582E5833AF583E493221B
:10042700EF8DF0A4A8F0CF8CF0A428CE8DF0A42EE9
:02043700FE22A3
:10043900BC000BBE0029EF8DF084FFADF022E4CCA7
:10044900F875F008EF2FFFEE33FEEC33FCEE9DEC70
:10045900984005FCEE9DFE0FD5F0E9E4CEFD22EDB6
:10046900F8F5F0EE8420D21CFEADF075F008EF2F00
:10047900FFED33FD4007985006D5F0F222C398FDF1
:050489000FD5F0EA228E
:10048E00A3F8E0C5F025F0F0E58215827002158321
:06049E00E0C838F0E8227E
:1004A400BB010A89828A83E0F5F0A3E02250068723
:1004B400F009E71922BBFE07E3F5F009E3192289E5
:0B04C400828A83E493F5F07401932218
:1004CF00BB0110E58229F582E5833AF583E0F5F06B
:1004DF00A3E0225009E92582F886F008E622BBFE48
:1004EF000AE92582F8E2F5F008E222E5832AF5838E
:0804FF00E993F5F0A3E9932253
:10050700BB010A89828A83F0E5F0A3F0225006F73F
:0F05170009A7F01922BBFE06F3E5F009F319223C
:10052600F8BB0111E58229F582E5833AF583E8F007
:10053600E5F0A3F0225009E92582C8F608A6F022C4
:0D054600BBFE09E92582C8F2E5F008F222AB
:1005530075F008758200EF2FFFEE33FECD33CDCC5F
:1005630033CCC58233C5829BED9AEC99E5829840E2
:100573000CF582EE9BFEED9AFDEC99FC0FD5F0D6BF
:10058300E4CEFBE4CDFAE4CCF9A88222B800C1B9E9
:100593000059BA002DEC8BF084CFCECDFCE5F0CB27
:1005A300F97818EF2FFFEE33FEED33FDEC33FCEB60
:1005B30033FB10D703994004EB99FB0FD8E5E4F91B
:1005C300FA227818EF2FFFEE33FEED33FDEC33FC08
:1005D300C933C910D7059BE99A4007EC9BFCE99AFC
:1005E300F90FD8E0E4C9FAE4CCFB2275F010EF2F41
:1005F300FFEE33FEED33FDCC33CCC833C810D70741
:100603009BEC9AE899400AED9BFDEC9AFCE899F87B
:0E0613000FD5F0DAE4CDFBE4CCFAE4C8F9220E
:0E062100C3E49FFFE49EFEE49DFDE49CFC22EA
:10062F00EB9FF5F0EA9E42F0E99D42F0E89C45F021
:01063F002298
:10064000E8600FECC313FCED13FDEE13FEEF13FF98
:03065000D8F122BC
:10065300BB010DE58229F582E5833AF5830206FCA9
:100663005007E92582F80206F0BBFE07E92582F868
:10067300020708E58229F582E5833AF58302071428
:10068300BB010DE58229F582E5833AF58302073143
:100693005007E92582F8020724BBFE07E92582F803
:1006A30002073DE58229F582E5833AF58302074A8D
:0C06B300ECF0A3EDF0A3EEF0A3EFF022BA
:1006BF00A8828583F0D083D0821206D61206D61276
:1006CF0006D61206D6E473E493A3C583C5F0C5839B
:1006DF00C8C582C8F0A3C583C5F0C583C8C582C885
:0106EF0022E8
:1018920002075AE493A3F8E493A34003F68001F20B
:1018A20008DFF48029E493A3F85407240CC8C33357
:1018B200C4540F4420C8834004F456800146F6DF26
:1018C200E4800B0102040810204080901AC1E47EDB
:1018D200019360BCA3FF543F30E509541FFEE4931B
:1018E200A360010ECF54C025E060A840B8E493A3E2
:1018F200FAE493A3F8E493A3C8C582C8CAC583CA0D
:10190200F0A3C8C582C8CAC583CADFE9DEE780BEC4
:011B220000C2
:0C06F000E6FC08E6FD08E6FE08E6FF2236
:0C06FC00E0FCA3E0FDA3E0FEA3E0FF2271
:0C070800E2FC08E2FD08E2FE08E2FF222D
:10071400E493FC740193FD740293FE740393FF222B
:0D072400E6FB08E6F908E6FA08E6CBF82245
:0C073100E0F8A3E0F9A3E0FAA3E0FB224B
:0D073D00E2FB08E2F908E2FA08E2CBF8223C
:10074A00E493F8740193F9740293FA740393FB2205
:00000001FF
