:020000040800F2
:10000000683F002069010008C3030008A10300083D
:10001000C1030008F9010008710800080000000091
:10002000000000000000000000000000AD06000815
:100030008103000800000000E5030008AF06000887
:100040008301000883010008830100088301000880
:100050008301000883010008830100088301000870
:10006000830100088301000883010008D902000809
:1000700001030008830100082D030008590300084C
:100080008301000883010008830100088301000840
:100090008301000883010008830100088301000830
:1000A0008301000883010008830100088301000820
:1000B0008301000805070008750700088301000890
:1000C0008301000883010008830100088301000800
:1000D000830100089907000883010008050800084B
:1000E00083010008830100088301000883010008E0
:1000F000830100088301000883010008000000005C
:10010000830100080000000083010008830100084B
:1001100083010008830100088301000883010008AF
:10012000830100088301000883010008830100089F
:1001300083010008000000000000000083010008A7
:10014000830100088301000883010008830100087F
:10015000DFF810D000F03EF80048004731140008E6
:10016000AFF30080683F00200648804706480047FC
:10017000FEE7FEE7FEE7FEE7FEE7FEE7FEE7FEE757
:10018000FEE7FEE7B50600085101000840EA01035A
:100190009B0703D009E008C9121F08C0042AFAD23D
:1001A00003E011F8013B00F8013B521EF9D2704701
:1001B000D2B201E000F8012B491EFBD270470022A9
:1001C000F6E710B513460A4604461946FFF7F0FF56
:1001D000204610BD064C074D06E0E06840F00103E4
:1001E00094E8070098471034AC42F6D3FFF7B4FF09
:1001F000981C0008B81C0008FEE7034610B5002054
:10020000024603E09C5C521C204480B28A42F9DB27
:1002100010BD000070B50446104DC0074FF40051EA
:10022000284602D000F05AFF01E000F055FFA00779
:100230004FF48041284602D500F050FF01E000F065
:100240004BFF60074FF40041284603D5BDE87040DE
:1002500000F044BFBDE8704000F03EBF0010014018
:1002600070B5C1600546002614461046314600F0C0
:1002700098F8084307D14FF00040844202D220464C
:1002800000F000FA0446AE60C5E90046204670BDA5
:100290002DE9F04104460F46D4E901100B1A2068FD
:1002A000C51A954200D31546421E1140461AAE4269
:1002B00000D32E46E068324608443946FFF766FF11
:1002C000AA1BB919E068FFF761FF60682844606005
:1002D0002846BDE8F081000010B5084C022200213C
:1002E000204600F032FE002806D020460122BDE85C
:1002F0001040002100F023BE10BD000000000240AD
:1003000010B5084C02220121204600F01EFE0028F4
:1003100007D001221146204600F011FE02490120BB
:10032000087010BD000002401800002010B5084CF5
:1003300002220321204600F008FE002807D00122F7
:100340000321204600F0FBFD02490120487010BD4A
:10035000000002401800002010B5084C02220421C1
:10036000204600F0F2FD002806D020460122BDE81C
:100370001040042100F0E3BD10BD00000000024069
:100380007047000010B5044601F07CFA062C03D239
:10039000024830F8140010BD002010BD04180020E1
:1003A000FEE750EA010206D0431E41F1FF3203404E
:1003B0000A40134302D00020C11770470120FBE719
:1003C000FEE770470907090E002806DA00F00F0063
:1003D00000F1E02080F8141D704700F1E02080F863
:1003E000001470477047000010B540F2046001F03F
:1003F0001FFA0322BDE810404FF46043102101486A
:1004000000F098BE001001402DE9F04F8FB0154666
:100410000F46044620228FA102A8FFF7B7FE95A041
:10042000012DD0E90010CDE90A1094A04FF4DC763C
:10043000D0E90010CDE90C100DF128090DF1300ABA
:100440004FF000057ED107EB47000DF1080B04EBE0
:1004500000160E902846FFF7DDFE4FF4DC70401EBC
:10046000FDD20020FFF78EFF01461BF80700D8469B
:1004700000EB400004EB001219F80500C0F1170072
:1004800022F810100120FFF77DFF014618F8070041
:1004900000EB400004EB001219F80500C0F10F005A
:1004A00022F810100220FFF76DFF014618F8070030
:1004B00000EB400004EB001219F80500C0F1070042
:1004C00022F810100320FFF75DFF1AF80510D04640
:1004D000C1F1170106EB4101A1F8A0050420FFF7C7
:1004E00051FF18F80510C1F10F0106EB4101A1F809
:1004F000A0050520FFF746FF18F805106D1CC1F197
:10050000070106EB4101EDB2A1F8A005082DA1D32A
:100510004FF480584FF47A79CDE900981BF8070022
:100520005D4600EB400004EB0011182304F53A622D
:1005300004F5346001F076F806F5B461182304F58B
:10054000406200E03AE0CDE9009804F5376001F040
:1005500069F80E98002147F23056884604EBC00235
:1005600004EB8103D3F8A00BB04208D3E85D00EBA5
:10057000400004EBC000084480F8608C0AE001F001
:1005800067F88446E85D00EB400004EBC0000844D7
:1005900080F860CCD3F8000CB04203D3531883F832
:1005A000308F04E001F054F8531883F8300F491CE1
:1005B000C9B21829D4D30FB0BDE8F08F2846FFF791
:1005C00029FE3046401EFDD20020FFF7DBFE19F861
:1005D00005104F46C1F1170104EB4101A1F8400B92
:1005E0000120FFF7CFFE795DC1F10F0104EB41015E
:1005F000A1F8400B0220FFF7C5FE795DC1F10701AC
:1006000004EB4101A1F8400B0320FFF7BBFE1AF8F1
:1006100005105746C1F1170104EB4101A1F8700B19
:100620000420FFF7AFFE795DC1F10F0104EB41013A
:10063000A1F8700B0520FFF7A5FE795D6D1CC1F1D7
:10064000070104EB4101EDB2A1F8700B082DB5D301
:10065000B1E70000161718191A1B1C1D0E0F1011F8
:1006600012131415060708090A0B0C0D00010203EA
:10067000040500000102030004070506060504073F
:100680000300020130B5044601250021FFF789FE71
:10069000084309D144B1E807844204D264084FEA10
:1006A0004505FBD1680830BD204630BD704700F0DD
:1006B00069BA0000104810B5016841F4700101608A
:1006C0000E48016841F00101016000214160C162F2
:1006D00001680B4A114001604FF47F01816001689D
:1006E00021F48021016001F019F9BDE810400021DA
:1006F0004FF0006000F08CBF88ED00E00010024079
:10070000FFFFF6EA70B5184D0221284601F092F974
:10071000012827D10221284601F089F9134CA0882D
:1007200068B1A08801281DD10021284601F06EF98A
:1007300080B260802188884208D9401A0AE00021EE
:10074000284601F063F9208001200AE04FF6FF728D
:10075000511A0844A060A0680549B1FBF0F0E080A0
:100760000020A08070BD00000004004008000020B0
:1007700040420F0010B5074C0121204601F05AF904
:10078000012805D12046BDE81040012101F04FB9F4
:1007900010BD00000008004010B5174C1549204658
:1007A00001F056FA002823D02068201D0068134C61
:1007B0000421204600F0ECFA0421204600F032FC2F
:1007C000A0F2DC500E49424201F6B830FFF760FD5E
:1007D0000421204600F0DCFA40F2DC5204212046DD
:1007E00000F011FC2046BDE81040042100F0E0BA02
:1007F00010BD000004030400003801400000024066
:100800008C2F002010B5174C1549204601F020FA16
:10081000002823D02068201D0068134C02212046A8
:1008200000F0B6FA0221204600F0FCFBA0F2DC50FA
:100830000E49424201F2EC50FFF72AFD0221204608
:1008400000F0A6FA40F2DC520221204600F0DBFB69
:100850002046BDE81040022100F0AABA10BD0000F9
:1008600004030400004800400000024068350020F6
:10087000FEE702E008C8121F08C1002AFAD170473B
:100880007047002001E001C1121F002AFBD1704710
:10089000816841F00801816081680907FCD48168A2
:1008A00041F00401816081684907FCD4704712055A
:1008B000A2F5801201290BD0022908D1816B21F405
:1008C0004011816302F44011826B114381637047D0
:1008D000C16A21F47001C16202F47001C26A11435D
:1008E000C162704710B52D4C204600F063F800201F
:1008F00000F0BEF801220221204600F011F9012289
:100900001102204600F00CF90021204600F048F8C2
:10091000062201212046FFF7CAFF002201231146CB
:10092000204600F0B1F801231A461946204600F08F
:10093000ABF8022201231146204600F0A5F803225D
:1009400001231146204600F09FF80422012311469E
:10095000204600F099F8052201231146204600F0B8
:1009600093F84FF460220121204600F063F8012241
:100970001146204600F043F8204600F038F8642085
:1009800000F0F8F82046FFF783FF204600F02AF831
:100990002046BDE81040012100F0B5B80024014018
:1009A0000029816802D041F4006101E021F4006176
:1009B000816070470A4910B540180CD0B0F5806FBF
:1009C0000CD140F20A34204600F04EFF2046BDE82C
:1009D000104000F03BBF40F20934F4E710BD0000C6
:1009E00000DCFEBF816841F48071816070478168DE
:1009F000C90703D1816841F0010181607047002A75
:100A00004FEAC1720AD01AB1826842F48012826041
:100A100089070ED5816841F4004109E01AB1826866
:100A200022F480128260890703D5816821F4004195
:100A300081607047012909D0022906D1816821F41B
:100A4000E04181608168114381607047816821F4D1
:100A50006021F6E710B500F0D9FE00F0B7FF00F016
:100A60003FFB00F0D5F9BDE81040FFF73BBF0000A9
:100A700004490A6822F470220A600A6802430A6084
:100A8000704700000424014030B51F24062909D214
:100A9000456B01EB81018C40A54302FA01F42C4324
:100AA000446318E00C290AD2056B891F01EB810110
:100AB0008C40A54302FA01F42C4304630BE0102997
:100AC00009D2C56A0C3901EB81018C40A54302FAB9
:100AD00001F42C43C46207250A2A08D2046902EBF8
:100AE00042018D40AC438B402343036130BD122A49
:100AF000FCD2C4680A3A02EB42018D40AC438B4001
:100B00002343C36030BDCA0703D0826842F4800229
:100B10008260890703D5816841F4001181607047C4
:100B2000002A4FEAC15211D0002A03DA426842F487
:100B3000807242604A0503D5426842F48062426096
:100B4000890715D5816841F0020110E0002A03DA17
:100B5000426822F4807242604A0503D5426822F45A
:100B600080624260890703D5816821F002018160BB
:100B7000704700000249086008680028FCD17047EF
:100B80000400002003480168002902D00168491EC2
:100B9000016070470400002010B588B04FF4A060D9
:100BA00000F046FE184C0121204600F061F968462D
:100BB00000F01CFA01218DF81A10144802908DF8EB
:100BC0001910002140F2DC50CDE9031010480090CC
:100BD0008DF81810019105916A460121204600F018
:100BE00062F90121204600F0F3F80121204600F0CF
:100BF000E0F902220121204600F091F9012120466E
:100C000000F0C6F808B010BD00000240B029002076
:100C10000448004010B588B01C216846FFF7CFFAA1
:100C20004FF4A06000F004FE184C0221204600F0B2
:100C30001FF9684600F0DAF91548002102908DF896
:100C40001A1001208DF8190040F2DC50CDE9031094
:100C5000104800908DF8181005916A460221204630
:100C600000F021F90221204600F0B2F802212046CE
:100C700000F09FF907484021001F00F0C1FF02214A
:100C8000204600F095F808B010BD000000000240BA
:100C9000683500200448004010B588B04FF4A060CB
:100CA00000F0C6FD184C0321204600F0E1F868462C
:100CB00000F09CF901218DF81A10144802908DF86B
:100CC0001910002140F2DC50CDE9031010480090CB
:100CD0008DF81810019105916A460321204600F015
:100CE000E2F80321204600F073F80321204600F0CB
:100CF00060F902220321204600F011F90321204669
:100D000000F046F808B010BD00000240F81D0020B9
:100D10000438014010B588B04FF4A06000F088FDA1
:100D2000184C0421204600F0A3F8684600F05EF954
:100D30001548002102908DF81A1001208DF8190035
:100D400040F2DC50CDE90310104800908DF81810E7
:100D500005916A460421204600F0A5F804212046AA
:100D600000F036F80421204600F023F9074840211E
:100D7000001F00F045FF0421204600F019F808B0DC
:100D800010BD0000000002408C2F002004380140FC
:100D900070B50C46054600F01DF940B104EB840027
:100DA00005EB8000816821F00101816070BDFEE7E4
:100DB00070B50C46054600F00DF940B104EB840017
:100DC00005EB8000816841F00101816070BDFEE7A4
:100DD00070B50C46054600F0FDF840B104EB840008
:100DE00005EB8000816821F02001816070BDFEE785
:100DF00070B50C46054600F0EDF840B104EB8400F8
:100E000005EB8000816841F02001816070BDFEE744
:100E100010B5144C88B00021204600F029F8124883
:100E2000002100908DF8181001208DF819000002A3
:100E3000019080000390062004900C4A4FF400506B
:100E4000029205908DF81A106A46204600F02BF8A1
:100E500000212046FFF7CCFF00212046FFF7A8FF26
:100E600008B010BD000002404C24014010180020C2
:100E700070B50D46044600F0ADF898B105EB85005D
:100E800004EB8002906820F00100906000209060E8
:100E9000D060106150616068AA000F219140084342
:100EA000606070BDFEE770B514460D46064600F062
:100EB00091F850B305EB850006EB800021680161D5
:100EC000A1684161218A89B2C1608168E36821F427
:100ED0007C52616819436369134319438160217E21
:100EE0000129816812D021F040018160617E0129D1
:100EF00081680ED021F080018160A17E0029816887
:100F00000AD041F01001816070BDFEE741F0400160
:100F1000EBE741F08001EFE721F01001F3E770B556
:100F200015460C46064600F055F838B104EB84002F
:100F300006EB800081682943816070BDFEE743684D
:100F400089008A4013434360704710B58C001346F4
:100F5000A24001EB810100EB8101022B04D0042BA4
:100F600008D0082B0CD0FEE700688968104001F01B
:100F700002010AE000688968104001F0040104E001
:100F800000688968104001F0080110B109B1012022
:100F900010BD002010BD70B515460C46064600F089
:100FA00019F828B104EB840006EB8000456170BDA0
:100FB000FEE770B50C46054600F00CF840B104EBB6
:100FC000840005EB8000816821F48041816070BD60
:100FD000FEE700000246044B01209A4202D1042998
:100FE00000D90020704700000004024050B10021E9
:100FF0000160416001768160C16041760161817666
:1010000041617047FEE770B515460C460646FFF78E
:10101000E1FF30B104EB840106EB8101A8B2C860A6
:1010200070BDFEE770B50C460546FFF7D3FF28B14B
:1010300004EB840005EB8000C06870BDFEE7000093
:101040002DE9F0410546214800240F46854203D092
:101050001F48854200D102241E4830F8140000F0D9
:10106000E7FB1C48083830F8140000F0E1FB194891
:1010700003220A3000F1200650F8243056F82400EC
:10108000182100F057F8A6F11000032250F8243080
:1010900056F82400042100F04DF8284600F084FDA5
:1010A0003946284600F056FD0421284600F0E8FDA8
:1010B0000821284600F0EAFD284600F0BAFD28463F
:1010C000BDE8F0414FF4417100F0B8BD0038014077
:1010D00000480040220000204161704701617047D4
:1010E00010B5134C012304220021204600F022F801
:1010F000022304220021204600F01CF804231A4693
:101100000021204600F016F8082304220021204682
:1011100000F010F8102304220021204600F00AF805
:10112000204620230422BDE81040002100F002B830
:10113000000801402DE9F04301F00F04CD0602D56F
:10114000042A18D0144300224FF00F094FF0010871
:1011500008FA02F51D4019D00768960009FA06FC46
:1011600027EA0C0704FA06FC4CEA070C282908D0E9
:10117000482908D008E0C26B44F003041A43C26354
:10118000E1E7456100E00561C0F800C0521C92B281
:10119000082ADDD3082208FA02F51D4014D047685A
:1011A0009600203E09FA06FC27EA0C0704FA06FC22
:1011B0004CEA070C282902D0482902D002E04561F8
:1011C00000E00561C0F804C0521C92B2102AE2D3BC
:1011D000BDE8F083F0B5144C002801DAE36900E0C3
:1011E0006368450D2E0185B2C0F30157B540C0F3C9
:1011F0000342032F05D0C6020AD503269640B34307
:1012000007E023F0E062636823F0E063636002E0DC
:10121000AB4343F0E06201B12A43002801DAE26106
:10122000F0BD6260F0BD0000000001402DE9F0411A
:10123000254D10212846FFF74FFF04212846FFF7D0
:101240004BFF224F4FF4004631463846FFF744FF2C
:1012500001212846FFF740FF08212846FFF73CFF01
:1012600002212846FFF738FF002431463846FFF7B1
:1012700035FF01212846FFF731FF0120401EFDD236
:1012800031463846FFF728FF01212846FFF724FFA3
:101290000120401EFDD2641CE4B21E2CE5D30821BF
:1012A0002846FFF71BFF02212846FFF717FF012101
:1012B000491EFDD208212846FFF70EFF2846BDE84B
:1012C000F0410221FFF708BF000C01400008014077
:1012D00010B540F2036000F0ABFA40F2026000F09B
:1012E000A7FA4FF4C06000F0A3FA1F2303221021D5
:1012F0000648FFF71FFF4FF4004303221021044864
:10130000FFF718FFBDE81040FFF790BF000C014049
:10131000000801402DE9F0472D4C064610212046DB
:10132000FFF7DCFE04212046FFF7D8FE294D4FF4DD
:10133000004739462846FFF7D1FE01212046FFF736
:10134000CDFE0120401EFDD239462846FFF7C4FEDF
:101350000121A1462046FFF7BFFEA84600244D46C6
:101360001FE010212846FFF7B7FE04212846FFF7AB
:10137000B3FE39464046FFF7B1FE01212846FFF78C
:10138000ADFE0120401EFDD239464046FFF7A4FEC7
:1013900001212846FFF7A0FE0120401EFDD2641C5B
:1013A000E4B2B442DDD308212846FFF797FE0221BC
:1013B0002846FFF793FE0121491EFDD20821284649
:1013C000FFF78AFE2846BDE8F0470221FFF784BEFA
:1013D000000C01400008014070B540F2036000F0CD
:1013E00027FA114D4FF4805423460322102128463A
:1013F000FFF7A0FE21462846FFF76EFE4FF4C060BF
:1014000000F016FA01210948FFF7E4FE4FF440749A
:101410002346032210212846FFF78CFE214628464A
:10142000BDE87040FFF758BE000C014000023000DC
:101430000026344600F0CAFAFFF70CFBFFF7CCFF9A
:10144000FFF746FF00F03AFAFEF7CEFF4FF4E12532
:10145000284600F021FB284600F062FBDFF8B09040
:101460004FF4FA7A4FF0320BD9F800004D46401C89
:10147000B0FBFAF2C9F800000AFB120050B9254887
:1014800096F001064FF4805102D0FFF727FE01E0ED
:10149000FFF722FE2146204800F020FA641CE4B247
:1014A0001E2C00D100242968B1FBFBF20BFB1210AB
:1014B00050BB1A4D45F6A52040F2A65728800120C2
:1014C000A870A5F8037068714FF434784246A5F50A
:1014D000B461A81DFEF75AFEA5F53471424601F22B
:1014E000A650FEF753FE39462846FEF786FEA5F8BD
:1014F000A605BD1C2A460949002000F087FB2A46A4
:101500000649022000F082FB0120FFF733FBABE726
:1015100000000020000C01405C0000205C12002054
:10152000134910B5401810D0B0F5704F1ED10122EC
:1015300000210E2000F01EF8002211460F2000F0BE
:1015400019F80122114625200CE0002211460D2039
:1015500000F010F8012200210C2000F00BF801220D
:1015600000212720BDE8104000F004B810BD0000A5
:1015700000B8FFBFF0B506461F4800240F460068BC
:10158000234600F4E0654FF4A06085420FD006DCEE
:10159000B5F5407F16D0B5F5806F06D10FE0B5F5F3
:1015A000C06F09D0B5F5E06F04D000F027F8022431
:1015B000234608E0042306E00124032303E0032478
:1015C000012300E00424C4F104008740C3F10401B6
:1015D0000F20C8401040384306F1E021000181F897
:1015E000000406F01F01012088407109890001F103
:1015F000E021C1F80001F0BD0CED00E00249084314
:1016000002490860704700000000FA050CED00E098
:10161000024A1140014302480160704780FFFF1FEA
:1016200008ED00E0F0B50024DDE905750DE030F8C7
:10163000146031F814C0AE1B7E43A5EB0C0C96FB76
:10164000FCF642F82460641CE4B29C42EFD3F0BD87
:1016500000EE100AF7EE000AB8EE400A80EE801A9B
:101660009FED080ADFED080A31EE400A20EE200A5D
:10167000DFED060A80EE201ABCEEC10A10EE100A59
:10168000C0B2704765CF0B3800007F43E8677D3AF2
:10169000124B10B55968124A1140DA6A0C2822F030
:1016A000005217D2DFE800F00606060616091609F2
:1016B0001010101041EA80310CE020F0040041EAE3
:1016C000803040F0805105E020F00C0041EA80318C
:1016D00042F000525960DA6210BD00000010024072
:1016E000FF3FFFEF70B540A188B02EC98DE82E00F6
:1016F0003EA1414DD1E90021CDE904213BA10446A1
:10170000D1E90021CDE90621696800203B4BC1F3F6
:10171000810222B13A49012A40D0022A01D0194659
:101720003CE06A684FF4803302F480329A421ED162
:10173000EA6A12F0804F00D03249EA6A02F480323D
:101740009A420DD1EA6AC2F30313EA6A5B1CC2F340
:101750000322921C112A00D11422B1FBF3F1514350
:10176000EA6A02F00F02521CB1FBF2F300E0264BD2
:101770006968C1F383426968890001D542F01002AB
:101780000F2A01D2921C00E0521C03FB02F10F2A27
:1017900004D103EB4301490001EB53016A686B6814
:1017A000C2F303121DF8022021FA02F2C3F302234E
:1017B00004AE6D68F35C22FA03F3C5F3C22506AEEE
:1017C000755D22FA05F544B1012C08D0022C08D031
:1017D000032C00D1284608B070BD0846FBE7104630
:1017E000F9E71846F7E700000000000000000000DD
:1017F00001020304060708090010024000127A00E3
:1018000040787D01006CDC0200093D0010B540F21B
:10181000026000F00DF840F2096000F009F84FF4A2
:10182000A06000F005F8BDE810400120FFF730BFD0
:10183000054901EB90110A6800F01F030120984050
:1018400002430A607047000000100240054901EBA6
:1018500090110A6800F01F030120984082430A603B
:101860007047000000100240054901EB90110A6822
:1018700000F01F030120984002430A6070470000F7
:101880000010024030B50C4B0021A3F10C040022E3
:10189000104600EB400503EB850535F81150401C60
:1018A0002A4492B210F0FF00F3D024F81120491C12
:1018B000C9B20629EBD330BD1018002010B540F294
:1018C0000260FFF7B5FF80230322BDE8104010211E
:1018D0000148FFF72FBC00000008014070B50E4C16
:1018E0000D46064680212046FFF7F8FBFFF79EFCD9
:1018F000002229463046FEF787FD80212046FFF76B
:10190000EBFB2846FFF706FD29463046BDE8704050
:101910000122FEF779BD00000008014025480021A2
:10192000026842F4803202604FF6FF730268491C7D
:1019300012F4003F01D19942F8D10168890300D423
:10194000FEE71D490A6822F00702D21C0A604168BE
:10195000416041684160416841F480614160416893
:10196000164A114041604168154A11434160C16AFD
:10197000144A1140C162C16A134A1143C16201682D
:1019800041F08061016001680901FCD5016841F006
:101990008071016001688901FCD5416821F0030173
:1019A0004160416841F00201416041680907FCD58E
:1019B000704700000010024000200240FFFFC3DF1C
:1019C0000000352000F0FEBF4906010070B50E484A
:1019D0004FF47A710068B0FBF1F0401EB0F1807FE7
:1019E00011D24FF0E024606165170F212846FEF701
:1019F000E9FC0020A061072020612846BDE8704076
:101A00000021FEF7DFBCFEE71400002002460020A4
:101A100039B1012907D0022907D0032900D1106C60
:101A20007047506B7047906B7047D06B7047C943DD
:101A300001617047C26800690A40084202D00AB1D9
:101A4000012070470020704770B5104A0C460546CB
:101A50005378002BFCD0002050700D4E03213046EF
:101A6000FFF796F92A4603213046FFF794FA2246FB
:101A700003213046FFF7C7FA03213046FFF798F9F4
:101A8000BDE870408021034800F0CDB81800002068
:101A9000000002400038014010B50A4C01462046C3
:101AA000FFF7CEFA2046FFF73BFD40F2DC52064935
:101AB0000648FEF7D5FBFFF7EFF8BDE81040FFF74B
:101AC00029B90000003801401C180020443B0020C8
:101AD00070B5104A0C4605461378002BFCD0002048
:101AE00010700D4E01213046FFF752F92A460121B0
:101AF0003046FFF750FA224601213046FFF783FABD
:101B000001213046FFF754F9BDE8704080210348B9
:101B100000F089B818000020000002400048004092
:101B200010B50A4C01462046FFF78AFA2046FFF717
:101B3000F7FC074940F2DC5201F5BC50FEF790FB80
:101B4000FFF72AF8BDE81040FFF764B800480040EE
:101B5000D423002070B5124A04460D460020A11A75
:101B6000131594421AD005DC0E49611816D099421B
:101B700008D113E0994211D0B1F56C4F02D1032086
:101B8000FFF7B0FD00EB5500B0FBF5F04FF6F0713C
:101B9000014000F00F021143A16070BD0220EFE789
:101BA000004C004000BCFFBF134A10B5811A13154A
:101BB000904213D007DC114940180CD098421AD13A
:101BC00040F212440FE099420BD0B1F56C4F12D1A4
:101BD00040F20E3407E040F2114404E040F21344B6
:101BE00001E040F214442046FFF73EFE2046BDE8E7
:101BF0001040FFF72BBE10BD004C004000BCFFBFE3
:101C0000426922F040020A43426170470B4628B104
:101C1000022807D111461846FFF75ABF1146184649
:101C2000FFF712BF7047426922F080020A43426107
:101C30007047C16841F40051C160704700EB9110DA
:101C4000026801F01F03012199400A4302607047B6
:101C500030B5C1F38912825800EB915001F01F0595
:101C6000012404FA05F300681A40C1F3044104FAA0
:101C700001F3184202D00AB1012030BD002030BD6E
:101C8000C26822F004020A43C2607047C26822F0B0
:101C900008020A43C2607047B81C00080000002018
:101CA0005C00000072080008141D00085C000020A1
:101CB0000C3F000082080008000000000000000047
:101CC000000000000000000000000000000E2707D8
:101CD00001010E0611071207130702060306030689
:101CE00004060000000200000400000000040000E0
:101CF00000040000000400000800000000080000CC
:101D00000008000000080140000C0140000C0140E8
:041D1000001001407E
:04000005080001519D
:00000001FF
