:020000040800F2
:10000000182E002069010008550400087D0300082F
:1000100051040008F9010008510600080000000022
:10002000000000000000000000000000BB04000809
:10003000610300080000000081040008BD040008FE
:100040008301000883010008830100088301000880
:100050008301000883010008830100088301000870
:10006000830100088301000883010008F5020008ED
:1000700083010008830100081903000841030008F8
:100080008301000883010008830100088301000840
:10009000FD010008830100088301000883010008B6
:1000A0008301000883010008830100088301000820
:1000B000830100081D050008C5050008830100082C
:1000C0008301000883010008830100088301000800
:1000D00083010008E105000883010008830100088E
:1000E00083010008830100088301000883010008E0
:1000F000830100088301000883010008000000005C
:10010000830100080000000083010008830100084B
:1001100083010008830100088301000883010008AF
:10012000830100088301000883010008830100089F
:1001300083010008000000000000000083010008A7
:10014000830100088301000883010008830100087F
:10015000DFF810D000F03EF800480047E91500082D
:10016000AFF30080182E002006488047064800475D
:10017000FEE7FEE7FEE7FEE7FEE7FEE7FEE7FEE757
:10018000FEE7FEE7C50400085101000840EA01034C
:100190009B0703D009E008C9121F08C0042AFAD23D
:1001A00003E011F8013B00F8013B521EF9D2704701
:1001B000D2B201E000F8012B491EFBD270470022A9
:1001C000F6E710B513460A4604461946FFF7F0FF56
:1001D000204610BD064C074D06E0E06840F00103E4
:1001E00094E8070098471034AC42F6D3FFF7B4FF09
:1001F000542000087420000800BFFEE700B595B049
:100200000748007880F001000549087001AA002124
:10021000044800F0E5FC01A801F03CFC15B000BD6D
:10022000080000200064004010B5024600230020B2
:1002300003E0145C1C44A3B2401C8842F9DB18465E
:1002400010BD70B505460E461446EE6020460021EE
:1002500000F0E6F8002358405940084309D1B4F1B2
:10026000004F02D34FF0004403E0204600F009F9AC
:1002700004462C600020A8606860204670BD2DE90F
:10028000F04104460F461546D4E90101401A2168A1
:10029000081AA84205D2D4E90101401A2168081AB7
:1002A00000E028460546D4E90010491E08402168B0
:1002B000081AA84206D2D4E90010491E0840216855
:1002C000081A00E028460646D4E90021521E1140D3
:1002D000E268881832463946FFF758FFAA1BB91959
:1002E000E068FFF753FF6068284460602846BDE877
:1002F000F081000010B502220021064800F072FFD4
:1003000030B101220021034800F064FF01F09EFBA0
:1003100010BD00000000024010B502220321064873
:1003200000F060FF38B101220321034800F052FFC2
:1003300001200249087010BD000002407C0000202E
:1003400010B502220421054800F04CFF20B1012223
:100350000421024800F03EFF10BD000000000240F2
:10036000704700000146092903DA034830F81100FC
:1003700070470020FCE70000E825002000BFFEE7F2
:1003800000BF011EA0F10100FBD1704710B540F283
:10039000036001F02BFB40F2046001F027FB4FF4F7
:1003A000C06001F023FB0121194801F0D3F84FF69A
:1003B000FF7303221021174801F06AF84FF6FF730C
:1003C00003221021144801F063F84FF40043012286
:1003D0001421124801F05CF84FF4C8530322102195
:1003E0000E4801F055F84FF400410C4801F018F8A0
:1003F0004FF48071094801F013F84FF40061074889
:1004000001F00EF84FF48051044801F00BF810BDD4
:1004100000023000000C01400010014000080140C3
:1004200030B502460B46002182EA010059400843DC
:100430000BD0501E63F100011040194000256840A8
:100440006940084301D1012000E00020C11730BD00
:1004500000BFFEE77047000010B5002807DA0A0762
:10046000140E054A00F00F031B1FD45403E00A07C3
:10047000130E024A135410BD18ED00E000E400E032
:10048000704730B50446012520460021FFF7C8FF1C
:10049000002358405940084300D10CB9204630BDD4
:1004A000B4F1004F02D34FF00040F8E701E06408D8
:1004B0006D00002CFBD16808F1E7704710B500F023
:1004C0007BFC10BD10B51248006840F47000104964
:1004D00008601048006840F001000E4908600020E4
:1004E0004860C862084600680B490840094908602E
:1004F0004FF47F0088600846006820F48020086080
:1005000001F0AAFB00214FF0006001F05BF910BD83
:1005100088ED00E000100240FFFFF6EA10B502216E
:10052000214801F0DDFB01283CD102211E4801F0E9
:10053000D4FB1E48008848B900211B4801F0B8FBD5
:100540001B4908800120194908802BE017480088C2
:10055000012827D10021144801F0AAFB1549088081
:100560000846008812490988884207DD114800883A
:100570000F490988401A1049086009E00C480088B2
:100580004FF6FF71081A0B49098808440A490860A8
:10059000094800680949B1FBF0F0094908800020CA
:1005A0000249088010BD0000000400401400002033
:1005B00010000020120000201800002040420F0010
:1005C0001C00002010B50121044801F089FB01281E
:1005D00003D10121014801F080FB10BD000800405B
:1005E00010B51549154801F051FC20B313480068B7
:1005F0001248001D00680421114800F06FFC04211E
:100600000F4800F0B0FEC0F500700E4908600846C3
:100610000D4902680D48FFF732FE0421084800F03A
:100620005DFC4FF400720421054800F089FE0421AE
:10063000034800F06CFC10BD0403040000380140C6
:10064000000002409000002008260020082A002018
:1006500000BFFEE702E008C8121F08C1002AFAD155
:1006600070477047002001E001C1121F002AFBD132
:1006700070472DE9F041054600260024002700BF01
:1006800027E0002612E005F1800000EBC61030F8EC
:10069000140041F66421294451F82410084441F61D
:1006A0006421294441F82400701CC6B2202EEADBE4
:1006B00041F66420284450F82400B0F5805F06D34A
:1006C0004FF4805041F66421294441F82400601C15
:1006D000C4B2402CD5DB002429E0002623E005F13C
:1006E000800000EBC61030F81470282F07D20020CD
:1006F00041F66431294401EB8611085511E0C7EB3E
:10070000072041F66421294451F82410C91BC1F582
:100710008051B0FBF1F041F66431294401EB8611C0
:100720000855701CC6B2202ED9DB601CC4B2402C08
:10073000D3DB4FF4807141F664202844FFF73FFD7E
:10074000BDE8F081816841F00801816000BF8168E7
:1007500001F008010029FAD1816841F004018160AB
:1007600000BF816801F004010029FAD1704730B55B
:10077000012902D002291AD10CE0C36A23F47003C4
:10078000C362C36A541E4FF4700505EA0454234340
:10079000C3620DE0836B23F440138363836B541EA9
:1007A0004FF4401505EA04542343836300E000BF7F
:1007B00000BF30BD10B5324800F070F8002000F0E6
:1007C000DFF8012202212E4800F04DF9012211022A
:1007D0002B4800F048F90021294800F053F808227E
:1007E00001212748FFF7C3FF0523002211462448B3
:1007F00000F0D4F8052301221146214800F0CEF87C
:100800000523022211461E4800F0C8F805230322E2
:1008100011461B4800F0C2F805230422114618486F
:1008200000F0BCF805231A461946154800F0B6F842
:10083000052306221146124800F0B0F805230722CE
:1008400011460F4800F0AAF84FF4602201210C482D
:1008500000F071F801221146094800F04DF80848EF
:1008600000F041F8012000F09DFA0548FFF76AFF0B
:10087000034800F033F80121014800F0E5F810BD0D
:100880000024014021B1826842F40062826003E0EA
:10089000826822F4006282607047000010B504464E
:1008A0000D48204418B1B0F5806F12D108E040F235
:1008B000093001F0BBF840F2093001F0A7F809E077
:1008C00040F20A3001F0B2F840F20A3001F09EF82E
:1008D00000E000BF00BF10BD00DCFEBF816841F436
:1008E000807181607047816801F0010119B98168E8
:1008F00041F001018160704772B101F001031BB149
:10090000836843F48013836001F0020393B183682A
:1009100043F4004383600DE001F001031BB18368E1
:1009200023F48013836001F002031BB1836823F476
:10093000004383607047012902D0022910D107E0EB
:10094000836823F46023836083681343836008E033
:10095000836823F4E043836083681343836000E08B
:1009600000BF00BF704710B501F02EF801F078F914
:1009700000F05AFD00F016FBFFF71CFF10BD000051
:100980000549096821F47021034A1160114609687C
:10099000014311607047000004240140F0B51D467A
:1009A00006290CDA436B01EB81071F26BE40B343D7
:1009B00001EB810602FA06F63343436322E00C2979
:1009C0000EDA036B8E1F06EB86071F26BE40B3436D
:1009D0008E1F06EB860602FA06F63343036311E028
:1009E00010290FDAC36AA1F10C0606EB86071F2651
:1009F000BE40B343A1F10C0606EB860602FA06F6EA
:100A00003343C3620A2A0CDA046902EB4207072661
:100A1000BE40B44302EB420605FA06F634430461D5
:100A200011E0122A0FDAC468A2F10A0606EB4607A3
:100A30000726BE40B443A2F10A0606EB460605FAB5
:100A400006F63443C460F0BD01F001021AB18268B9
:100A500042F48002826001F002021AB1826842F41C
:100A6000001282607047AAB101F480731BB1436821
:100A700043F48073436001F480631BB1436843F423
:100A80008063436001F00203CBB1836843F002034B
:100A9000836014E001F480731BB1436823F4807316
:100AA000436001F480631BB1436823F480634360B7
:100AB00001F002031BB1836823F0020383607047D7
:100AC0002DE9F04707468846914600260025002478
:100AD000B9F1000F03D0B9F1010F77D145E000253E
:100AE00040E0284600F0E0FF4FF4E160FFF748FCEB
:100AF000002433E0E006060E012C05D0022C03D0C2
:100B0000052C01D0062C04D13248405D3044C6B2D9
:100B100003E03148405D3044C6B23049085DFFF71C
:100B200021FC824600EBDA70401007F1800101EBF6
:100B3000C81121F816002949085DFFF713FCC0EB26
:100B4000002A4FEAEA700AEB1050C0F3073107F5AC
:100B5000845000EB88108155601CC4B2082CC9DB9E
:100B6000681CC5B2082DBCDB31E000252AE0284610
:100B700000F09AFF4FF4E160FFF702FC00241DE053
:100B8000E006060E012C05D0022C03D0052C01D066
:100B9000062C04D10F48405D3044C6B203E00E4835
:100BA000405D3044C6B20D49085DFFF7DBFB41F6FE
:100BB0006421394441F82600601CC4B2082CDFDBF4
:100BC000681CC5B2082DD2DB01E0FFE700BF00BF03
:100BD000BDE8F087340000202C0000202400002015
:100BE000F8B50026002500F5D87707EB01173F6818
:100BF00007F004071772177A3FB900F5D87707EBAB
:100C000001173F687F0D176006E000F5D87707EB06
:100C100001173F68FF08576000F5D87707EB011709
:100C20003F6807F00207577200F5DA7707EB011704
:100C30003F683F0A82F84B7000F5DA7707EB01173F
:100C40003F6807F0800782F84C7092F84C70EFBB59
:100C500000F5DA7707EB01173F6807F00F07977287
:100C600000F5DC7707EB01173F68D77200F5DC77FA
:100C700007EB01173F684FEA172C82F80CC000F50C
:100C8000DC7707EB01173F684FEA174C82F80DC07D
:100C900000F5DC7707EB01173F684FEA176C82F825
:100CA0000EC000F5DE7707EB01173F68D77300F53C
:100CB000DE7707EB01173F684FEA172C82F810C068
:100CC00000F5DE7707EB01173F6800E00DE04FEA23
:100CD000174C82F811C000F5DE7707EB01173F686B
:100CE0004FEA176C82F812C04FE0076A07F001065E
:100CF000002E48D000F5DA7707EB01173F6807F0C0
:100D00000F05082D01D8957206E0A5F10907DFF857
:100D100090C01CF80770977200F5DA7707EB01179F
:100D20003F68C7F3401782F84D7000F5DA7707EB9C
:100D300001173F68C7F3001782F84E70977ABB0817
:100D4000012B04D1977A042F01D05F1CFBB202F172
:100D50000B0700973BB900F5DC7707EB01173C6800
:100D6000009F3C6011E00BE000F5DC7707EB01171A
:100D70003C68009F3C60009F3F1D00975F1EFBB2D8
:100D8000002BF1D101E000BFFEE721B9C76847F0B1
:100D90002007C76003E0076947F020070761F8BD37
:100DA000681F00080349086000BF0249096800295C
:100DB000FBD170470C0000200448006820B10348B4
:100DC0000068401E01490860704700000C000020C8
:100DD00000B587B04FF4A06000F008FE032118486A
:100DE00000F010F9684600F09DFA01208DF81A0015
:100DF0001448029001208DF81900002003904FF450
:100E0000007004901048009000208DF818000190A8
:100E10004FF4405005906A460321094800F02AF932
:100E20000321074800F08CF80321054800F02DFA53
:100E300002220321024800F0B4F907B000BD00000F
:100E400000000240082800200438014000B587B0A7
:100E50004FF4A06000F0CAFD04211D4800F0D2F854
:100E600000208DF81A001B48029001208DF819000F
:100E7000002003904FF40070049017480090002069
:100E80008DF8180003904FF4405005906A460421F5
:100E90000F4800F0EFF804210D4800F051F804214C
:100EA0000B4800F0F2F940210B48001F00F0CCFF86
:100EB00002220421064800F074F90421044800F0DD
:100EC00026F880210448001F00F0C6FF07B000BDCF
:100ED00000000240082600200438014070B5054695
:100EE0000C462146284600F0E9F908B900BFFEE7A4
:100EF00004EB8400810005F10800405820F0010156
:100F000004EB8400820005F10800815070BD70B5CB
:100F100005460C462146284600F0D0F908B900BF26
:100F2000FEE704EB8400810005F10800405840F022
:100F3000010104EB8400820005F10800815070BDBE
:100F400070B505460C462146284600F0B7F908B9A9
:100F500000BFFEE704EB8400810005F10800405863
:100F600020F0200104EB8400820005F1080081508C
:100F700070BD70B505460C462146284600F09EF926
:100F800008B900BFFEE704EB8400810005F108000A
:100F9000405840F0200104EB8400820005F1080075
:100FA000815070BD00B587B00021134800F02AF8C9
:100FB0001248009000208DF818001148029001207E
:100FC0008DF81900000201908000039000208DF838
:100FD0001A0008200490800205906A460021064805
:100FE00000F048F800210448FFF7C3FF0021024841
:100FF000FFF78DFF07B000BD000002404C24014008
:10100000E825002070B504460D462946204600F02C
:1010100055F908B900BFFEE705EB8500810004F132
:101020000800405820F0010105EB8500820004F122
:1010300008008150002105EB8500820004F10800C2
:10104000815005EB8500820004F10C00815005EB16
:101050008500820004F11000815005EB85008200BC
:1010600004F1140081506068AA000F2191400843E8
:10107000606070BD2DE9F04104460D4616462946D4
:10108000204600F01BF908B900BFFEE705EB85001C
:10109000820004F110003168815005EB8500820068
:1010A00004F11400B1688150308A81B205EB8500EB
:1010B000820004F10C00815005EB8500810004F1F1
:1010C0000800475827F47C57F16870680843716935
:1010D0000843074305EB8500810004F108004750F1
:1010E000307E01280ED105EB8500810004F1080057
:1010F000405840F0400105EB8500820004F10800F3
:1011000081500DE005EB8500810004F10800405896
:1011100020F0400105EB8500820004F108008150B9
:10112000707E01280ED105EB8500810004F10800D6
:10113000405840F0800105EB8500820004F1080072
:1011400081500DE005EB8500810004F10800405856
:1011500020F0800105EB8500820004F10800815039
:10116000B07E70B905EB8500810004F1080040589D
:1011700020F0100105EB8500820004F10800815089
:101180000DE005EB8500810004F10800405840F0B7
:10119000100105EB8500820004F108008150BDE8D4
:1011A000F08170B504460D4616462946204600F0EB
:1011B00085F808B900BFFEE705EB8500810004F162
:1011C00008004058304305EB85018A0004F108010E
:1011D000885070BD10B543688C0002FA04F42343B4
:1011E000436010BD70B5034600BF00BF022A04D0A3
:1011F000042A11D0082A2DD11DE018688E0002FAA9
:1012000006F600EA060501EB8100860003F10800FE
:10121000805900F002041FE018688E0002FA06F6FA
:1012200000EA060501EB8100860003F10800805901
:1012300000F0040410E018688E0002FA06F600EAD6
:10124000060501EB8100860003F10800805900F0DB
:10125000080401E000BFFEE700BF15B10CB101209A
:1012600070BD0020FCE770B506460C4615462146C9
:10127000304600F023F808B900BFFEE704EB840015
:10128000810006F11400455070BD70B505460C464E
:101290002146284600F012F808B900BFFEE704EB2B
:1012A0008400810005F10800405820F4804104EBDF
:1012B0008400820005F10800815070BD02460120C3
:1012C000034B9A4202D1042900DD00207047000040
:1012D0000004024070B504460D4600BF0E48007879
:1012E0000028FBD000200C49087003210B48FFF7B1
:1012F000F5FD224603210948FFF7B5FF2A460321E1
:10130000064800F01DF803210448FFF700FE802185
:10131000034800F0A1FD70BD7C00002000000240E9
:101320000038014008B900BFFEE7002101604160BC
:1013300001768160C16041760161817641617047CB
:1013400070B506460C46154621463046FFF7B6FFF7
:1013500008B900BFFEE7A9B204EB8400820006F1E1
:101360000C00815070BD70B505460C4621462846DC
:10137000FFF7A4FF08B900BFFEE704EB840081007B
:1013800005F10C00405870BD70B5054600241E489C
:10139000854200D100E002241C4931F8140000F01D
:1013A00025FB1B4931F8140000F020FB194951F8C6
:1013B0002430194951F824000322182100F068F85C
:1013C000164951F82430144951F82400032204210D
:1013D00000F05EF8284600F0EFFC4FF4E1212846CB
:1013E00000F0A2FC0021284600F06CFD08212846F0
:1013F00000F070FD284600F037FD4FF4417128469B
:1014000000F037FD70BD0000003801408C00002066
:101410007E00002080000020880000208400002042
:10142000416170470161704710B50123042200211A
:10143000164800F02DF8022304220021134800F082
:1014400027F804231A460021104800F021F8082349
:10145000042200210D4800F01BF810230422002173
:101460000A4800F015F8202304220021074800F064
:101470000FF8402304220021044800F009F88023DB
:1014800004220021014800F003F810BD00080140CB
:10149000F0B5044616460025002201F00F0501F0C4
:1014A000100747B1042E05D145F00305E76B1F4334
:1014B000E76300E0354300201EE0012787401F401E
:1014C000C7B122684FEA800C0F2707FA0CF7BA431E
:1014D000870005FA07F73A43282904D101278740F6
:1014E0001F40676105E0482903D1012787401F405D
:1014F00027612260471CB8B20828DED3082022E00A
:10150000012787401F40E7B16268A0F108074FEA52
:10151000870C0F2707FA0CF7BA43A0F10807BF00A2
:1015200005FA07F73A43282904D1012787401F40CD
:10153000676105E0482903D1012787401F402761E3
:101540006260471CB8B21028DAD3F0BD0146C86803
:1015500080B27047F0B50A46002300240021002520
:1015600000F00046B6F1004F02D11D4EF16901E0D6
:101570001B4E7168C0F3034583B200F44016B6F504
:10158000401F08D121F0E061154E766826F0E06634
:10159000134F7E6012E000F48016B6F5801F06D16E
:1015A000032606FA05F4A14341F0E06106E0460D8A
:1015B000360103FA06F6B14341F0E06122B1460D6F
:1015C000360103FA06F6314300F00046B6F1004F4B
:1015D00002D1034EF16101E0014E7160F0BD0000E7
:1015E00000000140C16070470025002400F038FB76
:1015F000FFF7B9F9FEF7CAFE4FF4FA60FFF7D2FB26
:1016000000221146314800F06FFA00F075FB5CE0F3
:101610002F480068401C2E490860084600684FF4B7
:10162000FA71B0FBF1F201FB120068B985F0010517
:101630002DB14FF400412748FFF7F4FE04E04FF4CA
:1016400000412448FFF7ECFE00BF002221461F485E
:10165000FFF736FA601CC4B2202C00D1002400220F
:1016600021461A4800F040FA194800683221B0FBC0
:10167000F1F201FB120028BB45F6A52016490880AF
:10168000012088704FF4F570A1F803000120487123
:101690000E48FEF7EEFF0D4800F024FC4FF4F27206
:1016A0000E490D48801DFEF771FD4FF4F5710A4893
:1016B000FEF7BAFD0849A1F8EA014FF4F6710648B1
:1016C000FFF708FE0120FFF76DFBA1E78002002075
:1016D000040000200008014094000020001B0020AE
:1016E00010B5002211460E2000F00CF80122002156
:1016F0000F2000F007F801221146252000F002F823
:1017000010BD00002DE9F04103460D4616460024A9
:101710000027A0462448006800F4E060B0F5A06F00
:1017200015D006DCB0F5407F18D0B0F5806F19D128
:1017300010E0B0F5C06F06D0B0F5E06F12D1002711
:101740004FF0040815E001274FF0030811E00227CD
:10175000B8460EE003274FF001080AE004274FF0D7
:10176000000806E04FF4A06000F022F80227B84617
:1017700000BF00BFC7F1040005FA00F4C8F104017E
:101780000F20C8403040044324010848C45403F0EB
:101790001F01012088405911890001F1E021C1F8A1
:1017A0000001BDE8F08100000CED00E000E400E085
:1017B00002490143024A1160704700000000FA0527
:1017C0000CED00E0024A0A400243024B1A607047E7
:1017D00080FFFF1F08ED00E0184B5968184B1940B7
:1017E000164BDA6A22F000520C2820D2DFE800F013
:1017F000060708091F0C1F0D1516171800BF00BF9C
:1018000000BF41EA803113E000BF20F004004FF038
:10181000805343EA803319430AE000BF00BF00BF92
:1018200020F00C0041EA803142F0005200E000BF9D
:1018300000BF024B5960DA6270470000001002409E
:10184000FF3FFFEF2DE9F14F8EB000200C9055A027
:1018500090E8004CC068CDE905BECDF810A0079017
:1018600051A0D0F804A00068CDE9020A0FF2381A9E
:10187000DAE9000ACDE9000A4E484068C0F3810069
:101880000D900D9820B1012804D0022856D103E014
:10189000494A55E0494A53E04648406800F48039D7
:1018A000B9F5803F2FD14348C06A00F080400B90CB
:1018B0000B9808B9414900E041493E48C06A00F42C
:1018C00080300A900A98B0F5803F12D13948C06A3A
:1018D000C0F30310401C08903648C06AC0F30320D0
:1018E000871C112F00D114270898B1FBF0F000FBE2
:1018F00007F13048C06A00F00F00401C09900998B9
:10190000B1FBF0F100E02F492A484068C0F383435F
:101910002848406800F0005008B143F010030F2B36
:1019200001D29B1C00E05B1C01FB03F20F2B04D1D6
:1019300001EB4100400000EB510201E01E4A00BFF4
:1019400000BF1C484068C0F3031504A8465D22FA96
:1019500006F418484068C0F3022502A8465D24FA40
:1019600006FC14484068C0F3C2251DF8056024FA3F
:1019700006F80E9830B1012806D0022806D00328B8
:101980000AD106E00C9208E00C9406E0CDF830C0D5
:1019900003E0CDF8308000E000BF00BF0C980FB02E
:1019A000BDE8F08F00000000000000000102030409
:1019B000060708090010024000127A0040787D01F5
:1019C000006CDC0200093D0010B540F2026000F03E
:1019D0000DF840F2096000F009F84FF4A06000F043
:1019E00005F80120FFF7F8FE10BD0000064A02EBE3
:1019F0009011096800F01F0301229A401143024B25
:101A000003EB90121160704700100240064A02EB8F
:101A10009011096800F01F0301229A409143024B84
:101A200003EB90121160704700100240064A02EB6F
:101A30009011096800F01F0301229A401143024BE4
:101A400003EB90121160704700100240DFED0F0AA7
:101A5000B0EE600A002016E0DFED0C0AB0EE600A7E
:101A600000210DE00A4A02EB011232F8102000EECC
:101A7000902AF8EE600A70EE800AB0EE600A491C07
:101A80000129EFDB401C0828E6DB7047000000005E
:101A9000E82500200146002000BF01E0421C90B272
:101AA0000828FBDB7047000070B5044600260025BF
:101AB0000C48FFF74BFD06464EF2FF60064004F06F
:101AC000010045EA001504F0020045EA8005C4F370
:101AD0008000054346EA052631460248FFF782FDAD
:101AE00070BD0000000801402DE9F04107460C469A
:101AF0001646012516B1012E26D11AE01448045DC0
:101B00000F2C0CDDA4F11000C4B2A5400021114837
:101B1000FFF768FDA9B21048FFF764FD08E0A54093
:101B200000210D48FFF75EFDA9B20A48FFF75AFDF4
:101B30000BE04FF6FF710748FFF754FD4FF6FF71BA
:101B40000548FFF74FFD00E000BF00BFBDE8F08192
:101B50003C000020000C014000100140002000214A
:101B6000374A126842F48032354B1A6000BF401C7D
:101B7000334A126802F4003119B94FF6FF729042ED
:101B8000F5D12F4A126802F400320AB900BFFEE70D
:101B90002C4A126822F00702D21C2A4B1A60284AEB
:101BA0005268274B5A601A4652685A601A46526861
:101BB00042F480625A601A465268234B1A40204B06
:101BC0005A601A465268214B1A431D4B5A601A46F6
:101BD000D26A1F4B1A401A4BDA621A46D26A1D4B60
:101BE0001A43174BDA621A46126842F080621A6092
:101BF00000BF134A126802F00062002AF9D0104AAE
:101C0000126842F080720E4B1A6000BF0C4A1268D4
:101C100002F00072002AF9D0094A526822F0030249
:101C2000074B5A601A46526842F002025A6000BFDF
:101C3000034A526802F00802002AF9D070470000F7
:101C40000010024000200240FFFFC3DF00003520EB
:101C500000F0FEBF4906010010B5FFF77FFF10BD81
:101C600010B5124800684FF47A71B0FBF1F4601EB1
:101C7000B0F1807F01D301200FE0601E4FF0E02122
:101C800048610F214FF0FF30FEF7E6FB00204FF0D8
:101C9000E021886107200861002008B100BFFEE74D
:101CA0000021481EFEF7D8FB10BD000020000020D8
:101CB0000246002031B1012906D0022906D00329AD
:101CC00008D105E0506B06E0906B04E0D06B02E0B9
:101CD000106C00E000BF00BF7047CA43026170474C
:101CE0000246D06800EA01031069084010B10BB148
:101CF000012070470020FCE710B50848FFF744FBBF
:101D0000FFF7EEFC4FF4007205490648FEF799FA1A
:101D1000FFF75EF8FFF79AF810BD000000380140A9
:101D200008260020082A00202DE9F04704460D4629
:101D30000027B846B94600261D49601A8C421CD0BF
:101D400006DC1C48204470B1B0F5806F1FD10FE055
:101D5000B0F5806F16D0B0F56C4F18D10320FFF7A7
:101D600071FD074614E00220FFF76CFD07460FE007
:101D70000220FFF767FD07460AE00220FFF762FD39
:101D8000074605E00220FFF75DFD074600E000BFC3
:101D900000BF07EB5500B0FBF5F64FF6F07006EA12
:101DA000000806F00F0948EA0900A060BDE8F087C6
:101DB000004C004000BCFFBF10B504462049601A2B
:101DC0008C4228D006DC1F48204490B1B0F5806FCB
:101DD00033D117E0B0F5806F26D0B0F56C4F2CD121
:101DE00040F20E30FFF722FE40F20E30FFF70EFEFB
:101DF00024E040F21140FFF719FE40F21140FFF7D6
:101E000005FE1BE040F21240FFF710FE40F21240C8
:101E1000FFF7FCFD12E040F21340FFF707FE40F22F
:101E20001340FFF7F3FD09E040F21440FFF7FEFD19
:101E300040F21440FFF7EAFD00E000BF00BF10BD14
:101E4000004C004000BCFFBF0A460021416921F060
:101E500040011143416170470A460021416921F068
:101E60008001114341617047C16841F40051C16074
:101E7000704710B500EB9112126801F01F040123A6
:101E8000A3401A4300EB91131A6010BD70B50246CF
:101E900000230024C1F38910105801F01F0601250A
:101EA000B54000EA050302EB91500068C1F3044617
:101EB0000125B54000EA050414B10BB1012070BD45
:101EC0000020FCE70A460021C16821F0040111430B
:101ED000C16070470A460021C16821F00801114322
:101EE000C160704730B58BB004462C221D4968464E
:101EF000FEF74CF9002130E000202AE0162813DA22
:101F0000C1F11F0241F66433234403EB82123DF812
:101F10001030D35C01EB410202EBC10504F5C45261
:101F200002EB8502135412E0C1F11F0241F6643343
:101F3000234403EB821300F114029B5C01EB41028A
:101F400002EBC10504F5C45202EB85021354421C96
:101F5000D0B22C28D2DB481CC1B20B29CCDB0BB091
:101F600030BD0000282000080C101418203040005C
:101F70000000000000000000010000000000000060
:101F8000020000000000000003000000000000004C
:101F90000300000001000000040000000100000038
:101FA0000500000001000000060000000100000024
:101FB0000600000002000000070000000200000010
:101FC00008000000020000000900000002000000FC
:101FD00009000000030000000A00000003000000E8
:101FE0000B000000030000000C00000003000000D4
:101FF0000D000000030000000D00000004000000C0
:102000000E000000040000000F00000004000000AB
:102010000F000000050000000F0000000600000097
:102020000F0000000700000015001400130012004C
:10203000110010000F000E000D000C000B000A0034
:102040000900080007000600050004000300020064
:10205000010000007420000800000020940000002F
:10206000540600080821000894000020842D000078
:1020700064060008010000000000000000000000ED
:102080000000000000000000000000000000000050
:1020900000000000000E27070300010206050407E8
:1020A00006050407000301020506070403000201F8
:1020B000131211101F1E1D14150001020A0B09082E
:1020C00007060504031C1B1A191817160F0E0D0C12
:1020D000131211101F1E1D14150001020A0B09080E
:1020E0000C0D0E0F161718191A1B1C0304050607F2
:1020F00001000E060002000000040000000801407C
:082100000206000000000000CF
:04000005080001519D
:00000001FF
