:101B4F00120B33F59D900001120B4CFFE5BC549F17
:101B5F004FF5BC900002120B4CB4010543BC8080C2
:101B6F000353BC7F900003120B4CB4010543972025
:101B7F0080035397DF900005120B4CB40104D2ADD4
:101B8F008002C2AD900004120B4CB40103D2BD22EF
:031B9F00C2BD22A2
:0C1D7300EFB4010443BC802253BC7F226B
:10196400EFD3940740028061E4F5BDF5BEE5BC54B5
:10197400E044084FF5BC0000000000000000000037
:1019840000000000000000000000E4FBE5BC30E4BF
:101994003353BCEFE59730E509E5BD5403ADBEFC18
:1019A400801DAFBD7C00AD077E00ED7802C333CE51
:1019B40033CED8F9FFE5BE5403FDEEFCEF4DFDAF89
:0D19C40005AE04220BEBB4FAC37E047F00D5
:0119D10022F3
:03002B00020026AA
:0400260053BCEF32A6
:101D49007D847C0AED1D70011C144C70F7EF1F7027
:061D5900011E144E70EAA9
:011D5F002261
:10002E0000030002000200030003000300030003AC
:10003E00000200030003000200020003000300039D
:10004E000003000200020002000200020002000390
:10005E00000200020002000300030004000200037D
:10006E00000300030003000200020003000300036C
:10007E00000300030002000300020002000300025E
:10008E0000030003000200020001000000000199BD
:10009E0001F302350264029A029F01D40198019F76
:1000AE00017C0136016E019A0194014800C1006085
:1000BE000055013F022D023801E002020263029355
:1000CE0002CC02B8025A01B50028000E000B00093E
:1000DE0000090005000600050005000400040003E9
:1000EE0000040003000200020003000400040001EB
:1000FE0000030003000200030003000300020003DC
:10010E0000030004007B01B6026C025C0277028DD4
:10011E0001C701A60179015D01290117016A01706C
:10012E0001670101006D0042009F01B202600223CF
:10013E0001B4023D026F02B602DE02BB0225014788
:10014E000012000D000E000B00080008000700064C
:10015E00000600060006000400040003000400046C
:10016E000003000400040003000400040003000365
:10017E000003000300030000000500C10207022C6B
:10018E0002660278029A020C018F0159014101198F
:10019E00010B015F0160018B0141009B004B007858
:1001AE00016C022F024001D001FC0270028B02CEC4
:1001BE0002C6026701D80043000E000B000A0009B8
:1001CE0000070006000600040005000400040005F8
:1001DE0000040003000400050004000400040002F3
:1001EE0000040003000200030003000400040005E5
:1001FE000004011302520255027D029B0286018108
:10020E0001A70166014A011B016A016F017A016DA6
:10021E00012200CC006E00B40132022902520220EB
:10022E0001F70274027C02BF02E902BA022D012319
:10023E000012000E000A000B000900090008000859
:10024E000006000700040004000500040005000479
:10025E00000400050005000500040005000500056A
:10026E0000050005000600010005014E019902344B
:10027E0002390260027D01B2017E017B017601200E
:10028E00016B018D0191017601060078005400A8E2
:10029E00019B0253023701AC021B023B027802C4DF
:1002AE0002C2025D01D800140010000D000A000900
:1002BE000007000B000800080008000600080003F5
:1002CE0000070006000400040004000400040004FB
:1002DE0000030003000400040005000200020005F4
:1002EE0000050004025D018C011401CA00CA007DE4
:1002FE00009A00EE0078009E0078006600480055D7
:10030E000065006F005500600047001900060002EE
:10031E0000070038009800E300E3006800C70109F9
:10032E00015801B2021E02420257025B0061000632
:10033E0000030002000100000001000100000002A5
:10034E00000000000000000100000000000100019C
:10035E000001000200000002000000000000000189
:10036E00000000010000000100010002012D0162E9
:10037E0001DE00C100890069007A00FA00E600740F
:10038E0000590078007B008C005000340034001BB4
:10039E0000040002000E003100AC00ED011600EF6B
:1003AE000142017401AD01E4024E027F0276022683
:1003BE00000E000300020002000100000000000118
:1003CE00000000000001000100010001000000011A
:1003DE00000100000001000000000001000000010B
:1003EE0000010001000000000000000100000000FC
:1003FE00017E01230081004F003A004900920084E3
:10040E0000320038003B0050005A004F002C001FF5
:10041E00000C0004000200020001003F00AD0118B4
:10042E00011700B901120145017701CC0222025BCE
:10043E0002770244000D00040002000100020000D9
:10044E00000000010000000000000000000000009D
:10045E00000000000000000000000000000000008E
:10046E00000000000000000000000000000000007E
:10047E000000000000000000008F01E900F0007B8A
:10048E0000610068008F0081009B003B004B004A1A
:10049E000053005E00400030001F0010000A0014E0
:1004AE00001D004700A9011300CF00A60119013F4E
:1004BE00017801BE0239027A027B00CF00040003EC
:1004CE000001000100020000000100000000000019
:1004DE00000000000000000000000000000000000E
:1004EE0000010001000000000000000100000001FA
:1004FE00000000000000000000000133016D00A2AA
:10050E0000A200B700D700D800820063003F00446D
:10051E0000490068007B004300450026000C0003E4
:10052E0000050004002B0098010C0113005200C0BE
:10053E0001120145019B021402500271019800063E
:10054E000002000200000000000000010002000195
:10055E00000000000000000000000000000000008D
:10056E000000000000000000000300000000000179
:10057E000002000000010000000100010001000166
:10058E000188023601F902680269026E027001A743
:10059E0001DB01B40199019C019D01AA01AE01B2DA
:1005AE0001B401700139010F00D40150017E01AF79
:1005BE00021B02330262020902490270029202D049
:1005CE0002E802D3028A0228015F000E000C000925
:1005DE0000070007000500040005000500030003E6
:1005EE0000050004000300040003000400030003E0
:1005FE0000020003000200030002000300020001DB
:10060E000001000200020003000300030002018D3E
:10061E0001DB027A0283028302740250019901D631
:10062E0001AB01920184017001A601AB01A401ABE3
:10063E000191015D010300BA0119016C01E702315C
:10064E0002540203020C025D026202B102E202D106
:10065E00028A022001570011000B000A0007000752
:10066E00000700070006000600050005000500044F
:10067E000003000400030004000300030003000352
:10068E00000400040004000300040003000300043F
:10069E00000400050005000400020002002C0215F3
:1006AE0001E20268025E0280028401F701CC01A021
:1006BE000192017D017201B001B701B7019D0131B7
:1006CE0000A700A0011201DB0265025A02040241DA
:1006DE00027B028602D202D902AE024D01910012B5
:1006EE00000E0009000800080006000600060006BD
:1006FE0000070005000600050005000400050004C3
:10070E0000040004000300040004000300040003BE
:10071E0000030002000400030000000000000000BF
:10072E0000000000000000000000000000000000BB
:10073E0000000000000000000000000000000000AB
:10074E00000000000000000000000000000000009B
:10075E00000000000000000000000000000000008B
:10076E00000000000000000000000000000000007B
:02077E00000079
:10187E00440080000000004400840000000044008A
:10188E007C000000004800880507060403000102E2
:101CD7009000557402F0A37440F0A37401F0E4A3DC
:101CE700F0A3F0A3F07B017A007955121B4F7F0117
:031CF700021D7358
:101AA40090009D7401F090009CF0FB7A00799CFFFB
:101AB40012118590009D743CF090009C7403F07B9F
:101AC400017A00799C7F0112118590009D740CF0BD
:101AD40090009C7402F07B017A00799C7F031211C0
:101AE4008590009D74C0F090009C7403F07B017A93
:071AF40000799CFF0211853F
:101CA7009000557440F0A37402F0A3120DCB00010D
:101CB700C20090005C7401F0E4A3F0A304F0E4A375
:101CC700F0A3F0A3F07B017A0079557F010213D9C5
:0E1BA200900076EBF0A3EAF0A3E9F0A3EDF0DB
:101BB000E4A3F0A3F0FFFE900079E0FDC3EF9DEEFB
:101BC00094005027900076E0FBA3E0FAA3E0F98FA1
:101BD000828E83120B4CFD90007BE02DF090007AFA
:101BE000E03400F00FBF00010E80CC90007AE0FEE0
:031BF000A3E0FF70
:011BF30022CF
:081AFB007B017D327C007F02BB
:101B0300900055EFF0A3ECF0A3EDF0A3EBF0900001
:101B130055E0FF14F0EF6033900058E014601404B4
:101B23007020C2B3900056E0FEA3E0FF121D49D21D
:101B3300B3800FC2B2900056E0FEA3E0FF121D492E
:0C1B4300D2B27F647E00121D4980C322D4
:101BF400900061EDF090005EEBF0A3EAF0A3E9F051
:101C0400120BE0FFAEF0900061E014F06021900050
:101C14005EE0FBA3E0FAA3E0F9A3E075F002A4F50B
:0F1C24008285F083120C0B2FFFE5F03EFE80D778
:011C3300228E
:101A3F00900097EBF0A3EAF0A3E9F0A3ECF0A3ED8D
:101A4F00F0E41209837B9A7A997999783F12087892
:101A5F001209BC900097E0FBA3E0FAA3E0F9900015
:101A6F0004EE8FF0120C6290009AE0FCA3E0FDE40C
:101A7F001209837BCD7ACC794C783F120878120902
:101A8F00BC900097E0FBA3E0FAA3E0F9900006EE0C
:051A9F008FF0020C6253
:1017650090005EEBF0A3EAF0A3E9F0A3ECF0A3EDA3
:10177500F0900061E0FCA3E0FDE4120983E4FBFACC
:1017850079C0783F1208781209BC90005EE0FBA38F
:10179500E0FAA3E0F9900008EE8FF0120C629000D9
:1017A50061E0FCA3E0FDE41209837B9A7A9979193B
:1017B500783F1208781209BC90005EE0FBA3E0FABE
:1017C500A3E0F990000AEE8FF0120C629000081267
:1017D5000C0BFFAEF07C007D0A120B8B90005EE0D7
:0D17E500FBA3E0FAA3E0F9EE8FF0020C4345
:1015B700900055EBF0A3EAF0A3E9F0A3ECF0A3ED5C
:1015C700F0900058E0FCA3E0FDE41209837BCD7A9C
:1015D700CC794C78431207871209BC900055E0FB81
:1015E700A3E0FAA3E0F9900002EE8FF0120C6290EC
:1015F7000058E0FCA3E0FDE41209837BCD7ACC79A7
:101607004C78421207871209BC900055E0FBA3E013
:10161700FAA3E0F9EE8FF0120C43900055E0FBA31C
:10162700E0FAA3E0F9120BE0FFAEF07C007D0A12AE
:101637000B79AC06AD07E41209837B9A7A997999FD
:10164700783F1208781209BC900055E0FBA3E0FA36
:10165700A3E0F9900008EE8FF0120C62120BE0FF86
:10166700AEF07C007D0A120B79AC06AD07E41209D7
:10167700837BCD7ACC794C783F1208781209BC90DD
:101687000055E0FBA3E0FAA3E0F990000AEE8FF023
:03169700020C62E0
:0B18F500900055EBF0A3EAF0A3E9F02F
:10190000A3E0FBA3E0FAA3E0F9A3E0FD121BF4E4DB
:1019100090005DF090005CE0147043900055E0FB97
:10192000A3E0FAA3E0F9900008120C0BFDC3EF9DB1
:10193000EE95F0500890005D7401F08005E4900091
:101940005DF090000A120C0BFDC3EF9DEE95F05078
:101950000DAD07AC0612176590005D7402F09000A3
:031960005DE0FF48
:011963002261
:100E3200900000120DCB00000000900004120DCBB8
:100E42000000000078087C007D017BFF7A0779268C
:100E52007E007F10120B0DE4FE78187C007D017B72
:100E6200FF7A0779367F10120B0D78287C007D01FE
:100E72007BFF7A0779467E007F04120B0D782C7C6B
:100E8200007D017BFF7A07794A7E007F04120B0DF9
:100E920078307C007D017BFF7A07794E7E007F04EB
:100EA200120B0D78347C007D017BFF7A0779527E2C
:100EB200007F14120B0DE4900048F0A3F0A3F0A3FE
:100EC200F0A3F0A3F0A3F0A3F0A3F0A3F0A3F0A388
:100ED200F0A3F0121CD7121CA7D2AFD2B37F2C7E84
:100EE20001121D497D027F01121C727B017A007979
:100EF20018AD07AC061215B77B017D1E7C007F037F
:100F0200121B03900080E0FCA3E0FDA3E0FEA3E03F
:100F12002401FFE43EFEE43DFDE43CFC900080122F
:100F22000DBFE47B01FAF9F8900080E0FCA3E0FD3C
:100F3200A3E0FEA3E0FF120CCBAC00AD01AE02AF0A
:100F420003E4FBFAF9F8C3120D6B7004B2B3D2B228
:100F5200E47B01FAF9F8900080E0FCA3E0FDA3E055
:100F6200FEA3E0FF120CCBAC00AD01AE02AF03E476
:100F7200FBFAF9F8C3120D6B600302117B7D027F4D
:100F820001121C72900008EEF0A3EFF0E0240FF0C3
:100F9200900008E03400F0E0FEA3E0FF900050E093
:100FA200FD04F0ED25E02430F582E43400F583EE13
:100FB200F0A3EFF0900050E0C394024002E4F090FE
:100FC2000051E0FD04F0ED25E02434F582E4340024
:100FD200F583EEF0A3EFF0900051E0C3940A4002D3
:100FE200E4F0900053E04401F0E4900052F09000ED
:100FF20052E0FFC394025031EF25E02430F582E441
:101002003400F583E0FEA3E0FF90001AE0FCA3E0C9
:10101200FDC3EF9DEE9C5009900053E054FEF0801A
:1010220008900052E004F080C5900053E030E003E5
:101032004404F0900053E04402F0E4900052F09037
:101042000052E0FFC3940A5031EF25E02434F582C8
:10105200E43400F583E0FEA3E0FF900018E0FCA377
:10106200E0FDD3EF9DEE9C4009900053E054FDF06B
:101072008008900052E004F080C5900053E05406CE
:10108200FFBF06137B017A0079347D0A121BF490AC
:101092000010EEF0A3EFF0900018E0FFA3E0900044
:1010A2000ACFF0A3EFF0900022E0FFA3E090000C43
:1010B200CFF0A3EFF0900020E0FFA3E090000ECF6E
:1010C200F0A3EFF0900053E05406640660030211AF
:1010D2005D7B0190005804F0A37400F0A37434F017
:1010E200A3740AF0A37401F07A0079181218F5902B
:1010F2000054EFF024FE600504703C8037E47F0169
:10110200FEFDFC900004E0F8A3E0F9A3E0FAA3E0FE
:10111200FBC3120D6B5003121AFBE47F02FEFDFCAF
:10112200900004E0F8A3E0F9A3E0FAA3E0FBD312F5
:101132000D6B4003121AFBE4900053F0900004E0A0
:10114200FCA3E0FDA3E0FEA3E02401FFE43EFEE4F5
:101152003DFDE43CFC900004120DBF900054E0FF02
:10116200900012E4F0A3EFF07B017A00790890007E
:10117200597408F07F0112169A7F647E00121D498D
:03118200020F0554
:051C7200900055EDF0AB
:101C7700E4FDFC121D15900055E0FF121D2F7F0596
:101C87007E00121D497F01121964AC06AD07C3ED32
:0F1C9700940AEC94005004E4FEFF22AE04AF0563
:011CA600221B
:101D15001F74882FF582E43400F583E0FE1392B733
:0A1D2500EEA2E192B6A2E292922231
:101D2F001F74882FF582E43400F583E0FE1392953B
:0A1D3F00EEA2E19294A2E292932238
:0E169A00900055EFF0A3EBF0A3EAF0A3E9F007
:1016A800785A7C007D017BFF7A0779667E007F1A75
:1016B800120B0DE4900074F0A3F0FD900055E0FFCC
:1016C80090005A74A5F0A3745AF0A37455F0A3744B
:1016D800AAF0A3EFF0A37418F0E4A3F0A304F09029
:1016E8000059E0FFEDC39F5048900056E0FBA3E08F
:1016F800FAA3E0F975F002EDA4F58285F083120CE7
:101708000BFFED25E02462F582E43400F583EFF069
:1017180075F002EDA4F58285F083120C0BE5F0FF5D
:10172800ED25E02463F582E43400F583EFF00D80C5
:10173800AE7B017A00795A7D18121BA2900074EED4
:10174800F0A3EFF0900074E0FCA3E0900072F0ECDE
:0D175800A3F07B017A00795A7D1A021C343F
:10189E0020283000000000000000000000000000C2
:1018AE00000000000000000000000000000000002A
:1018BE0000000000000000000000002028080000CA
:1018CE00000000000000000000000000000000000A
:1018DE0000000000000000000000000000000000FA
:0618EE00000000000000F4
:0B13D900900062EBF0A3EAF0A3E9F043
:1013E400EF640160030215B490009004F0E4A3F0EC
:1013F400A3F0A3F0A3F0A3F0A3F07F287830E4F6E1
:1014040008DFFC7F287808E4F608DFFC900062E03F
:10141400FBA3E0FAA3E0F9120B33D394C040037F9B
:10142400012290000A120B4CB40104D2BC8002C207
:10143400BC120B33FFE598543F4FF598EF64C0603E
:1014440008EF6440600302152E900002120D8F7F96
:10145400B07E837D857C00120CCB900065120DBF9D
:10146400E4FFFE7D01FC900065E0F8A3E0F9A3E051
:10147400FAA3E0FBC3120D6B40037F0222900065C8
:10148400E0F8A3E0F9A3E0FAA3E0FBC3E49BFFE4E4
:101494009AFE740199FDE498FC900065120DBF90CA
:1014A4000062E0FBA3E0FAA3E0F9900001120B4C08
:1014B400FB64017038C28E538EFE5389BF5389CFAB
:1014C400438E40900065E0FCA3E0FDA3E0FEA3E0B2
:1014D400FF7808120D7C8F8D900065A3A3A3E0F51F
:1014E4008BC2AB5389BF538FFDD28E8076EB6402DF
:1014F4007035538EEF438E01538EF7438E04900064
:1015040065E0FCA3E0FDA3E0FEA3E0FF7808120D74
:101514007C8FD6900065A3A3A3E0F5D753AFFB530C
:101524008EF7438E10803C7F0222900062E0FBA382
:10153400E0FAA3E0F9120B33FF7013900008120BCA
:101544004CB40105438E20801A538EDF8015EFB40E
:101554008011900008120B4CB4010543878080036E
:1015640053877F900062E0FBA3E0FAA3E0F99000C8
:1015740009120B4CB40104D2AC8002C2AC90000737
:10158400120B4CB40104D29C8002C29C90000B123A
:101594000B4C54C0FFE5A2543F4FF5A290000C122F
:1015A4000B4CB4010543971080035397EF7F00223F
:0215B4007F03B3
:0115B6002212
:10000300900092E02430F8A607E004F0C39428405F
:0E00130002E4F0900093E0700404F0D2992211
:101D6000120B33FF600C120003740129F9E43AFAF4
:031D700080EE22E0
:0E1C3400900076EBF0A3EAF0A3E9F0A3EDF048
:101C4200E4FDFC900079E0FFC3ED9F7480F86C988E
:101C5200501D900076E0FBA3E0FAA3E0F98D828CA0
:0F1C620083120B4CFF1200030DBD00010C80D448
:011C71002250
:030023000219D2ED
:1019D200C0E0C083C082C0D075D000C000C006C0C5
:1019E20007309820C298900096E07018900094E01A
:1019F200C394284002E4F0900094E0FF04F07408DD
:101A02002FF8A699309927C299900092E0FF900092
:101A120091E0FE6F601374302EF8E6F599E004F061
:101A2200C394284009E4F08005900093E4F0D007C5
:0D1A3200D006D000D0D0D082D083D0E032DA
:101CFA00C292EF139293EF5402C31324FF9294EF0C
:0B1D0A0054041313543F24FF92952251
:10118500EFD3940740037FFF22120B33FED3940362
:1011950040037FFF22EF7041EE700B900001120BB0
:1011A5004CF452935294120B33B4010B900001127C
:1011B5000B4C4293F45294120B33FEB4020A900086
:1011C50001120B4C42934294EEB4030D90000112B0
:1011D5000B4CFEF45293EE4294EF64017043120BF4
:1011E50033FE700B900001120B4CF452915292EEAB
:1011F500B4010B900001120B4C4291F45292120B68
:1012050033B4020A900001120B4C42914292120B28
:1012150033B4030D900001120B4CFEF45291EE42D3
:1012250092EF64027043120B33FE700B90000112B3
:101235000B4CF452955296EEB4010B900001120B33
:101245004C4295F45296120B33B4020A90000112E7
:101255000B4C42954296120B33B4030D90000112CC
:101265000B4CFEF45295EE4296EF64037043120B5D
:1012750033FE700B900001120B4CF452B152B2EEDA
:10128500B4010B900001120B4C42B1F452B2120B97
:1012950033B4020A900001120B4C42B142B2120B58
:1012A50033B4030D900001120B4CFEF452B1EE4223
:1012B500B2EF64047043120B33FE700B9000011201
:1012C5000B4CF452B352B4EEB4010B900001120B67
:1012D5004C42B3F452B4120B33B4020A900001121B
:1012E5000B4C42B342B4120B33B4030D9000011200
:1012F5000B4CFEF452B3EE42B4EF64057043120B8F
:1013050033FE700B900001120B4CF452C952CAEE19
:10131500B4010B900001120B4C42C9F452CA120BD6
:1013250033B4020A900001120B4C42C942CA120B97
:1013350033B4030D900001120B4CFEF452C9EE427A
:10134500CAEF64067043120B33FE700B9000011256
:101355000B4CF452CB52CCEEB4010B900001120BA6
:101365004C42CBF452CC120B33B4020A900001125A
:101375000B4C42CB42CC120B33B4030D900001123F
:101385000B4CFEF452CBEE42CCEF64077043120BCC
:1013950033FF700B900001120B4CF452E152E2EF57
:1013A500B4010B900001120B4C42E1F452E2120B16
:1013B50033B4020A900001120B4C42E142E2120BD7
:1013C50033B4030D900001120B4CFFF452E1EF42D0
:0413D500E27F002291
:10078000020A28E86480F8E933E83360110460F075
:10079000ED33EC337009E8FCE9FDEAFEEBFF2204DF
:1007A00060DED3EB9FEA9EE99DE8C2E78CF0C2F7DA
:1007B00095F0400CE8CCF8E9CDF9EACEFAEBCFFBA6
:1007C0001209F385D0F05804700320D5B3E8047003
:1007D000075002B2D5020A3292D5EC0460F7E4CC9D
:1007E000C0E0C398F8603B94186008400DD0E0FB6F
:1007F000020A0AE4FBFAC9FC8028E830E406E4C9EE
:10080000FBE4CAFCE830E305E4C9CACBFCE85407C2
:100810006010F8C3E913F9EA13FAEB13FBEC13FCCD
:10082000D8F130F52FC3E49CFCEF9BFFEE9AFEED70
:1008300099FDD0E0FBEF4E4D4C701222DB03020A13
:100840002FEC2CFCEF33FFEE33FEED33FDED30E704
:10085000EB020A0AEF2BFFEE3AFEED39FDD0E0FB8A
:1008600050130BBB0003020A32ED13FDEE13FEEF33
:0808700013FFEC13FC020A0A5D
:10087800EC4D6011E8497017ED33EC3304600DE47A
:10088800FCFFFEFD22E933E8330470F8020A28125F
:1008980009F358046009E4CC248150062850090261
:1008A8000A32284003020A2FC0E0EB4A7044B9809C
:1008B80006D0E0FB020A1EEF4E701CBD8008EBFF5D
:1008C800EAFEE9FD80EBE98DF0A4FEE5F00209619E
:1008D800E9CDF9EAFEEBFFEF89F0A4FCE5F0CE895B
:1008E800F0A42EFFE435F0CD89F0A42DFEE435F018
:1008F8008067EF4E7005BD80D780C3EF8BF0A4AC46
:10090800F0EE8BF0A42CFCE435F0F8EF8AF0A42C80
:10091800E5F038FCE433CB8DF0A42CFCE5F03BF893
:10092800EE8AF0A42CFCE5F038F8E433CF89F0A483
:100938002CFCE5F038CF3400CE89F0A42FFFE5F089
:100948003EFEE433C98DF0A42EFEE5F039CD8AF0E1
:10095800A42FFFE5F03EFEE43DFD33D0E0FB500759
:100968000BBB000F020A32EC2CFCEF33FFEE33FE18
:06097800ED33FD020A0A46
:10097E0075F020800E75F010800575F0087D007EF4
:10098E00007F003392D530D503120D5DEC3340104D
:10099E00EF33FFEE33FEED33FDEC33FCD5F0ED22FD
:0E09AE00E5F0247EA2D513CC92E7CDCEFF2239
:1009BC00EDD2E7CD33EC3392D524814006E4FFFE33
:1009CC00FDFC22FCE4CFCECDCC24E0501174FF8092
:1009DC00EDC3CC13CCCD13CDCE13CECF13CF04702F
:0709EC00F030D5DE020D5DC5
:1009F300E9D2E7C933E833F892D5EDD2E7CD33EC4A
:070A030033FC5002B2D522C2
:100A0A00EC30E7100FBF000C0EBE00080DBD00044D
:100A1A000BEB6014A2D5EB13FCED92E7FD2274FFF9
:100A2A00FCFDFEFF22E480F8A2D574FF13FC7D8052
:030A3A00E480EF66
:030000000217F2F2
:0C17F200787FE4F6D8FD758157021839A5
:100A3D00E709F608DFFA8046E709F208DFFA803E9B
:100A4D0088828C83E709F0A3DFFA8032E309F60888
:100A5D00DFFA8078E309F208DFFA807088828C83F0
:100A6D00E309F0A3DFFA806489828A83E0A3F608A4
:100A7D00DFFA805889828A83E0A3F208DFFA804C7E
:100A8D0080D280FA80C680D4806980F28033801055
:100A9D0080A680EA809A80A880DA80E280CA8033BE
:100AAD0089828A83ECFAE493A3C8C582C8CCC58336
:100ABD00CCF0A3C8C582C8CCC583CCDFE9DEE78006
:100ACD000D89828A83E493A3F608DFF9ECFAA9F085
:100ADD00EDFB2289828A83ECFAE0A3C8C582C8CCDB
:100AED00C583CCF0A3C8C582C8CCC583CCDFEADEF4
:100AFD00E880DB89828A83E493A3F208DFF980CC56
:100B0D0088F0EF60010E4E60C388F0ED2402B4044E
:100B1D000050B9F582EB2402B4040050AF232345F5
:060B2D008223900A8D7383
:100B3300BB010689828A83E0225002E722BBFE02C0
:090B4300E32289828A83E49322F3
:100B4C00BB010CE58229F582E5833AF583E022505E
:100B5C0006E92582F8E622BBFE06E92582F8E222A8
:0D0B6C00E58229F582E5833AF583E49322C2
:100B7900EF8DF0A4A8F0CF8CF0A428CE8DF0A42E90
:020B8900FE224A
:100B8B00BC000BBE0029EF8DF084FFADF022E4CC4E
:100B9B00F875F008EF2FFFEE33FEEC33FCEE9DEC17
:100BAB00984005FCEE9DFE0FD5F0E9E4CEFD22ED5D
:100BBB00F8F5F0EE8420D21CFEADF075F008EF2FA7
:100BCB00FFED33FD4007985006D5F0F222C398FD98
:050BDB000FD5F0EA2235
:100BE000BB010A89828A83E0F5F0A3E022500687E0
:100BF000F009E71922BBFE07E3F5F009E3192289A2
:0B0C0000828A83E493F5F074019322D4
:100C0B00BB0110E58229F582E5833AF583E0F5F027
:100C1B00A3E0225009E92582F886F008E622BBFE04
:100C2B000AE92582F8E2F5F008E222E5832AF5834A
:080C3B00E993F5F0A3E993220F
:100C4300BB010A89828A83F0E5F0A3F0225006F7FC
:0F0C530009A7F01922BBFE06F3E5F009F31922F9
:100C6200F8BB0111E58229F582E5833AF583E8F0C4
:100C7200E5F0A3F0225009E92582C8F608A6F02281
:0D0C8200BBFE09E92582C8F2E5F008F22268
:100C8F0075F008758200EF2FFFEE33FECD33CDCC1C
:100C9F0033CCC58233C5829BED9AEC99E58298409F
:100CAF000CF582EE9BFEED9AFDEC99FC0FD5F0D67C
:100CBF00E4CEFBE4CDFAE4CCF9A88222B800C1B9A6
:100CCF000059BA002DEC8BF084CFCECDFCE5F0CBE4
:100CDF00F97818EF2FFFEE33FEED33FDEC33FCEB1D
:100CEF0033FB10D703994004EB99FB0FD8E5E4F9D8
:100CFF00FA227818EF2FFFEE33FEED33FDEC33FCC5
:100D0F00C933C910D7059BE99A4007EC9BFCE99AB8
:100D1F00F90FD8E0E4C9FAE4CCFB2275F010EF2FFD
:100D2F00FFEE33FEED33FDCC33CCC833C810D707FD
:100D3F009BEC9AE899400AED9BFDEC9AFCE899F838
:0E0D4F000FD5F0DAE4CDFBE4CCFAE4C8F922CB
:0E0D5D00C3E49FFFE49EFEE49DFDE49CFC22A7
:100D6B00EB9FF5F0EA9E42F0E99D42F0E89C45F0DE
:010D7B002255
:100D7C00E8600FECC313FCED13FDEE13FEEF13FF55
:030D8C00D8F12279
:100D8F00BB010DE58229F582E5833AF583020E0951
:100D9F005007E92582F8020DFCBBFE07E92582F812
:100DAF00020E15E58229F582E5833AF583020E22BC
:0C0DBF00ECF0A3EDF0A3EEF0A3EFF022A7
:100DCB00A8828583F0D083D082120DE2120DE2123D
:100DDB000DE2120DE2E473E493A3C583C5F0C58362
:100DEB00C8C582C8F0A3C583C5F0C583C8C582C872
:010DFB0022D5
:1017FE00020E32E493A3F8E493A34003F68001F2C1
:10180E0008DFF48029E493A3F85407240CC8C333EB
:10181E00C4540F4420C8834004F456800146F6DFBA
:10182E00E4800B010204081020408090187EE47EB4
:10183E00019360BCA3FF543F30E509541FFEE493AF
:10184E00A360010ECF54C025E060A840B8E493A376
:10185E00FAE493A3F8E493A3C8C582C8CAC583CAA1
:10186E00F0A3C8C582C8CAC583CADFE9DEE780BE59
:0118F40000F3
:0D0DFC00E6FB08E6F908E6FA08E6CBF82267
:0C0E0900E0F8A3E0F9A3E0FAA3E0FB226C
:0D0E1500E2FB08E2F908E2FA08E2CBF8225D
:100E2200E493F8740193F9740293FA740393FB2226
:00000001FF
