:020000040800F2
:1000000098680020690100082D09000825070008EC
:100010002B090008A1030008410C000800000000A3
:10002000000000000000000000000000F10A0008CD
:100030000507000800000000CF090008F30A0008C7
:100040008301000883010008830100088301000880
:100050008301000883010008830100088301000870
:100060008301000883010008830100088506000859
:100070008301000883010008B1060008DD060008BE
:100080008301000883010008830100088301000840
:10009000850400088301000883010008830100082B
:1000A0008301000883010008830100088301000820
:1000B000830100083D0B0008AD0B00088301000818
:1000C0008301000883010008830100088301000800
:1000D00083010008D10B0008830100088301000898
:1000E00083010008830100088301000883010008E0
:1000F000830100088301000883010008000000005C
:10010000830100080000000083010008830100084B
:1001100083010008830100088301000883010008AF
:10012000830100088301000883010008830100089F
:1001300083010008000000000000000083010008A7
:10014000830100088301000883010008830100087F
:10015000DFF810D000F012F9004800470D1C00082D
:10016000AFF30080986800200648804706480047A3
:10017000FEE7FEE7FEE7FEE7FEE7FEE7FEE7FEE757
:10018000FEE7FEE7F90A00085101000840EA010312
:100190009B0703D009E008C9121F08C0042AFAD23D
:1001A00003E011F8013B00F8013B521EF9D2704701
:1001B000F0B480EA0102D40F4200B2EB410F02D248
:1001C0000246084611464A0042D0C30DDDB2C1F3D3
:1001D000C752AD1A202D35DAC1F3160141F40002E1
:1001E00004B15242C5F1200602FA06F12A41104438
:1001F000B3EBD05F23D0C4B1012DA0EBC35009DC19
:10020000F0BC4FF0004202EAC352DBB200F500003E
:1002100000F086B8400000F1807000EBC350A0F100
:10022000807040EAD170490009E0490841EAC07194
:10023000A0EBC35000F50000400800EBC350F0BC39
:1002400000F065B86142012202EB4101001BF6E7B4
:10025000F0BC704781F00041AAE780F00040A7E7BA
:1002600080EA010210B502F00043400022D04A00AB
:100270001FD0010E01EB1261C0F35600C2F356020B
:1002800040F4000042F40002A0FB022000047F3989
:10029000140400D0401C50EA124001D44000491E12
:1002A000C2B20C0604EBD010401C4008802A02D0D9
:1002B00003E0002010BD20F00100002900DA00203A
:1002C000184310BD420005D0C0F3C75252429142BC
:1002D00001DC0020704700EBC150704796230022DC
:1002E000114600F01DB820F00040C10DC0F316000B
:1002F00040F400007F2901DA00207047962903DCD2
:10030000C1F19601C840704796398840704700296E
:10031000A8BF7047401C490008BF20F0010070478B
:1003200010B4B0FA80FC00FA0CF050EA010404BFEB
:1003300010BC704749B1CCF1200421FA04F411FA41
:100340000CF118BF012121430843A3EB0C01CB1D85
:100350004FEA00614FEA102042BF002010BC7047F6
:1003600000EBC35010440029A4BF10BC7047401CD0
:10037000490008BF20F0010010BC7047064C074D33
:1003800006E0E06840F0010394E807009847103465
:10039000AC42F6D3FFF7E0FE5824000878240008AA
:1003A000FEE7000070B5364E002106F5006500201E
:1003B00006EB011205EB411301E0102805DAC0F14C
:1003C0000F04144494F8004402E0141894F8F04226
:1003D0001C54401C2028F0DB491C1029E7DB1021AD
:1003E000002006EB011205EB411301E0102805DAAD
:1003F000C0F10F04144494F8004402E0141894F877
:10040000F0401C54401C2028F0DB491C2029E7DB6D
:100410002021002006EB011205EB411301E010281A
:1004200005DAC0F10F04144494F8004404E01418F1
:10043000A4F5805494F8F04E1C54401C2028EEDBA8
:10044000491C3029E5DB3021002006EB011305EBC8
:10045000411201E0102805DAC0F10F041C4494F8A1
:10046000004404E01C18A4F5805494F8F04C145493
:10047000401C2028EEDB491C4029E5DB70BD000054
:100480004C00002000B595B06A4600210A4800F0F3
:1004900065FF684601F0ECFD0848417891F00102E3
:1004A000427007484FF4004103D001F007FB15B03C
:1004B00000BD01F001FBFAE70064004000000020ED
:1004C000000C0140034610B50020024603E09C5C8E
:1004D000521C204480B28A42F9DB10BD70B504463C
:1004E000154DC0074FF00101284602D001F0E6FA91
:1004F00001E001F0E1FAA0074FF00201284602D521
:1005000001F0DCFA01E001F0D7FA60074FF00401D6
:10051000284602D501F0D2FA01E001F0CDFA4FF4FD
:100520008061284601F0C8FA2846BDE870404FF4C3
:10053000006101F0C3BA0000000C014070B5044630
:10054000154DC0074FF00101284602D001F0B6FA60
:1005500001E001F0B1FAA0074FF00201284602D5F0
:1005600001F0ACFA01E001F0A7FA60074FF00401D6
:10057000284602D501F0A2FA01E001F09DFA4FF4FD
:100580008061284601F09AFA2846BDE870404FF491
:10059000006101F091BA0000000C014070B5044602
:1005A0000B4DC0074FF02001284602D001F086FA1B
:1005B00001E001F081FAA0074FF48071284603D5CD
:1005C000BDE8704001F07ABABDE8704001F074BA3D
:1005D000000C014070B504460B4DC0074FF00801F8
:1005E000284602D001F06AFA01E001F065FAA0079E
:1005F0004FF01001284603D5BDE8704001F05EBA07
:10060000BDE8704001F058BA000C014070B5C160FF
:100610000546002614461046314600F077F9084397
:1006200007D14FF00040844202D2204600F04CFA3D
:100630000446AE60C5E90046204670BD2DE9F04194
:1006400004460F46D4E901100B1A2068C51A9542DA
:1006500000D31546421E1140461AAE4200D32E4624
:10066000E068324608443946FFF790FDAA1BB919E5
:10067000E068FFF78BFD6068284460602846BDE8AD
:10068000F081000010B5094C02220021204601F043
:100690002AF9002808D001220021204601F01DF986
:1006A000BDE8104001F0BABC10BD000000000240DF
:1006B00010B5084C02220321204601F014F900284D
:1006C00007D001220321204601F007F90249012049
:1006D000087010BD000002401C00002010B5084C3E
:1006E00002220421204601F0FEF8002806D0204610
:1006F0000122BDE81040042101F0EFB810BD000058
:10070000000002407047000010B5044601F086FC6E
:10071000052C03D2024850F8240010BD002010BD63
:10072000D4630020FEE7000010B540F2036001F042
:100730004BFC4FF4C06001F047FC0121104801F070
:1007400039FA104C4CF63F5303221021204601F099
:10075000DBF94FF4405303224821204601F0D4F93D
:100760004FF48041204601F0A7F94FF400412046A4
:1007700001F0A2F9BDE810400320FFF72BBF0000F5
:1007800000023000000C0140002203E00A21491E53
:10079000FDD2521C8242F9D37047000010B540F2DE
:1007A000036001F011FC4FF4C06001F00DFCC023A8
:1007B0000322BDE810401021014801F0A5B9000056
:1007C000000C0140802303224821014801F09CB91C
:1007D000000C0140802303221021014801F094B94C
:1007E000000C014010B5FFF7F5FF0C4C80212046AE
:1007F00001F064F94021204601F060F90120FFF783
:10080000C3FF8021204601F057F90120FFF7BCFF0C
:100810002046BDE81040402101F04EB9000C0140D7
:1008200010B5FFF7D7FF0C4C4021204601F044F9EA
:100830008021204601F040F90120FFF7A5FF40216B
:10084000204601F03BF98021204601F037F9BDE850
:1008500010400120FFF798BF000C014070B5144D07
:100860004FF47A748021284601F028F9FFF7AAFF97
:100870000120FFF789FF4021284601F01FF90120E0
:10088000FFF782FF07E0641E2404240C03D0FFF767
:10089000C7FFFF2070BD8021284601F085F90028A0
:1008A000F1D14021284601F007F9002070BD000079
:1008B000000C014070B50546FFF78CFF124E402139
:1008C000304601F0F9F8002428064FF08001304648
:1008D00002D501F0F3F801E001F0EEF86806050E2C
:1008E0000120FFF751FF4021304601F0E7F80120D9
:1008F000FFF74AFF4021304601F0DEF8641CE4B205
:10090000082CE1D370BD0000000C014050EA010248
:1009100006D0431E41F1FF3203400A40134302D088
:100920000020C11770470120FBE7FEE77047090769
:10093000090E002806DA00F00F0000F1E02080F830
:10094000141D704700F1E02080F80014704770B566
:10095000002505F1B000C0B200F073F9002000F0EE
:1009600070F9102000F06DF90024002000F080F9EB
:10097000641CE4B2802CF8D36D1CEDB2042DE8D3D6
:1009800070BD000070B5084D0024285D00F059F9D5
:10099000641CE4B2162CF8D3FFF7D9FFBDE8704011
:1009A0000021084600F002B83400002010B50446CB
:1009B000B031C8B200F045F9102040EA141000F040
:1009C00040F904F00F00BDE8104000F03AB970475C
:1009D0002DE9F14FDFF8E8B000254FF0FF08E8B24D
:1009E000FFF7DCFD002441F6C81A01E0082C03D211
:1009F000E0B2FFF773FD04E0A4F10800C0B2FFF716
:100A00009DFD5046401EFDD20120FFF77DFE0220D5
:100A1000FFF77AFE0320FFF777FE0420FFF774FE4E
:100A20000120FFF771FEDFF89C904946FFF718FCA4
:100A3000FFF759FC0BEB441727F815000220FFF7CE
:100A400063FE4946FFF70CFCFFF74DFC07EB45063C
:100A500030810320FFF758FE4946FFF701FCFFF7FE
:100A600042FC30820420FFF74FFE4946FFF7F8FBB7
:100A7000FFF739FC80B2308337F81510FF2901D910
:100A800027F815803189FF2901D9A6F80880318A15
:100A9000FF2901D9A6F81080FF2801D9A6F81880EF
:100AA000641CA4B2102CA1D36D1CADB2042D96D33E
:100AB0000098BDE8F84F4FF400720149FFF766BB9C
:100AC000A41300200000C84230B5044601250021CF
:100AD000FFF71CFF084309D144B1E807844204D260
:100AE00064084FEA4505FBD1680830BD204630BD9B
:100AF000704700F05FBD00000E4810B5016841F07E
:100B00000101016000214160C16201680A4A11408F
:100B100001604FF47F018160016821F48021016050
:100B200001F0F6FABDE8104000214FF0006001F03E
:100B30006DB9000000100240FFFFF6EA70B5184DD5
:100B40000221284601F070FB012827D10221284606
:100B500001F067FB134CA08868B1A08801281DD163
:100B60000021284601F04CFB80B260802188884239
:100B700008D9401A0AE00021284601F041FB2080F4
:100B800001200AE04FF6FF72511A0844A060A068E5
:100B90000549B1FBF0F0E0800020A08070BD0000AE
:100BA000000400400C00002040420F0010B5074C2C
:100BB0000121204601F038FB012805D12046BDE87F
:100BC0001040012101F02DBB10BD000000080040C5
:100BD00070B5174C1549204601F0B9FB002824D008
:100BE0002068201D0068134D0421284600F09EFD5A
:100BF0000421284600F00CFF42F21074221A0E481D
:100C00000E49426101EB4400FFF718FD042128461C
:100C100000F08CFD22460421284600F0EAFE28461A
:100C2000BDE87040042100F091BD70BD04030400D4
:100C300000380140000002401C000020A4150020E4
:100C4000FEE710B50446FFF7CDFD7820FFF732FE32
:100C5000FFF704FE0020FFF72DFEFFF7FFFD204603
:100C6000FFF728FEFFF7FAFDBDE81040FFF7D8BDFB
:100C700010B50446FFF7B6FD7820FFF71BFEFFF71F
:100C8000EDFD4020FFF716FEFFF7E8FD2046FFF7D9
:100C900011FEFFF7E3FDBDE81040FFF7C1BD02E024
:100CA00008C8121F08C1002AFAD1704770470020F7
:100CB00001E001C1121F002AFBD17047816841F099
:100CC0000801816081680907FCD4816841F0040152
:100CD000816081684907FCD470471205A2F5801233
:100CE00001290BD0022908D1816B21F440118163C5
:100CF00002F44011826B114381637047C16A21F491
:100D00007001C16202F47001C26A1143C16270478E
:100D100010B52A4C204600F05DF8002000F0B8F82D
:100D200001220221204600F00BF901221102204687
:100D300000F006F90021204600F042F805220121CA
:100D40002046FFF7CAFF002205231146204600F087
:100D5000ABF8012205231146204600F0A5F8022237
:100D600005231146204600F09FF803220523114673
:100D7000204600F099F8042205231146204600F091
:100D800093F84FF460220121204600F063F801221D
:100D90001146204600F043F8204600F038F80120C4
:100DA00000F000FC2046FFF789FF204600F02AF8FB
:100DB0002046BDE81040012100F0B5B800240140F4
:100DC0000029816802D041F4006101E021F4006152
:100DD000816070470A4910B540180CD0B0F5806F9B
:100DE0000CD140F20A34204601F00AF92046BDE851
:100DF000104001F0F7B840F20934F4E710BD0000EC
:100E000000DCFEBF816841F48071816070478168B9
:100E1000C90703D1816841F0010181607047002A50
:100E20004FEAC1720AD01AB1826842F4801282601D
:100E300089070ED5816841F4004109E01AB1826842
:100E400022F480128260890703D5816821F4004171
:100E500081607047012909D0022906D1816821F4F7
:100E6000E04181608168114381607047816821F4AD
:100E70006021F6E710B501F091F801F0A1F900F05A
:100E80001FFE00F093FCBDE81040FFF741BF0000DB
:100E900004490A6822F470220A600A6802430A6060
:100EA000704700000424014030B51F24062909D2F0
:100EB000456B01EB81018C40A54302FA01F42C4300
:100EC000446318E00C290AD2056B891F01EB8101EC
:100ED0008C40A54302FA01F42C4304630BE0102973
:100EE00009D2C56A0C3901EB81018C40A54302FA95
:100EF00001F42C43C46207250A2A08D2046902EBD4
:100F000042018D40AC438B402343036130BD122A24
:100F1000FCD2C4680A3A02EB42018D40AC438B40DC
:100F20002343C36030BDCA0703D0826842F4800205
:100F30008260890703D5816841F4001181607047A0
:100F4000002A4FEAC15211D0002A03DA426842F463
:100F5000807242604A0503D5426842F48062426072
:100F6000890715D5816841F0020110E0002A03DAF3
:100F7000426822F4807242604A0503D5426822F436
:100F800080624260890703D5816821F00201816097
:100F90007047000010B500F035F900F015F8094968
:100FA000032000F065FA07480021016041604172AA
:100FB00001720821817200F15001BDE81040042047
:100FC00000F056BAF46300203EB56946002000F0F8
:100FD0004FFA144C204600F02BF800218DF8081031
:100FE00001918DF809108DF800106946204600F037
:100FF00029F90D4D2046294600F0E0F829460B4816
:1010000000F0DCF800231A461946184600F086F86E
:1010100000221146142000F0ABFE0221204600F011
:1010200099F93EBD0064004040420F000068004056
:10103000084910B5884202D140F2194401E040F25B
:101040001A44204600F0DCFF2046BDE8104000F0C6
:10105000C9BF000000640040F0B5827A2D4D012127
:1010600091402A6842F001022A602A4E1C363268FA
:101070008A433260274AC489274B0C32A4B91468CA
:101080008C4314604488C78844EA0744478903EBCB
:10109000C707C7F840460488878844EA0744478959
:1010A00003EBC707C7F84446C489012C12D1146862
:1010B0000C4314604489026803EBC4044FEA3242D3
:1010C000C4F840264489426803EBC4034FEA324225
:1010D000C3F844260F4A8389121D002B13680DD0D4
:1010E0000B4313600B4A03891432002B136807D09B
:1010F0000B431360007C012804D006E08B43F0E72B
:101100008B43F6E7306808433060286820F0010020
:101110002860F0BD0066004000600040F0B585B07A
:101120000D4606461F4614466946012000F0A0F908
:10113000ADF80A7000274FF0010C4FF6FF70ADF8C4
:101140000C7000EA4611ADF80EC08DF810C000EA30
:10115000451094B1012C13D04FF6FF7101EAC6007F
:1011600001EAC501001D091DC6F34F32C5F34F3317
:10117000022C10D0032C11D0FEE7ADF8087001E06E
:10118000ADF808C0ADF80010ADF80400ADF802707D
:10119000ADF806700CE0ADF8087001E0ADF808C0DD
:1011A000ADF80020ADF80430ADF80200ADF806103F
:1011B0006846FFF751FF05B0F0BD00002DE9F04192
:1011C00005460F4801240F4681420CD801212846CC
:1011D00000F0A4F901280AD000240221284600F0DA
:1011E0009DF9012800D000242046BDE8F081E8697F
:1011F00000F04046384600F0E7F93043E861ECE79C
:1012000040420F0010B540F2197000F0DDFE40F2D0
:10121000026000F0D9FE4FF4C06000F0D5FE084C2B
:101220004FF4006303224821204600F06DFCA31414
:1012300020460322BDE81040182100F065BC0000E4
:1012400000080140F0B54FF6FF7205681346002410
:1012500025F002050560056845F00105056000E020
:101260005B1E4568ED0701D1002BF9D14368DB0710
:1012700051D04B784FF0F85505EA03630D784FF4E1
:10128000702643EA85758B784FF4E05706EA0346EB
:1012900007EA83131E433543CB78BE0206EA0356A2
:1012A0004FF4C04707EA83231E434B8935435B1E37
:1012B000C3F309031D43C5610B79012B03682CD0CF
:1012C00023F0800303604B79012B036828D023F0BF
:1012D000400303608B79012B036824D023F02003A3
:1012E0000360CB79012B036820D043F01003036027
:1012F0000B7A012B03681CD023F008030360497AA2
:101300000129016818D021F004010160016821F071
:101310000101016014E000241AE043F08003D1E7EA
:1013200043F04003D5E743F02003D9E723F010034F
:10133000DDE743F00803E1E741F00401E5E7521E71
:101340004168C90702D0002AF9D101E002B10124A5
:101350002046F0BD42690A434261704738B500EB50
:101360000113D3F8B04114F004041472D3F8B0415F
:1013700032D0E4085460D3F8B04104F0020454724F
:10138000D3F8B441240A82F84B40D3F8B44114F0A6
:10139000800482F84C4022D0046A14F0010F5ED021
:1013A000D3F8B44104F00F04082C03D92F4D2C447A
:1013B00014F8094C9472D3F8B441C4F3401482F881
:1013C0004D40D3F8B441C4F3001482F84E40957AEE
:1013D000AC08012C27D029E0640D1460CBE7D3F8CA
:1013E000B44104F00F049472D3F8B841D472D3F826
:1013F000B841240A1473D3F8B841240C5473D3F8B9
:10140000B841240E9473D3F8BC41D473D3F8BC41D3
:10141000240A1474D3F8BC41240C5474D3F8BC319E
:101420001B0E937415E0042D00D002240B320092A1
:101430005CB1D3F8B821009D2A60009A121D641E89
:10144000009214F0FF04F4D103E0D3F8B821009B1C
:101450001A6029B1016941F02001016138BDFEE740
:10146000C16841F02001C16038BD00009823000828
:1014700070B551B1022301245D02002205284CD22F
:10148000DFE800F004101A253600FEE74A71CA7141
:101490008A714D810A724A708B70CA700A714A72E1
:1014A0000A7070BDCC810A740A810A804A808A80E1
:1014B000CA808A814A8170BD8D820A744B748C7493
:1014C0008A70CA604C700A708A604A6070BD81F888
:1014D0004C2081F84D2081F84B2000200B18401C37
:1014E000C0B2DA724028F9D38A724A600A7211E0F7
:1014F00081F84D2081F84E2081F84C2000200B18F7
:10150000401CC0B2DA724028F9D38A724A600A726B
:1015100081F84B204A720A6070BDFEE700234FF647
:10152000FF72012904D0022915D0042922D036E007
:10153000016821F002010160016841F001010160D0
:1015400000E0521E4168C90701D1002AF9D1406864
:10155000C00721D022E0016821F00301016000E012
:10156000521E4168890701D0002AF9D140688007DE
:1015700012D113E0016821F001010160016841F01E
:101580000201016000E0521E4168890701D4002A6F
:10159000F9D14068800701D4002300E001231846F8
:1015A000704700000249086008680028FCD17047B5
:1015B0000800002003480168002902D00168491E84
:1015C000016070470800002070B505460024022025
:1015D00000F050FCB0FBF5F01821B0FBF1F28608EA
:1015E0001CE01621951C521CCB1C6B43834202D07D
:1015F000491EF9D194B10B4B4FF4E00403EBC10049
:1016000033F8311080884FF4702304EA005003EA65
:1016100001410843C2F30901084370BDB242E0D35F
:10162000FEE70000A023000810B588B04FF4A060CA
:1016300000F0CAFC174C0321204600F0E7F868468A
:1016400000F0CAF901218DF81A10134802908DF8A4
:101650001910002142F21070CDE903100F480090DC
:101660008DF818104FF44050019105906A460321FF
:10167000204600F0E6F80321204600F077F8032129
:10168000204600F064F902220321204600F015F9FB
:1016900008B010BD00000240B43C002004380140F6
:1016A00030B587B04FF4A06000F08EFC1C4C0421D4
:1016B000204600F0ABF81B48002102908DF81A106C
:1016C00001208DF8190042F21070CDE90310164880
:1016D00000904FF440508DF8181005906A46042190
:1016E000204600F0AEF80421204600F03FF8042127
:1016F000204600F02CF90C4D40212D1F284600F00B
:101700000BFE02220421204600F0D7F804212046D7
:1017100000F01CF88021284600F004FE07B030BD20
:1017200000000240A41500200438014070B50C46AA
:10173000054600F01DF940B104EB840005EB800084
:10174000816821F00101816070BDFEE770B50C4633
:10175000054600F00DF940B104EB840005EB800074
:10176000816841F00101816070BDFEE770B50C46F3
:10177000054600F0FDF840B104EB840005EB800065
:10178000816821F02001816070BDFEE770B50C46D4
:10179000054600F0EDF840B104EB840005EB800055
:1017A000816841F02001816070BDFEE710B5144CE6
:1017B00088B00021204600F029F81248002100904E
:1017C0008DF8181001208DF819000002019080009A
:1017D0000390052004900C4A4FF4005002920590AB
:1017E0008DF81A106A46204600F02BF8002120469A
:1017F000FFF7CCFF00212046FFF7A8FF08B010BD7F
:10180000000002404C240140E863002070B50D4602
:10181000044600F0ADF898B105EB850004EB8002BA
:10182000906820F00100906000209060D06010610E
:1018300050616068AA000F2191400843606070BD4C
:10184000FEE770B514460D46064600F091F850B319
:1018500005EB850006EB800021680161A16841610C
:10186000218A89B2C1608168E36821F47C52616891
:1018700019436369134319438160217E01298168FB
:1018800012D021F040018160617E012981680ED073
:1018900021F080018160A17E002981680AD041F099
:1018A0001001816070BDFEE741F04001EBE741F0BF
:1018B0008001EFE721F01001F3E770B515460C4603
:1018C000064600F055F838B104EB840006EB8000C2
:1018D00081682943816070BDFEE7436889008A40C2
:1018E00013434360704710B58C001346A24001EBD0
:1018F000810100EB8101022B04D0042B08D0082BBE
:101900000CD0FEE700688968104001F002010AE08F
:1019100000688968104001F0040104E000688968EB
:10192000104001F0080110B109B1012010BD0020E4
:1019300010BD70B515460C46064600F019F828B1E2
:1019400004EB840006EB8000456170BDFEE770B5D6
:101950000C46054600F00CF840B104EB840005EBA2
:101960008000816821F48041816070BDFEE7000045
:101970000246044B01209A4202D1042900D90020DA
:10198000704700000004024070B5104A0C4605463E
:101990001378002BFCD0002010700D4E0321304630
:1019A000FFF7C4FE2A4603213046FFF7C2FF224656
:1019B0000321304600F01DF803213046FFF7C6FE34
:1019C000BDE870408021034800F0ACBC1C00002042
:1019D000000002400038014050B100210160416028
:1019E00001768160C1604176016181764161704715
:1019F000FEE770B515460C460646FFF7B9FF30B155
:101A000004EB840106EB8101A8B2C86070BDFEE75B
:101A100070B50C460546FFF7ABFF28B104EB840018
:101A200005EB8000C06870BDFEE7000070B505469C
:101A30001F480024854200D002241E4830F81400BC
:101A400000F0C2FA1B48801E30F8140000F0BCFA07
:101A500018480322001D00F1080650F8243056F8FB
:101A60002400182100F050F8301F032250F82430D1
:101A700056F82400042100F047F8284600F020FC26
:101A80004FF4E121284600F0F1FB0421284600F044
:101A900076FC0821284600F078FC284600F048FC37
:101AA0002846BDE870404FF4417100F046BC00008C
:101AB00000380140200000204161704701617047FB
:101AC00010B5104C022304220021204600F01CF81F
:101AD00004231A460021204600F016F808230422A9
:101AE0000021204600F010F8102304220021204697
:101AF00000F00AF8204601230422BDE8104000212E
:101B000000F002B8000801402DE9F04301F00F0495
:101B1000CD0602D5042A18D0144300224FF00F0935
:101B20004FF0010808FA02F51D4019D00768960029
:101B300009FA06FC27EA0C0704FA06FC4CEA070C33
:101B4000282908D0482908D008E0C26B44F00304D3
:101B50001A43C263E1E7456100E00561C0F800C0D7
:101B6000521C92B2082ADDD3082208FA02F51D4061
:101B700014D047689600203E09FA06FC27EA0C07B5
:101B800004FA06FC4CEA070C282902D0482902D0A6
:101B900002E0456100E00561C0F804C0521C92B249
:101BA000102AE2D3BDE8F0838068084000D001200D
:101BB00070470000F0B5144C002801DAE36900E03A
:101BC0006368450D2E0185B2C0F30157B540C0F3DF
:101BD0000342032F05D0C6020AD503269640B3431D
:101BE00007E023F0E062636823F0E063636002E0F3
:101BF000AB4343F0E06201B12A43002801DAE2611D
:101C0000F0BD6260F0BD000000000140ADF5007D58
:101C100000F0D6FAFFF72EF9FEF786FD00F00EFB76
:101C2000FFF7B8F9FEF7BAFDFEF7ACFE4FF48041BE
:101C30004148FFF743FF424EDFF800914FF4FA7A34
:101C4000642506F500784FF4837BD9F804005746E5
:101C5000401CB0FBF7F1C9F804000AFB11004C4628
:101C600048B920784FF4004190F0010020703248CC
:101C700008D0FFF721FF6068B0FBF7F107FB110008
:101C800018B105E0FFF71AFFF5E70320FEF7A2FC05
:101C90006068B0FBF5F105FB1100C8B96846FEF7B6
:101CA00097FE4FF4007269462548FEF76FFADFF899
:101CB00094C00021002006EB41170CEB011217F82D
:101CC00010301354401C1028F9DB491C1029F1DB9B
:101CD0006068B0FBF5F105FB110048BBFEF762FB45
:101CE00045F6A520A8F80000012088F80200A8F811
:101CF00003B04446594688F805000022002006EB50
:101D0000421700EB021C17F81030A444401C8CF85A
:101D100006301028F5DB521C102AEFDB0A48FEF7CC
:101D2000D1FBA4F806014FF484710748FFF72CFE9D
:101D30000120FFF737FC88E7000C0140000000207D
:101D40004C1000204C0000204C12002010B5002246
:101D500011460E2000F00CF8012200210F2000F0A7
:101D600007F80122BDE8104011462520AFF300809E
:101D7000F0B506461F4800240F460068234600F4CD
:101D8000E0654FF4A06085420FD006DCB5F5407FDA
:101D900016D0B5F5806F06D10FE0B5F5C06F09D04C
:101DA000B5F5E06F04D000F027F80224234608E0E0
:101DB000042306E00124032303E00324012300E0BD
:101DC0000424C4F104008740C3F104010F20C8407B
:101DD0001040384306F1E021000181F8000406F0CC
:101DE0001F01012088407109890001F1E021C1F83B
:101DF0000001F0BD0CED00E0024908430249086013
:101E0000704700000000FA050CED00E0024A1140A6
:101E1000014302480160704780FFFF1F08ED00E0AA
:101E2000124B10B55968124A1140DA6A0C2822F098
:101E3000005217D2DFE800F006060606160916095A
:101E40001010101041EA80310CE020F0040041EA4B
:101E5000803040F0805105E020F00C0041EA8031F4
:101E600042F000525960DA6210BD000000100240DA
:101E7000FF3FFFEF70B540A188B02EC98DE82E005E
:101E80003EA1414DD1E90021CDE904213BA1044609
:101E9000D1E90021CDE90621696800203B4BC1F35F
:101EA000810222B13A49012A40D0022A01D01946C2
:101EB0003CE06A684FF4803302F480329A421ED1CB
:101EC000EA6A12F0804F00D03249EA6A02F48032A6
:101ED0009A420DD1EA6AC2F30313EA6A5B1CC2F3A9
:101EE0000322921C112A00D11422B1FBF3F15143B9
:101EF000EA6A02F00F02521CB1FBF2F300E0264B3B
:101F00006968C1F383426968890001D542F0100213
:101F10000F2A01D2921C00E0521C03FB02F10F2A8F
:101F200004D103EB4301490001EB53016A686B687C
:101F3000C2F303121DF8022021FA02F2C3F30223B6
:101F400004AE6D68F35C22FA03F3C5F3C22506AE56
:101F5000755D22FA05F544B1012C08D0022C08D099
:101F6000032C00D1284608B070BD0846FBE7104698
:101F7000F9E71846F7E70000000000000000000045
:101F800001020304060708090010024000127A004B
:101F900040787D01006CDC0200093D0010B540F284
:101FA000046000F011F840F2026000F00DF840F219
:101FB000096000F009F84FF4A06000F005F8BDE8F2
:101FC00010400120FFF72CBF054901EB90110A6872
:101FD00000F01F030120984002430A607047000090
:101FE00000100240054901EB90110A6800F01F0340
:101FF0000120984082430A607047000000100240B0
:10200000054901EB90110A6800F01F030120984078
:1020100002430A6070470000001002402DE9F041C1
:10202000114F00250026344604EB840007EB4000E6
:1020300030F81500FEF752F93146FEF7B9F8641C86
:102040000646012CF0DB0949FEF70AF96FF00B0197
:10205000FEF738F90449143941F825006D1C052DA7
:10206000E0DBBDE8F0810000E8630020333353403B
:102070002DE9F041014650222348FEF787F8224D12
:10208000DFF888E002222E6800210EEB022701EB28
:10209000022086420FD100204B0807EB0313CC0728
:1020A00005EB000403EB000CE47A24D00CF8F84CA8
:1020B000401C0828F3DB491C2029E8D3521C082ABD
:1020C000E2D3002101F5807086420FD100204A083A
:1020D0000EEB0212CB0705EB000302EB0004DB7AE8
:1020E0000ED084F80837401C0828F3DB491C20294F
:1020F000E8D3BDE8F081ACF5805C8CF8004FD7E701
:1021000084F80037EFE70000541300204C00002053
:1021100025480021026842F4803202604FF6FF73C6
:102120000268491C12F4003F01D19942F8D10168BC
:10213000890300D4FEE71D490A6822F00702D21C79
:102140000A604168416041684160416841F48061D2
:1021500041604168164A114041604168154A114387
:102160004160C16A144A1140C162C16A134A1143F5
:10217000C162016841F08061016001680901FCD51C
:10218000016841F08071016001688901FCD54168F6
:1021900021F003014160416841F002014160416862
:1021A0000907FCD5704700000010024000200240E3
:1021B000FFFFC3DF0000352000F0FEBF490601002D
:1021C00070B50E484FF47A710068B0FBF1F0401E14
:1021D000B0F1807F11D24FF0E024606165170F21CC
:1021E0002846FEF7A4FB0020A061072020612846B6
:1021F000BDE870400021FEF79ABBFEE71800002002
:102200000246002039B1012907D0022907D003294D
:1022100000D1106C7047506B7047906B7047D06B5B
:102220007047C94301617047C26800690A400842AB
:1022300002D00AB1012070470020704710B509484C
:10224000FFF7F4FBFFF782FD074942F2107201EB42
:102250004200FEF7DBF9FFF7E7F9BDE81040FFF7B2
:102260001FBA000000380140A415002070B5124AC2
:1022700004460D460020A11A131594421AD005DC1D
:102280000E49611816D0994208D113E0994211D035
:10229000B1F56C4F02D10320FFF7ECFD00EB5500C8
:1022A000B0FBF5F04FF6F071014000F00F02114362
:1022B000A16070BD0220EFE7004C004000BCFFBFF2
:1022C000134A10B5811A1315904213D007DC114937
:1022D00040180CD098421AD140F212440FE09942B3
:1022E0000BD0B1F56C4F12D140F20E3407E040F242
:1022F000114404E040F2134401E040F2144420464B
:10230000FFF77EFE2046BDE81040FFF76BBE10BD14
:10231000004C004000BCFFBF426922F040020A436B
:1023200042617047426922F080020A43426170476D
:10233000C16841F40051C160704700EB9110026820
:1023400001F01F03012199400A430260704730B534
:10235000C1F38912825800EB915001F01F0501244E
:1023600004FA05F300681A40C1F3044104FA01F3CA
:10237000184202D00AB1012030BD002030BDC26831
:1023800022F004020A43C2607047C26822F00802C9
:102390000A43C260704700000C101418203040003F
:1023A000000000000000000001000000000000002C
:1023B0000200000000000000030000000000000018
:1023C0000300000001000000040000000100000004
:1023D00005000000010000000600000001000000F0
:1023E00006000000020000000700000002000000DC
:1023F00008000000020000000900000002000000C8
:1024000009000000030000000A00000003000000B3
:102410000B000000030000000C000000030000009F
:102420000D000000030000000D000000040000008B
:102430000E000000040000000F0000000400000077
:102440000F000000050000000F0000000600000063
:102450000F000000070000007824000800000020A2
:102460004C0000009E0C0008C42400084C00002012
:102470004C680000AE0C00080000000000000000E6
:10248000000000000000000000000000000000004C
:10249000000E270701000E060206000000020000E1
:1024A000000400000008014000000000AED580A834
:1024B0001FD300408D14A1C8DA008180D91FDB40F2
:0424C000A4AF0000C5
:04000005080001519D
:00000001FF
