:020000040800F2
:1000000060040020050100088909000805090008AE
:100010008709000839080008F50D000800000000F5
:100020000000000000000000000000002D0C00088F
:100030003B080008000000008B090008D90C0008EC
:100040001F0100081F0100081F0100081F01000810
:100050001F0100081F0100081F0100081F01000800
:100060001F0100081F0100081F0100081F010008F0
:100070001F0100081F0100081F0100081F010008E0
:100080001F0100081F0100081F0100081F010008D0
:100090001F0100081F0100081F0100081F010008C0
:1000A0001F0100081F0100081F0100081F010008B0
:1000B0001F0100081F0100081F0100081F010008A0
:1000C0001F0100081F0100081F0100081F01000890
:1000D0001F0100081F0100081F0100081F01000880
:1000E0001F0100081F0100081F010008DFF810D0E1
:1000F00000F0EAFA00480047E9160008AFF3008074
:10010000600400200648804706480047FEE7FEE7F7
:10011000FEE7FEE7FEE7FEE7FEE7FEE7FEE7FEE7B7
:10012000DD0C0008ED0000082DE9FE4F81EA030414
:1001300004F0004421F0004100944FF0000B23F044
:10014000004350EA01045ED052EA03045BD0C3F3DB
:100150000A54C1F30A552C44A4F2F3340194A0FBD1
:100160000254C1F3130141F48011C3F3130343F4A8
:10017000801301FB024400FB034E840A970A44EA01
:10018000815447EA8357A4FB076802958D0A05FB53
:1001900007854FEA932C04FB0C542705029D4FEA78
:1001A000065847EA1637B5EB08056EEB070C870EC5
:1001B000920E47EA811742EA8312A7FB0201B6EBCF
:1001C0000B0164EB00042B0D43EA0C335E1844EB87
:1001D0001C50DA465146E7FB0201C5F313044FEA0F
:1001E0000B3343EA14534FEA0432019C43EA0603FB
:1001F000A4F10C040294009CCDE900B400F03EF997
:1002000003B0BDE8F08F00200146F9E72DE9F04D7D
:1002100081EA030404F0004B21F0004514464FF03E
:10022000000A23F0004150EA050220D054EA0102FE
:100230001DD0C5F30A570246C5F31303C1F31300DB
:10024000C1F30A5640F4801543F48013A7EB060867
:10025000101BD64608F2FD3873EB050002D308F1F7
:10026000010801E092185B41B8F1000F03DA0020A9
:100270000146BDE8F08D00204FF48011064684460B
:100280000EE0171B73EB050705D3121B63EB050389
:1002900006434CEA010C49084FEA300092185B41D2
:1002A00050EA0107EDD152EA030012D082EA0400BD
:1002B00083EA0501084305D0101BAB4106D2012299
:1002C000002306E000224FF0004302E06FF001023D
:1002D00053101AEB06004CEB085110EB0A0041EBEF
:1002E0000B01BDE8F04D00F0BAB80EB540F2334155
:1002F00002910021CDE900110A460B4600F0BEF83C
:1003000003B000BD00F0004230F000400AD0C10D43
:1003100001F56071C0F3160042EA0151C2084007BE
:100320001143704700200146704701F0004330B48C
:1003300021F0004150EA010206D00A0DA2F56072D8
:10034000C1F31301002A02DC30BC00207047440FC7
:1003500044EAC104C100E01830BC00EBC25000F018
:1003600047B830B50B46014600202022012409E0A1
:1003700021FA02F59D4205D303FA02F5491B04FA5E
:1003800002F52844151EA2F10102F1DC30BD2DE971
:10039000F05F0546002092469B4688460646814609
:1003A00040241BE0284641464746224600F0ADF96E
:1003B00053465A46C01A914110D311461846224658
:1003C00000F094F92D1A67EB01084F4622460120F0
:1003D000002100F08BF917EB00094E41201EA4F11B
:1003E0000104DFDC484631462A464346BDE8F09F1B
:1003F0000029A8BF7047401C490008BF20F0010039
:10040000704710B4B0FA80FC00FA0CF050EA010416
:1004100004BF10BC704749B1CCF1200421FA04F4A8
:1004200011FA0CF118BF012121430843A3EB0C0181
:10043000CB1D4FEA00614FEA102042BF002010BCE4
:10044000704700EBC35010440029A4BF10BC704794
:10045000401C490008BF20F0010010BC704710B5D7
:10046000141E73F1000408DA401C41F100019218D7
:100470005B411A4301D120F0010010BD2DE9F04D80
:1004800092469B4611B1B1FA81F202E0B0FA80F2D5
:100490002032904600F02AF904460F4640EA0A004E
:1004A00041EA0B0153465A46084313D0114653EA1A
:1004B000010019D0C8F14002504600F026F9054667
:1004C0000E4650465946424600F010F9084305D002
:1004D000012004E020463946BDE8F08D00200543A8
:1004E00046EAE0762C4337430A986305E40AA0EB1A
:1004F00008000022FD0A44EA47540A3002D50020D1
:100500000146E9E7010510196941DDE908450019CF
:100510006941BDE8F04DA2E72DE9FE4F804681EA32
:100520000300C00F0C46009021F0004123F000456D
:10053000B8EB0200A94105D24046214690461C4630
:100540000B46024623F00040104347D0270DC7F367
:100550000A00C3F30A510290401A019040286BDA56
:10056000C3F3130040F4801B0098924620B100238F
:10057000D2EB030A63EB0B0B01985946C0F1400222
:10058000504600F0B3F806460D4650465946019ACB
:1005900000F0CBF810EB08006141002487EA11520B
:1005A00084EAE7731A4340D0009A62B3019A012AA1
:1005B0004FEA075215DC001B61EB02014FF00042CD
:1005C00002EA0752CDE90042001C41F58011324693
:1005D0002B46FFF753FF03B0BDE8F08F404621469E
:1005E000F9E7001B61EB0201001C41F580130018C4
:1005F0005B412018A2F5001747EB030140EAD570D4
:10060000B6196D4111E06D084FEA360645EAC0752E
:100610004FEA0752001B61EB0201001C41F58011FB
:1006200049084FEA30000019514132462B4603B0C9
:10063000BDE8F04FFFF713BF0098012240000023F0
:10064000D0EB020263EBE073009821464FEAE074BE
:10065000B8EB000061EB0401E9E783F000435BE7DE
:1006600081F0004158E7C1F30A52C1F3130140F28F
:10067000FF3341F480119A4202DA002001467047AC
:1006800040F233439A42A2F2334202DC524200F07B
:100690003CB800F02BB8000030B5041E71F1000426
:1006A00004DB4FF00044404264EB0101141E73F17F
:1006B000000405DB1C464FF00043524263EB040389
:1006C000994208BF904230BD064C074D06E0E068F5
:1006D00040F0010394E8070098471034AC42F6D389
:1006E000FFF708FD0418000824180008202A04DB7E
:1006F000203A00FA02F1002070479140C2F1200335
:1007000020FA03F3194390407047202A04DB203A73
:1007100021FA02F00021704721FA02F3D040C2F121
:1007200020029140084319467047202A06DBCB1768
:10073000203A41FA02F043EAE07306E041FA02F39C
:10074000D040C2F120029140084319467047000092
:100750002DE9F041164D4FF48056002431462846CD
:1007600000F0CCF82F153946284600F0C0F80028D4
:10077000F9D1FC2000F0EEF9002000F0EBF90120A7
:1007800000F0E8F9FF2000F0E5F944EA0044FF201A
:1007900000F0E0F944EA0024FF2000F0DBF9044314
:1007A0003146284600F0ACF82046BDE8F081000054
:1007B000000C01402DE9F041104D884604464FF4ED
:1007C00080563146284600F099F82F1539462846BC
:1007D00000F08DF80028F9D104F00F0040F050002F
:1007E00000F0B8F9002000F0B5F9404600F0B2F989
:1007F00031462846BDE8F04100F082B8000C0140C7
:1008000010B506210020FFF7D5FF00210220FFF7D9
:10081000D1FF82210320FFF7CDFF0021BDE810406A
:100820000420FFF7C7BF10B501460120FFF7C2FF44
:10083000BDE81040FFF78CBFFEE7704701B5009898
:1008400001E0401E00900028FBD108BDF0B5CA7839
:10085000002502F00F03D20601D58A7813430A78E7
:100860004FF00F0E12F0FF0F4FF001021CD0046882
:100870000F8802FA05F63740B74211D14FEA850CCE
:100880000EFA0CF724EA070703FA0CF43C43CF787E
:10089000282F02D0482F02D002E0466100E0066116
:1008A0006D1C082DE4D304600C88FF2C1ED944680D
:1008B0005FF0000606F1080702FA07F50F882F40DF
:1008C000AF420FD14FEA860C0EFA0CF7BC4303FA85
:1008D0000CF73C43CF78282F00D14561CF78482FC3
:1008E00000D10561761C082EE4D34460F0BD0246B9
:1008F000002092680A4200D0012070474161704791
:1009000001617047FEE70000F8B50121082000F002
:1009100049F84FF40064ADF8004010208DF8030052
:100920000D4E03258DF8025069463046FFF78EFFC5
:1009300021463046FFF7E2FF6010ADF80000482086
:100940008DF803008DF8025069463046FFF77EFFB0
:1009500000F07CF8F8BD0000000C01401FB54FF41A
:10096000E13000900020ADF80400ADF80600ADF8CD
:100970000800ADF80C000C20ADF80A006946002014
:1009800000F002F91FBDFEE770477047044A0029D6
:10099000D16901D0014300E08143D161704700007B
:1009A00000100240044A0029916901D0014300E08F
:1009B00081439161704700000010024030B51F492B
:1009C0004A6812F00C031E4A03D0042B01D0082BF6
:1009D00021D002604A680F231A4C03EA1212A35C6A
:1009E0000268DA4042604B68072505EA1323E35C9E
:1009F00022FA03F383604B6805EAD323E35CDA4011
:100A0000C2604968032303EA9131231F595CB2FB9A
:100A1000F1F1016130BD4A684B6802F470124FF089
:100A2000020413F4803F04EB924202D04B689B0314
:100A300001D5054B00E0024B5A43CAE700100240C3
:100A400000127A000400002000093D0070B586B055
:100A500001210820FFF7A6FF01218803FFF796FF79
:100A60004FF46040ADF8140003248DF816401820B0
:100A70001D4E8DF8170005A93046FFF7E7FEB514A7
:100A8000ADF814508DF8164010208DF8170005A908
:100A90003046FFF7DBFE29463046FFF731FF0020E6
:100AA000ADF800004FF48271ADF802100121ADF8ED
:100AB00008104902ADF80A103821ADF80C10ADF855
:100AC0000400ADF80600ADF80E000720074CADF8A5
:100AD00010006946204600F020F80121204600F071
:100AE00007F806B070BD0000000C0140003800405F
:100AF0000029018802D041F0400101E021F04001CD
:100B0000018070470246002012890A4200D001206D
:100B10007047808970478181704730B502884C8862
:100B200002F441530A88CD8822438C882C43224307
:100B30000C8922434C8922438C892243CC8922434D
:100B40001A430280828B22F400628283098A018226
:100B500030BD000070B50B4C054602212046FFF762
:100B6000D1FF0028F9D029462046FFF7D4FF012104
:100B70002046FFF7C7FF0028F9D02046FFF7C9FF3E
:100B8000C0B270BD00380040F8B50E460446254995
:100B90002448083150F8240051F82410084340F04C
:100BA00001000121FFF7FEFE1E4808389CB350F8F3
:100BB00024000121FFF7EAFE18208DF803001948F0
:100BC0006946183830F81400ADF8000003208DF89D
:100BD0000200154850F82400FFF738FE04208DF875
:100BE000030010486946143830F81400ADF80000CE
:100BF0000D48083050F82400FFF728FE0A4D314612
:100C0000083D55F8240000F09BF855F82400012118
:100C100000F084F8F8BDFFE700680121FFF7C2FE8D
:100C2000CAE70000741700081C000020704700008D
:100C30000CB50021264801910091026842F48032EF
:100C400002604FF4A063026802F400320092019A3D
:100C5000521C0192009A12B9019A9A42F3D1026889
:100C6000920333D5012100911A490A6842F010021B
:100C70000A600A6822F003020A600A6842F002026F
:100C80000A604168416041684160416841F48061A7
:100C90004160416821F47C114160416841F4E811F0
:100CA0004160016841F08071016001688901FCD5F3
:100CB000416821F003014160416841F00201416057
:100CC0004168C1F381010229FAD10CBD00910CBD2C
:100CD0000010024000200240704700000C480168EC
:100CE00041F00101016041680A4A11404160016818
:100CF000094A11400160016821F4802101604168C6
:100D000021F4FE0141604FF41F018160FFF790BFA5
:100D1000001002400000FFF8FFFFF6FE0029818965
:100D200002D041F4005101E021F40051818170476B
:100D30000246002012880A4200D0012070470000BD
:100D400030B50446008A85B00D464CF6FF71084068
:100D5000E98801432182A1894EF6F3100140A88859
:100D60002A8910436A890A431043A081A08A4FF65A
:100D7000FF410840A9890143A1826846FFF71EFE92
:100D80001948844201D1039800E00298A18909041E
:100D900000EBC00101EB0010296801D5490000E01B
:100DA0008900B0FBF1F06422B0FBF2F109010B09FC
:100DB0006FF018056B4300EB8300A3891D044FF00F
:100DC000320306D503EBC000B0FBF2F000F00700E1
:100DD00005E003EB0010B0FBF2F000F00F00084359
:100DE000208105B030BD000000380140C1F308018A
:100DF00081807047FEE700000FB4054B10B503A9D2
:100E0000044A029800F0DAF810BC5DF814FB000008
:100E1000C51600085C00002002E008C8121F08C1C7
:100E2000002AFAD170477047002001E001C1121F6B
:100E3000002AFBD1704700002DE9FF5F82B000213E
:100E4000DDE90430020DDDF840B0034318D044F66C
:100E50001050A2F2FF3242431514119801281FD0FE
:100E6000A5EB0B00401C5FEA000A4FF000064E4F56
:100E7000DFF83891B046504615D5CAF1000413E0AA
:100E8000119801244AA3012801D16FEA0B010298AD
:100E9000119AC0E90031C0E9024206B0BDE8F09FF6
:100EA000CBF10000DFE704460021404A491842EB3D
:100EB0000450CDE9001012E0E00707D032463B466F
:100EC00040464946FFF730F98046894632463B4660
:100ED00010461946FFF728F906460F466410002C05
:100EE000EAD1DDE90401DDE90023BAF1000F06DAF9
:100EF000FFF71AF942464B46FFF716F905E0FFF7F0
:100F000085F942464B46FFF781F904460E4600221A
:100F1000284BFFF7C1FB03D84FF0FF30014607E035
:100F20000022254B20463146FFF7F6FAFFF79BFBE0
:100F3000102409E0002C0ADB0A220023FFF727FA1D
:100F4000039B30321A55641E50EA0102F2D1641C30
:100F5000039AC4F111031444119A012A03D0012207
:100F600008430DD10AE0084304D000204FF0110BD4
:100F7000119072E7A3EB0B056D1E0DE05B4504DDE0
:100F80004FF0000205F1010504E003DA4FF0000222
:100F9000A5F10105002AECD002981199C0E90231AF
:100FA000C0E9004579E70000000014400000F03F70
:100FB000300000000000F0430000E03F2DE9FF4F4B
:100FC00095B09A46884606460025EEE1252877D159
:100FD00000242746F94A0121039400E0044316F84F
:100FE000013F203B01FA03F01042F7D130782A2864
:100FF00011D06FF02F033078A0F13002092A16D8F3
:10100000039A44F0020402EB820203EB4202104412
:10101000761C0390EFE758F8042B0392002A03DABA
:10102000504244F40054039044F00204761C30789B
:101030002E2816D116F8010F44F004042A280DD0EA
:101040006FF02F023078A0F13003092B09D807EB9D
:10105000870302EB4303C718761CF3E758F8047BB9
:10106000761C30786C280FD006DC4C2817D0682806
:101070000DD06A2814D104E0742810D07A280FD13A
:101080000DE044F400140AE044F4801401E044F458
:1010900040147278824202D104F58014761C761CCA
:1010A000307866280BD013DC582877D009DC00286C
:1010B00075D04528F6D04628F4D047281AD193E1B8
:1010C00018E0632835D0642879D0652812D18BE1E7
:1010D000702873D008DC6728F1D069286FD06E289B
:1010E0000DD06F2806D1ACE073282CD0752874D0B1
:1010F000782853D05246179990476D1C54E1C4F399
:101100000250022809D003280DD0D8F80010042876
:101110000DD00D6008F1040846E1D8F80010EA1778
:10112000C1E90052F6E7D8F800100D80F2E70D7023
:10113000F0E718F8041B8DF8001000208DF801006E
:10114000EB46012003E058F804BB4FF0FF30610785
:101150004FF0000102D40DE009F101018946B942C6
:101160000FDA8145F8DB1BF809100029F4D108E0FB
:1011700009F1010189468142FADB1BF809100029B7
:10118000F6D103985346A0EB090721463846179A33
:1011900000F080FA284400EB090507E044E008E18C
:1011A0000DE01BF8010B524617999047B9F1010960
:1011B000F7D2534621463846179AF2E039E00A2121
:1011C000C4F302524FF0000B0091022A06D058F8E7
:1011D000040BC117032A09D00AE023E008F1070035
:1011E00020F00702F2E80201904605E000B2C117C4
:1011F000042A01D140B2C117002906DA0A460021AB
:10120000404261EB02012D2202E0220504D52B228F
:101210008DF80420012203E0E20701D02022F7E745
:10122000914657E00A2100E010214FF0000B009199
:101230000BE010214FF0000B44F00404082700914C
:1012400003E008204FF0000B0090C4F30252022A82
:1012500005D058F8040B0021032A08D008E008F153
:10126000070020F00702F2E80201904603E080B296
:10127000042A00D1C0B24FF0000922072AD53278E3
:10128000702A07D0DDF800C08CF0100C5CEA0B0C63
:1012900005D00EE040228DF80420012208E050EA3B
:1012A000010306D030238DF804308DF8052002228A
:1012B0009146009B83F0080353EA0B030AD150EADE
:1012C000010201D1620705D530228DF804204FF0CC
:1012D00001097F1E3278582A04D039A20C920CAA38
:1012E00002920BE03BA2F9E75B46009AFFF74FF84A
:1012F0000C9B9B5C029A521E0292137050EA0102F0
:10130000F2D1029804A9081A00F1200B600702D557
:1013100024F4803400E001275F4502DDA7EB0B00D9
:1013200000E0002000EB0B01009003984944401AB4
:101330000390E00306D453462146179A039800F021
:10134000A9F90544002706E001A85246C05D179997
:1013500090476D1C7F1C4F45F6DBE0030CD55346D0
:101360002146179A039800F095F9054404E03020CF
:101370005246179990476D1C0099481E009000290D
:10138000F5DC08E00298029952460078491C029167
:10139000179990476D1CBBF10001ABF1010BF1DC1B
:1013A0005BE100F065F90544761C307800287FF495
:1013B0000DAE19B02846BDE8F08F000009280100E5
:1013C00030313233343536373839616263646566BB
:1013D000000000003031323334353637383941427D
:1013E0004344454600000000600700D4062708F18A
:1013F000070020F00700F0E80223804603F0004CCD
:101400005FEA0C0001D097A009E0200501D596A065
:1014100005E0E00701D095A001E0AFF24C00139089
:10142000307823F0004365280CD006DC452809D02D
:1014300046281DD047287FD13BE0662818D0672872
:101440007AD136E00021112F01DB112000E0781C59
:10145000CDE9000104A90CA8FFF7EEFCDDE90D01C0
:101460000C9A4FF0000B07F10109109200914EE029
:101470004FF000400097CDE9011004A90CA8FFF738
:10148000DBFCDDE90D020C9B0F994FF0000B914640
:101490001093009211B9791C00EB0109B7EB090018
:1014A00003D4C0F1FF3B07F10109A9EB070001904C
:1014B00042E0012F00DA01270021112F01DD112068
:1014C00000E03846CDE9000104A90CA8FFF7B4FC00
:1014D000DDE90D010C9A00914FF0000BB946109216
:1014E00021070FD4009A4A4503DA914601E0A9F199
:1014F0000109B9F1010F05DD109AA9F10101515C53
:101500003029F4D0B84202DA10F1040F03DA0121D5
:10151000CDE9011010E0002803DC8344A9EB0001B1
:1015200002E0411C494500DD8946A0EB0B00401C50
:1015300001904FF000400290200705D401984845E3
:1015400002DB4FF0FF30019000208DF84B00029835
:101550000DF14B07B0F1004F25D002200C902B204D
:101560000D90029800280CDA404202902D200D9038
:1015700007E00A210298FEF7F4FE3031029007F8E6
:10158000011D0C99481E0C900029F2DC02980028DD
:10159000EFD1791E0D980870307800F0200040F0EF
:1015A000450007F8020D11A8C01BC01D029013983A
:1015B000007800B1012000EB0901019801EBE07116
:1015C000029801440398401A401E0390E00306D499
:1015D00053462146179A039800F05CF80544139887
:1015E000007818B15246179990476D1CE00323D537
:1015F00053462146179A039800F04CF805441BE027
:10160000BBF1000F07DB0098584504DD10981799CF
:1016100010F80B0001E017993020524690470198CE
:101620000BF1010B401E05F10105019004D12E20A4
:101630005246179990476D1CB9F10001A9F10109B3
:10164000DEDC05E017F8010B5246179990476D1C38
:101650000299481E02900029F4DC53462146179A4D
:1016600003989EE62D0000002B00000020000000E3
:101670002DE9F041044600251E461746880404D48F
:1016800005E039462020B0476D1C641EF9D5284678
:10169000BDE8F0812DE9F041044600251E46904644
:1016A000C80301D5302700E02027880404D505E0D1
:1016B00041463846B0476D1C641EF9D52846BDE842
:1016C000F081000070B5074D0446C1B22846FFF70F
:1016D0008DFB40212846FFF72BFB0028F9D0204640
:1016E00070BD000000380140FFF738F9FFF70CF932
:1016F0001448FFF7A3F84FF400611348FFF700F90F
:10170000FFF77EF8114C124D0820FFF78CF801020C
:1017100004D5C043C0F31600401C4042FEF7E5FD6F
:1017200000222346FEF700FD00222B46FEF76EFD49
:10173000FEF7FBFDFEF7E6FD02460B4605A0FFF7B0
:101740005BFBE1E7FFFF0100000C0140D012E33F2B
:1017500080842E417B252E34667D0A000002040021
:10176000000408004000800000010002004000006A
:10177000000002000400000004000000040000005B
:1017800004000000800000008000000080000000D5
:1017900080000000010000200001002000400080C7
:1017A000080080000400000010000000000100009C
:1017B0000001000000010000000100002000000006
:1017C0000001000001000020000100200040008016
:1017D0000800800000000200060006000600060067
:1017E0000300060000000D0008000D000E000F00B1
:1017F0000300070006002800170028002800280022
:1018000009001700241800080000002060000000F4
:10181000180E000884180008600000200004000072
:10182000280E00080204060800000000010203045C
:101830000102030406070809003801400044004083
:101840000008014000080140000801400008014074
:10185000001C0140001C0140001C0140001C014014
:10186000000801400010014000200140002001401C
:1018700000200140002001400014014000200140F0
:041880000000000064
:04000005080000ED02
:00000001FF
