:020000040800F2
:100000009839002069010008F90400084904000833
:10001000F704000841020008390800080000000049
:100020000000000000000000000000007F06000843
:1000300029040008000000001B05000881060008D4
:100040008301000883010008830100088301000880
:100050008301000883010008830100088301000870
:100060008301000883010008830100087D03000864
:10007000A903000883010008D50300080104000853
:100080008301000883010008830100088301000840
:100090008301000883010008830100088301000830
:1000A0008301000883010008830100088301000820
:1000B00083010008D50600084507000883010008F1
:1000C0008301000883010008830100088301000800
:1000D000830100086907000883010008D1070008B0
:1000E00083010008830100088301000883010008E0
:1000F000830100088301000883010008000000005C
:10010000830100080000000083010008830100084B
:1001100083010008830100088301000883010008AF
:10012000830100088301000883010008830100089F
:1001300083010008000000000000000083010008A7
:10014000830100088301000883010008830100087F
:10015000DFF810D000F03EF8004800472D120008EC
:10016000AFF30080983900200648804706480047D2
:10017000FEE7FEE7FEE7FEE7FEE7FEE7FEE7FEE757
:10018000FEE7FEE7850600085101000840EA01038A
:100190009B0703D009E008C9121F08C0042AFAD23D
:1001A00003E011F8013B00F8013B521EF9D2704701
:1001B000D2B201E000F8012B491EFBD270470022A9
:1001C000F6E710B513460A4604461946FFF7F0FF56
:1001D000204610BD064C074D06E0E06840F00103E4
:1001E00094E8070098471034AC42F6D3FFF7B4FF09
:1001F000101A0008301A000810B540F2046001F02F
:10020000E5F940230422BDE810401146014800F002
:1002100089BF00000010014070B50C460546402122
:10022000064800F0CFFF002806D122462946BDE847
:100230007040022001F086BB70BD0000001001403C
:10024000FEE7034610B50020024603E09C5C521C0A
:10025000204480B28A42F9DB10BD000070B590B036
:100260000446202211496846FFF790FF0F492022DB
:10027000203108A8FFF78AFF0D4D0E4E102C4FF0CD
:10028000000106D2284600F0CFFF3DF8141030469A
:1002900008E0304600F0C8FF08A800EB440030F842
:1002A000201C284600F0C0FF10B070BDD019000817
:1002B000001801400014014070B50446104DC007FD
:1002C0004FF40041284602D000F0F4FE01E000F0B7
:1002D000EFFEA0074FF48041284602D500F0EAFE69
:1002E00001E000F0E5FE60074FF40051284603D519
:1002F000BDE8704000F0DEBEBDE8704000F0D8BE42
:100300000010014070B5C160054600261446104635
:10031000314600F0E1F8084307D14FF00040844235
:1003200002D2204600F097F90446AE60C5E90046C7
:10033000204670BD2DE9F04104460F46D4E9011076
:100340000B1A2068C51A954200D31546421E11406B
:10035000461AAE4200D32E46E0683246084439467B
:10036000FFF714FFAA1BB919E068FFF70FFF6068D9
:10037000284460602846BDE8F081000010B5094CB3
:1003800002220021204600F0CCFD002808D00122E6
:100390000021204600F0BFFDBDE8104001F040B94B
:1003A00010BD00000000024010B5084C02220121DF
:1003B000204600F0B6FD002807D001221146204655
:1003C00000F0A9FD02490120087010BD00000240A4
:1003D0001C00002010B5084C02220321204600F02A
:1003E000A0FD002807D001220321204600F093FD44
:1003F00002490120487010BD000002401C0000208E
:1004000010B5084C02220421204600F08AFD002885
:1004100006D020460122BDE81040042100F07BBD3B
:1004200010BD0000000002407047000010B50446F7
:1004300001F0F6F8082C03D2024830F8140010BD81
:10044000002010BDE8280020FEE7000010B540F2B3
:10045000036001F0BBF840F2046001F0B7F840F22D
:10046000056001F0B3F840F2066001F0AFF84FF418
:10047000C06001F0ABF80121124800F0A9FE4FF670
:10048000FF742346032210210F4800F04BFE234641
:10049000032210210D4800F045FE0D4C04230322D9
:1004A0001021204600F03EFE4FF46043032210214D
:1004B000084800F037FE2046BDE81040042100F057
:1004C000F7BD000000023000001401400018014098
:1004D000000C01400010014050EA010206D0431E0A
:1004E00041F1FF3203400A40134302D00020C117FC
:1004F00070470120FBE7FEE770470907090E002857
:1005000006DA00F00F0000F1E02080F8141D7047BB
:1005100000F1E02080F8001470477047F0B4142612
:100520004FF48053002200EB4204002104F5805474
:1005300000EBC115278835F81250491C3D44C9B25B
:1005400025802029F4D3521CD2B2402AEBD30021BB
:10055000002200EBC21535F81140B44218D900EB67
:10056000410C0CF5805C04FB03F7BCF800C005EB04
:100570004105ACEB04041C1B97FBF4F40F4F1C1B50
:1005800097FBF4F405F58055F23CA5F8804006E0B1
:1005900005EB410404F580540027A4F88070521C38
:1005A000D2B2202AD5D3491CC9B24029D0D3F0BC3D
:1005B000802100F58050FFF702BE000040420F008E
:1005C0002DE9F0418046002641F25867F0B2FFF76E
:1005D00073FE0025A8B2FFF741FE3846401EFDD24B
:1005E0000620FFF723FF410808EBC514072024F875
:1005F0001610FFF71BFF04EB46044008208204207E
:10060000FFF714FF400820840520FFF70FFF400884
:1006100020860320FFF70AFF4008A4F840000220CC
:10062000FFF704FF4008A4F850000120FFF7FEFE8A
:100630004008A4F860000020FFF7F8FE40086D1C99
:100640006DB2A4F87000202DC4DB761C76B2082EA3
:10065000BCDBBDE8F08130B5044601250021FFF781
:100660003BFF084309D144B1E807844204D264083F
:100670004FEA4505FBD1680830BD204630BD7047C4
:1006800000F070BA104810B5016841F470010160C3
:100690000E48016841F00101016000214160C16222
:1006A00001680B4A114001604FF47F0181600168CD
:1006B00021F48021016000F0CFFFBDE8104000214F
:1006C0004FF0006000F0A8BE88ED00E0001002408E
:1006D000FFFFF6EA70B5184D0221284601F048F8F0
:1006E000012827D10221284601F03FF8134CA088A9
:1006F00068B1A08801281DD10021284601F024F806
:1007000080B260802188884208D9401A0AE000211E
:10071000284601F019F8208001200AE04FF6FF7208
:10072000511A0844A060A0680549B1FBF0F0E080D0
:100730000020A08070BD0000000400400C000020DC
:1007400040420F0010B5074C0121204601F010F87F
:10075000012805D12046BDE81040012101F005B86F
:1007600010BD00000008004010B5164C144920468A
:1007700001F00AF9002821D02068201D0068124CE1
:100780000421204600F0F0FA0421204600F036FC57
:100790000E49C0F5007201F58060FFF7CBFD042122
:1007A000204600F0E1FA62150421204600F017FC13
:1007B0002046BDE81040042100F0E6BA10BD00005C
:1007C000040304000038014000000240783100209A
:1007D00010B5164C1449204601F0D6F8002821D057
:1007E0002068201D0068124C0221204600F0BCFA4F
:1007F0000221204600F002FC0E49C0F5007201F50E
:100800000470FFF797FD0221204600F0ADFA621553
:100810000221204600F0E3FB2046BDE81040022103
:1008200000F0B2BA10BD000004030400004800400C
:100830000000024078330020FEE702E008C8121FE3
:1008400008C1002AFAD170477047002001E001C1B9
:10085000121F002AFBD17047816841F008018160B6
:1008600081680907FCD4816841F0040181608168D6
:100870004907FCD470471205A2F5801201290BD05C
:10088000022908D1816B21F44011816302F44011E7
:10089000826B114381637047C16A21F47001C162A8
:1008A00002F47001C26A1143C162704710B5334C43
:1008B000204600F06FF8002000F0CAF80122022163
:1008C000204600F01DF901221102204600F018F91F
:1008D0000021204600F054F8082201212046FFF7AD
:1008E000CAFF002205231146204600F0BDF8012270
:1008F00005231146204600F0B7F8022205231146D1
:10090000204600F0B1F8032205231146204600F0EE
:10091000ABF8042205231146204600F0A5F8052374
:100920001A461946204600F09FF806220523114674
:10093000204600F099F8072205231146204600F0D2
:1009400093F84FF460220121204600F063F8012261
:100950001146204600F043F8204600F038F86420A5
:1009600000F0F8F82046FFF777FF204600F02AF85D
:100970002046BDE81040012100F0B5B80024014038
:100980000029816802D041F4006101E021F4006196
:10099000816070470A4910B540180CD0B0F5806FDF
:1009A0000CD140F20A34204600F02CFE2046BDE86F
:1009B000104000F019BE40F20934F4E710BD000009
:1009C00000DCFEBF816841F48071816070478168FE
:1009D000C90703D1816841F0010181607047002A95
:1009E0004FEAC1720AD01AB1826842F48012826062
:1009F00089070ED5816841F4004109E01AB1826887
:100A000022F480128260890703D5816821F40041B5
:100A100081607047012909D0022906D1816821F43B
:100A2000E04181608168114381607047816821F4F1
:100A30006021F6E710B500F0B7FD00F065FE00F0AC
:100A40003BFB00F0D1F9BDE81040FFF72FBF0000DD
:100A500004490A6822F470220A600A6802430A60A4
:100A6000704700000424014030B51F24062909D234
:100A7000456B01EB81018C40A54302FA01F42C4344
:100A8000446318E00C290AD2056B891F01EB810130
:100A90008C40A54302FA01F42C4304630BE01029B7
:100AA00009D2C56A0C3901EB81018C40A54302FAD9
:100AB00001F42C43C46207250A2A08D2046902EB18
:100AC00042018D40AC438B402343036130BD122A69
:100AD000FCD2C4680A3A02EB42018D40AC438B4021
:100AE0002343C36030BDCA0703D0826842F480024A
:100AF0008260890703D5816841F4001181607047E5
:100B0000002A4FEAC15211D0002A03DA426842F4A7
:100B1000807242604A0503D5426842F480624260B6
:100B2000890715D5816841F0020110E0002A03DA37
:100B3000426822F4807242604A0503D5426822F47A
:100B400080624260890703D5816821F002018160DB
:100B5000704700000249086008680028FCD170470F
:100B60000800002003480168002902D00168491EDE
:100B7000016070470800002010B588B04FF4A060F5
:100B800000F024FD184C0121204600F05DF9684674
:100B900000F018FA01218DF81A10144802908DF80F
:100BA000191000216015CDE90310114800908DF84F
:100BB0001810019105916A460121204600F05FF965
:100BC0000121204600F0F0F80121204600F0DDF977
:100BD00002220121204600F08EF90121204600F07A
:100BE000C3F808B010BD000000000240782F0020BC
:100BF0000448004010B588B01C216846FFF7DFFAB2
:100C00004FF4A06000F0E2FC174C0221204600F0F7
:100C10001BF9684600F0D6F91448002102908DF8BF
:100C20001A1001208DF819004002CDE90310104878
:100C300000908DF8181005916A460221204600F0B8
:100C40001EF90221204600F0AFF80221204600F0F4
:100C50009CF907484021001F00F06EFE022120464B
:100C600000F092F808B010BD000002407833002078
:100C70000448004010B588B04FF4A06000F0A6FC16
:100C8000184C0321204600F0DFF8684600F09AF97E
:100C900001218DF81A10144802908DF819100021C6
:100CA0006015CDE90310114800908DF818100191DE
:100CB00005916A460321204600F0E1F80321204611
:100CC00000F072F80321204600F05FF902220321B0
:100CD000204600F010F90321204600F045F808B046
:100CE00010BD000000000240782B002004380140B5
:100CF00010B588B04FF4A06000F068FC174C0421D8
:100D0000204600F0A1F8684600F05CF91448002184
:100D100002908DF81A1001208DF819004002CDE9DB
:100D20000310104800908DF8181005916A460421B0
:100D3000204600F0A4F80421204600F035F80421F4
:100D4000204600F022F907484021001F00F0F4FD82
:100D50000421204600F018F808B010BD0000024041
:100D6000783100200438014070B50C46054600F08B
:100D70001DF940B104EB840005EB8000816821F08F
:100D80000101816070BDFEE770B50C46054600F0BC
:100D90000DF940B104EB840005EB8000816841F05F
:100DA0000101816070BDFEE770B50C46054600F09C
:100DB000FDF840B104EB840005EB8000816821F070
:100DC0002001816070BDFEE770B50C46054600F05D
:100DD000EDF840B104EB840005EB8000816841F040
:100DE0002001816070BDFEE710B5144C88B0002171
:100DF000204600F029F81248002100908DF81810C4
:100E000001208DF81900000201908000039040201D
:100E100004900C4AC001029205908DF81A106A469F
:100E2000204600F02CF800212046FFF7CDFF0021DE
:100E30002046FFF7A9FF08B010BD000000000240E7
:100E40004C240140F828002070B50D46044600F0FF
:100E5000ADF898B105EB850004EB8002906820F0B6
:100E60000100906000209060D06010615061606867
:100E7000AA000F2191400843606070BDFEE770B585
:100E800014460D46064600F091F850B305EB850078
:100E900006EB800021680161A1684161218A89B265
:100EA000C1608168E36821F47C5261681943636919
:100EB000134319438160217E0129816812D021F0FA
:100EC00040018160617E012981680ED021F080019E
:100ED0008160A17E002981680AD041F01001816003
:100EE00070BDFEE741F04001EBE741F08001EFE724
:100EF00021F01001F3E770B515460C46064600F0E8
:100F000055F838B104EB840006EB80008168294372
:100F1000816070BDFEE7436889008A4013434360E7
:100F2000704710B58C001346A24001EB810100EB25
:100F30008101022B04D0042B08D0082B0CD0FEE733
:100F400000688968104001F002010AE000688968C1
:100F5000104001F0040104E000688968104001F0CD
:100F6000080110B109B1012010BD002010BD70B5FD
:100F700015460C46064600F019F828B104EB84002B
:100F800006EB8000456170BDFEE770B50C46054676
:100F900000F00CF840B104EB840005EB80008168A0
:100FA00021F48041816070BDFEE700000246044BE1
:100FB00001209A4202D1042900D900207047000084
:100FC0000004024050B1002101604160017681605F
:100FD000C16041760161817641617047FEE770B57D
:100FE00015460C460646FFF7E1FF30B104EB8401DD
:100FF00006EB8101A8B2C86070BDFEE770B50C4673
:101000000546FFF7D3FF28B104EB840005EB800011
:10101000C06870BDFEE700002DE9F041054621489B
:1010200000240F46854203D01F48854200D1022488
:101030001E4830F8140000F0C9FA1C48083830F88F
:10104000140000F0C3FA194803220A3000F1200608
:1010500050F8243056F82400182100F063F8A6F167
:101060001000032250F8243056F82400042100F028
:1010700059F8284600F034FC3946284600F006FCB2
:101080000421284600F098FC0821284600F09AFC2C
:10109000284600F06AFC2846BDE8F0414FF4417153
:1010A00000F068BC003801400048004026000020E5
:1010B000416170470161704710B5194C012304224A
:1010C0000021204600F02EF80223042200212046B1
:1010D00000F028F804231A460021204600F022F8E8
:1010E000082304220021204600F01CF810230422CB
:1010F0000021204600F016F820230422002120467B
:1011000000F010F8402304220021204600F00AF8E5
:10111000204680230422BDE81040002100F002B8E0
:10112000000801402DE9F04301F00F04CD0602D57F
:10113000042A18D0144300224FF00F094FF0010881
:1011400008FA02F51D4019D00768960009FA06FC56
:1011500027EA0C0704FA06FC4CEA070C282908D0F9
:10116000482908D008E0C26B44F003041A43C26364
:10117000E1E7456100E00561C0F800C0521C92B291
:10118000082ADDD3082208FA02F51D4014D047686A
:101190009600203E09FA06FC27EA0C0704FA06FC32
:1011A0004CEA070C282902D0482902D002E0456108
:1011B00000E00561C0F804C0521C92B2102AE2D3CC
:1011C000BDE8F0838068084000D00120704700002F
:1011D000F0B5144C002801DAE36900E06368450DBE
:1011E0002E0185B2C0F30157B540C0F30342032F6F
:1011F00005D0C6020AD503269640B34307E023F084
:10120000E062636823F0E063636002E0AB4343F0B5
:10121000E06201B12A43002801DAE261F0BD6260B8
:10122000F0BD000000000140C160704700F06CFAA2
:10123000FFF700FCFFF70AF9FEF7DEFF4FF4E124A9
:10124000204600F0C7FA204600F006FB324F334D2F
:101250004FF4FA794FF00F0A4FF0170B40F60606DD
:101260007868401CB0FBF9F2786009FB120060B9A5
:1012700038784FF0040190F001003870284802D00F
:10128000FFF718FF01E0FFF713FF7968B1FBFAF2EF
:101290000AFB121010B92348FFF792F97968B1FBE5
:1012A000FBF20BFB121098BB45F6A520288001200D
:1012B000A870A5F80360687100241A48FFF72EF99A
:1012C000DFF860C0002100200CEBC11808EB4002E1
:1012D00002F580522B19401C92F88020C0B2641C89
:1012E0009A714028F2D3491CC9B22029EBD3314668
:1012F0000A48FEF7A6FFA5F8060840F608042246AD
:101300000649002000F01EFB21460448FEF784FF3A
:101310000120FFF71FFCA3E700000020E0200020D1
:10132000000C014060000020134910B5401810D097
:10133000B0F5704F1ED1012200210E2000F01EF8E2
:10134000002211460F2000F019F801221146252035
:101350000CE0002211460D2000F010F801220021BF
:101360000C2000F00BF8012200212720BDE81040DE
:1013700000F004B810BD000000B8FFBFF0B506468D
:101380001F4800240F460068234600F4E0654FF430
:10139000A06085420FD006DCB5F5407F16D0B5F5CC
:1013A000806F06D10FE0B5F5C06F09D0B5F5E06FDD
:1013B00004D000F027F80224234608E0042306E0C6
:1013C0000124032303E00324012300E00424C4F1E7
:1013D00004008740C3F104010F20C8401040384387
:1013E00006F1E021000181F8000406F01F01012050
:1013F00088407109890001F1E021C1F80001F0BDC8
:101400000CED00E002490843024908607047000003
:101410000000FA050CED00E0024A114001430248C9
:101420000160704780FFFF1F08ED00E0124B10B510
:101430005968124A1140DA6A0C2822F0005217D279
:10144000DFE800F00606060616091609101010104F
:1014500041EA80310CE020F0040041EA803040F0A5
:10146000805105E020F00C0041EA803142F000524A
:101470005960DA6210BD000000100240FF3FFFEF2C
:1014800070B540A188B02EC98DE82E003EA1414D17
:10149000D1E90021CDE904213BA10446D1E9002195
:1014A000CDE90621696800203B4BC1F3810222B1DE
:1014B0003A49012A40D0022A01D019463CE06A6824
:1014C0004FF4803302F480329A421ED1EA6A12F05D
:1014D000804F00D03249EA6A02F480329A420DD13C
:1014E000EA6AC2F30313EA6A5B1CC2F30322921C8A
:1014F000112A00D11422B1FBF3F15143EA6A02F040
:101500000F02521CB1FBF2F300E0264B6968C1F3F5
:1015100083426968890001D542F010020F2A01D286
:10152000921C00E0521C03FB02F10F2A04D103EBD2
:101530004301490001EB53016A686B68C2F303126F
:101540001DF8022021FA02F2C3F3022304AE6D68F3
:10155000F35C22FA03F3C5F3C22506AE755D22FAE9
:1015600005F544B1012C08D0022C08D0032C00D181
:10157000284608B070BD0846FBE71046F9E7184654
:10158000F7E7000000000000000000000102030473
:10159000060708090010024000127A0040787D0119
:1015A000006CDC0200093D0010B540F2026000F062
:1015B0000DF840F2096000F009F84FF4A06000F067
:1015C00005F8BDE810400120FFF730BF054901EBE9
:1015D00090110A6800F01F030120984002430A603E
:1015E0007047000000100240054901EB90110A68A5
:1015F00000F01F030120984082430A6070470000FA
:1016000000100240054901EB90110A6800F01F0329
:101610000120984002430A60704700000010024019
:1016200030B50C4B0021A3F110040022104603EB4F
:10163000001535F81150401C2A44C0B292B2082857
:10164000F5D3D00824F81100491CC9B20829ECD3FD
:1016500030BD0000F828002025480021026842F42F
:10166000803202604FF6FF730268491C12F4003F9B
:1016700001D19942F8D10168890300D4FEE71D49E0
:101680000A6822F00702D21C0A6041684160416882
:101690004160416841F4806141604168164A1140EF
:1016A00041604168154A11434160C16A144A1140C2
:1016B000C162C16A134A1143C162016841F080618D
:1016C000016001680901FCD5016841F08071016089
:1016D00001688901FCD5416821F00301416041683E
:1016E00041F00201416041680907FCD570470000E4
:1016F0000010024000200240FFFFC3DF0000352041
:1017000000F0FEBF4906010070B50E484FF47A7133
:101710000068B0FBF1F0401EB0F1807F11D24FF0B5
:10172000E024606165170F212846FEF7E6FE0020E1
:10173000A061072020612846BDE870400021FEF727
:10174000DCBEFEE7180000200246002039B1012966
:1017500007D0022907D0032900D1106C7047506BC5
:101760007047906B7047D06B7047C94301617047F9
:10177000C26800690A40084202D00AB101207047DD
:101780000020704770B5104A0C4605465378002B70
:10179000FCD0002050700D4E03213046FFF7E4FAD4
:1017A0002A4603213046FFF7E2FB2246032130465A
:1017B000FFF715FC03213046FFF7E6FABDE870405D
:1017C0008021034800F0CBB81C000020000002403C
:1017D0000038014010B50A4C01462046FFF71CFCBA
:1017E0002046FFF7A1FD0749621501F54060FEF7AD
:1017F00089FDFFF73FFABDE81040FFF779BA000016
:10180000003801407829002070B5104A0C46054682
:101810001378002BFCD0002010700D4E01213046B3
:10182000FFF7A2FA2A4601213046FFF7A0FB224625
:1018300001213046FFF7D3FB01213046FFF7A4FA20
:10184000BDE870408021034800F089B81C000020EA
:10185000000002400048004010B50A4C01462046F6
:10186000FFF7DAFB2046FFF75FFD0749621501F538
:101870000160FEF747FDFFF77FF9BDE81040FFF775
:10188000B9B9000000480040782D002070B5124A18
:1018900004460D460020A11A131594421AD005DC07
:1018A0000E49611816D0994208D113E0994211D01F
:1018B000B1F56C4F02D10320FFF7E2FD00EB5500BC
:1018C000B0FBF5F04FF6F071014000F00F0211434C
:1018D000A16070BD0220EFE7004C004000BCFFBFDC
:1018E000134A10B5811A1315904213D007DC114921
:1018F00040180CD098421AD140F212440FE099429D
:101900000BD0B1F56C4F12D140F20E3407E040F22B
:10191000114404E040F2134401E040F21444204634
:10192000FFF770FE2046BDE81040FFF75DBE10BD1A
:10193000004C004000BCFFBF426922F040020A4355
:10194000426170470B4628B1022807D1114618465C
:10195000FFF75ABF11461846FFF714BF7047426998
:1019600022F080020A4342617047C16841F400518D
:10197000C160704700EB9110026801F01F03012164
:1019800099400A430260704730B5C1F3891282580A
:1019900000EB915001F01F05012404FA05F30068E3
:1019A0001A40C1F3044104FA01F3184202D00AB10B
:1019B000012030BD002030BDC26822F004020A437D
:1019C000C2607047C26822F008020A43C2607047D2
:1019D0000100020004000800100020004000800008
:1019E00000800040002000100008000400020001F8
:1019F00001000200040008001000200040008000E8
:101A000000010002000400080010002000400080D7
:101A1000301A000800000020600000003A080008AA
:101A2000901A000860000020383900004A080008B9
:101A300000000000000000000000000000000000A6
:101A40000000000000000000000E270701010E0644
:101A50001107120713070206030603060406000017
:101A60000002000004000000000400000004000068
:101A7000000400000800000000080000000800004A
:101A800000080140000C0140000C01400010014022
:04000005080001519D
:00000001FF
