:020000040800F2
:100000002819002069010008710B0008D10A0008B6
:100010006D0B00080D090008350E000800000000F7
:100020000000000000000000000000003D0C00087F
:10003000B10A0008000000009D0B00083F0C0008FA
:100040008301000883010008830100088301000880
:100050008301000883010008830100088301000870
:10006000830100088301000883010008210A0008B9
:10007000410A000883010008690A0008910A000883
:100080008301000883010008830100088301000840
:100090008301000883010008830100088301000830
:1000A0008301000883010008830100088301000820
:1000B00083010008A10C0008490D00088301000815
:1000C0008301000883010008830100088301000800
:1000D00083010008650D000883010008CD0D0008AC
:1000E00083010008830100088301000883010008E0
:1000F000830100088301000883010008000000005C
:10010000830100080000000083010008830100084B
:1001100083010008830100088301000883010008AF
:10012000830100088301000883010008830100089F
:1001300083010008000000000000000083010008A7
:10014000830100088301000883010008830100087F
:10015000DFF810D000F0ACFA00480047811A000820
:10016000AFF3008028190020064880470648004762
:10017000FEE7FEE7FEE7FEE7FEE7FEE7FEE7FEE757
:10018000FEE7FEE7490C0008510100082DE9F05F89
:100190000546002092469B468846064681464024F6
:1001A0001BE0284641464746224600F001FA5346E6
:1001B0005A46C01A914110D311461846224600F003
:1001C000E8F92D1A67EB01084F462246012000216D
:1001D00000F0DFF917EB00094E41201EA4F10104E5
:1001E000DFDC484631462A464346BDE8F09F40EAF8
:1001F00001039B0703D009E008C9121F08C0042AA5
:10020000FAD203E011F8013B00F8013B521EF9D28B
:100210007047D2B201E000F8012B491EFBD27047B3
:100220000022F6E710B513460A4604461946FFF7C2
:10023000F0FF204610BD2DE9FE4F804681EA030005
:10024000C00F0C46009021F0004123F00045B8EBB0
:100250000200A94105D24046214690461C460B4665
:10026000024623F00040104347D0270DC7F30A0091
:10027000C3F30A510290401A019040286BDAC3F38D
:10028000130040F4801B0098924620B10023D2EB6B
:10029000030A63EB0B0B01985946C0F1400250462C
:1002A00000F077F906460D4650465946019A00F08F
:1002B0008FF910EB08006141002487EA115284EAAB
:1002C000E7731A4340D0009A62B3019A012A4FEAB9
:1002D000075215DC001B61EB02014FF0004202EAFD
:1002E0000752CDE90042001C41F5801132462B46F1
:1002F00000F08FF903B0BDE8F08F40462146F9E7E2
:10030000001B61EB0201001C41F5801300185B41EA
:100310002018A2F5001747EB030140EAD570B61983
:100320006D4111E06D084FEA360645EAC0754FEAA7
:100330000752001B61EB0201001C41F580114908C6
:100340004FEA30000019514132462B4603B0BDE858
:10035000F04F00F04FB90098012240000023D0EB8D
:10036000020263EBE073009821464FEAE074B8EBB9
:10037000000061EB0401E9E783F000435BE781F0F3
:10038000004158E72DE9FE4F81EA030404F00044E0
:1003900021F0004100944FF0000B23F0004350EA9D
:1003A00001045ED052EA03045BD0C3F30A54C1F3E4
:1003B0000A552C44A4F2F3340194A0FB0254C1F377
:1003C000130141F48011C3F3130343F4801301FBC1
:1003D000024400FB034E840A970A44EA815447EA28
:1003E0008357A4FB076802958D0A05FB07854FEA32
:1003F000932C04FB0C542705029D4FEA065847EA4C
:100400001637B5EB08056EEB070C870E920E47EA20
:10041000811742EA8312A7FB0201B6EB0B0164EBE2
:1004200000042B0D43EA0C335E1844EB1C50DA46F3
:100430005146E7FB0201C5F313044FEA0B3343EACD
:1004400014534FEA0432019C43EA0603A4F10C045E
:100450000294009CCDE900B400F0DBF803B0BDE8E5
:10046000F08F00200146F9E72DE9F04D81EA030401
:1004700004F0004B21F0004514464FF0000A23F031
:10048000004150EA050220D054EA01021DD0C5F314
:100490000A570246C5F31303C1F31300C1F30A560A
:1004A00040F4801543F48013A7EB0608101BD646D2
:1004B00008F2FD3873EB050002D308F1010801E0F2
:1004C00092185B41B8F1000F03DA00200146BDE845
:1004D000F08D00204FF48011064684460EE0171B75
:1004E00073EB050705D3121B63EB050306434CEAC8
:1004F000010C49084FEA300092185B4150EA0107AD
:10050000EDD152EA030012D082EA040083EA050129
:10051000084305D0101BAB4106D20122002306E0A0
:1005200000224FF0004302E06FF0010253101AEB7B
:1005300006004CEB085110EB0A0041EB0B01BDE843
:10054000F04D00F057B80EB540F233410291002152
:10055000CDE900110A460B4600F05BF803B000BD80
:10056000C1F30A5210B5C1F3130140F2FF3341F455
:1005700080119A4201DA002010BD40F233439A42C2
:10058000A2F2334203DC524200F012F810BD904058
:1005900010BD202A04DB203A00FA02F10020704747
:1005A0009140C2F1200320FA03F3194390407047B1
:1005B000202A04DB203A21FA02F00021704721FAB8
:1005C00002F3D040C2F1200291400843194670471F
:1005D000202A06DBCB17203A41FA02F043EAE07307
:1005E00006E041FA02F3D040C2F1200291400843F4
:1005F0001946704710B5141E73F1000408DA401C48
:1006000041F1000192185B411A4301D120F0010031
:1006100010BD2DE9F04D92469B4611B1B1FA81F221
:1006200002E0B0FA80F220329046FFF7B2FF0446B3
:100630000F4640EA0A0041EA0B0153465A46084376
:1006400013D0114653EA010019D0C8F140025046B8
:10065000FFF7AEFF05460E46504659464246FFF7A5
:1006600098FF084305D0012004E020463946BDE844
:10067000F08D0020054346EAE0762C4337430A9884
:100680006305E40AA0EB08000022FD0A44EA47548F
:100690000A3002D500200146E9E701051019694139
:1006A000DDE9084500196941BDE8F04DA2E7000009
:1006B000064C074D06E0E06840F0010394E80700AF
:1006C00098471034AC42F6D3FFF746FD00260008E9
:1006D0002026000810B590B00446402279496846AB
:1006E000FFF785FD1DF8240000F0010028B14FF44C
:1006F0008051754801F000F904E04FF480517248D0
:1007000001F0F8F81DF82400C0F3400028B14FF4C0
:1007100000516D4801F0F0F804E04FF400516A48D0
:1007200001F0E8F81DF82400C0F3800028B14FF470
:100730008041654801F0E0F804E04FF480416248F0
:1007400001F0D8F81DF82400C0F3C00028B14FF420
:1007500000415D4801F0D0F804E04FF400415A48F0
:1007600001F0C8F81DF82400C0F3001028B14FF4C0
:100770008071564801F0C0F804E04FF4807153488E
:1007800001F0B8F81DF82400C0F3401028B14FF470
:1007900000614E4801F0B0F804E04FF400614B48AE
:1007A00001F0A8F81DF82400C0F3801028B14FF420
:1007B0008051464801F0A0F804E04FF480514348CE
:1007C00001F098F81DF82400C0F3C01020B10821F2
:1007D0003D4801F091F803E008213B4801F08AF818
:1007E0003DF82400C0F3002020B11021364801F06C
:1007F00083F803E01021344801F07CF83DF8240030
:10080000C0F3402020B104212F4801F075F803E027
:1008100004212D4801F06EF83DF82400C0F380203B
:1008200020B10221284801F067F803E002212648A0
:1008300001F060F83DF82400C0F3C02020B1012190
:10084000214801F059F803E001211F4801F052F856
:100850003DF82400C0F3003020B180211B4801F096
:100860004BF803E08021194801F044F83DF82400DA
:10087000C0F3403020B14021144801F03DF803E0BE
:100880004021124801F036F83DF82400C0F38030D2
:1008900020B120210D4801F02FF803E020210B4862
:1008A00001F028F83DF82400C0F3C03020B1102139
:1008B000064801F021F803E01021044801F01AF87D
:1008C00010B010BDC0250008000C01400008014018
:1008D00010B5044604F0010020B120210A4801F0BF
:1008E0000BF803E02021084801F004F8C4F34000AD
:1008F00020B14021044800F0FFFF03E040210248FE
:1009000000F0F8FF10BD0000000C014000BFFEE742
:1009100010B502460023002003E0145C1C44A3B27F
:10092000401C8842F9DB184610BD000010B5044693
:1009300004F0010028B14FF400710C4800F0DCFF16
:1009400004E04FF40071094800F0D4FFC4F3400004
:1009500028B14FF48071054800F0CEFF04E04FF459
:100960008071024800F0C6FF10BD0000000C01407D
:1009700070B505460E461446EE602046002100F094
:10098000DDF8002358405940084309D1B4F1004F25
:1009900002D34FF0004403E0204600F033F9044650
:1009A0002C600020A8606860204670BD2DE9F041F1
:1009B00004460F461546D4E90101401A2168081A79
:1009C000A84205D2D4E90101401A2168081A00E0C2
:1009D00028460546D4E90010491E08402168081A37
:1009E000A84206D2D4E90010491E08402168081A1E
:1009F00000E028460646D4E90021521E1140E26874
:100A0000881832463946FFF7F2FBAA1BB919E0688D
:100A1000FFF7EDFB6068284460602846BDE8F08180
:100A200010B502220021054800F06AFE20B1012223
:100A30000021024800F05CFE10BD000000000240F2
:100A400010B502220121064800F05AFE38B10122F9
:100A50001146034800F04CFE01200249087010BD09
:100A6000000002404800002010B502220321064881
:100A700000F046FE38B101220321034800F038FEA1
:100A800001200249087010BD00000240490000200A
:100A900010B502220421054800F032FE20B10122E7
:100AA0000421024800F024FE10BD000000000240B6
:100AB0007047000010B5044601F0FCFA042C03DA7C
:100AC000024830F8140010BD0020FCE74000002070
:100AD00000BFFEE700BF011EA0F10100FBD170477F
:100AE00010B540F2026001F0B5FA40F2036001F087
:100AF000B1FA4FF4C06001F0ADFA01210C4800F0EA
:100B000077FF4FF27F33032210210A4800F012FFD3
:100B100049F6F01303221021074800F00BFF4FF4B1
:100B20000041054800F0E8FE0120FFF7FFFE10BD80
:100B300000023000000C01400008014030B50246C0
:100B40000B46002182EA0100594008430BD0501E99
:100B500063F10001104019400025684069400843D6
:100B600001D1012000E00020C11730BD00BFFEE729
:100B70007047000010B5002807DA0A07140E054A6E
:100B800000F00F031B1FD45403E00A07130E024AA0
:100B9000135410BD18ED00E000E400E070470000C1
:100BA00070B50546002427E0E0B2FFF791FE4BF256
:100BB0000810FFF78FFF0120FFF77CFF1049095D48
:100BC00025F811000020FFF775FF0D49095D091D8B
:100BD00025F811000220FFF76DFF0949095D083172
:100BE00025F811000320FFF765FF0549095D0C3169
:100BF00025F81100601C84B2042CD5DB70BD000008
:100C00003C00002030B50446012520460021FFF7B6
:100C100095FF002358405940084300D10CB92046A5
:100C200030BDB4F1004F02D34FF00040F8E701E0CF
:100C300064086D00002CFBD16808F1E7704710B51F
:100C400000F0CAFA10BD000010B51248006840F468
:100C50007000104908601048006840F001000E491B
:100C6000086000204860C862084600680B490840D8
:100C7000094908604FF47F0088600846006820F446
:100C80008020086001F0D4FA00214FF0006001F0EC
:100C9000CDF810BD88ED00E000100240FFFFF6EA3D
:100CA00010B50221214801F007FB01283CD10221A7
:100CB0001E4801F0FEFA1E48008848B900211B4872
:100CC00001F0E2FA1B4908800120194908802BE055
:100CD00017480088012827D10021144801F0D4FAD0
:100CE000154908800846008812490988884207DDAE
:100CF000114800880F490988401A1049086009E026
:100D00000C4800884FF6FF71081A0B4909880844FF
:100D10000A490860094800680949B1FBF0F009492F
:100D2000088000200249088010BD00000004004037
:100D30002C000020280000202A0000203000002085
:100D400040420F003400002010B50121044801F09A
:100D5000B3FA012803D10121014801F0AAFA10BD1C
:100D60000008004010B500241349144801F0FCFBB2
:100D700008B3124800681148001D0068042110489B
:100D800000F03AFB04210E4800F053FDC0F500745A
:100D900022460C490C48FFF709FE0421084800F0E0
:100DA0002BFB4FF400720421054800F02FFD0421B5
:100DB000034800F03AFB10BD040304000038014072
:100DC00000000240041100200415002010B500248A
:100DD0001349144801F0C8FB08B3124800681148D1
:100DE000001D00680221104800F006FB02210E4899
:100DF00000F01FFDC0F5007422460C490C48FFF7B7
:100E0000D5FD0221084800F0F7FA4FF400720221E4
:100E1000054800F0FBFC0221034800F006FB10BD72
:100E200004030400004800400000024004130020B6
:100E30001415002000BFFEE702E008C8121F08C119
:100E4000002AFAD170477047002001E001C1121F4B
:100E5000002AFBD17047816841F00801816000BF22
:100E6000816801F008010029FAD1816841F004018C
:100E7000816000BF816801F004010029FAD1704748
:100E800030B5012902D002291AD10CE0C36A23F43B
:100E90007003C362C36A541E4FF4700505EA04541C
:100EA0002343C3620DE0836B23F440138363836B9E
:100EB000541E4FF4401505EA04542343836300E0B5
:100EC00000BF00BF30BD000010B5264800F058F844
:100ED000002000F0C7F801220221224800F035F975
:100EE000012211021F4800F030F900211D4800F0D6
:100EF0003BF8042201211B48FFF7C2FF0523002213
:100F00001146184800F0BCF8052301221146154887
:100F100000F0B6F8052302221146124800F0B0F89E
:100F20000523032211460F4800F0AAF84FF460226F
:100F300001210C4800F071F801221146094800F027
:100F40004DF8084800F041F8642000F03BF90548EE
:100F5000FFF781FF034800F033F80121014800F05A
:100F6000E5F810BD0024014021B1826842F400621E
:100F7000826003E0826822F40062826070470000B1
:100F800010B504460D48204418B1B0F5806F12D159
:100F900008E040F2093001F07DF840F2093001F03C
:100FA00069F809E040F20A3001F074F840F20A30C2
:100FB00001F060F800E000BF00BF10BD00DCFEBF24
:100FC000816841F4807181607047816801F001019E
:100FD00019B9816841F001018160704772B101F077
:100FE00001031BB1836843F48013836001F00203A3
:100FF00093B1836843F4004383600DE001F0010383
:101000001BB1836823F48013836001F002031BB1DA
:10101000836823F4004383607047012902D00229CA
:1010200010D107E0836823F460238360836813434F
:10103000836008E0836823F4E0438360836813439C
:10104000836000E000BF00BF704710B500F0F0FF04
:1010500001F0F2F800F052FC00F032FAFFF734FF32
:1010600010BD00000549096821F47021034A116090
:1010700011460968014311607047000004240140D3
:10108000F0B51D4606290CDA436B01EB81071F26DC
:10109000BE40B34301EB810602FA06F633434363D5
:1010A00022E00C290EDA036B8E1F06EB86071F2643
:1010B000BE40B3438E1F06EB860602FA06F63343A4
:1010C000036311E010290FDAC36AA1F10C0606EBE5
:1010D00086071F26BE40B343A1F10C0606EB860629
:1010E00002FA06F63343C3620A2A0CDA046902EBF9
:1010F00042070726BE40B44302EB420605FA06F655
:101100003443046111E0122A0FDAC468A2F10A061E
:1011100006EB46070726BE40B443A2F10A0606EBDB
:10112000460605FA06F63443C460F0BD01F001023C
:101130001AB1826842F48002826001F002021AB1A0
:10114000826842F4001282607047AAB101F4807391
:101150001BB1436843F48073436001F480631BB1A7
:10116000436843F48063436001F00203CBB18368BA
:1011700043F00203836014E001F480731BB1436801
:1011800023F48073436001F480631BB1436823F44C
:101190008063436001F002031BB1836823F0020304
:1011A0008360704710B540F2046000F053FF4FF4C5
:1011B000005303220421024800F0BCFB10BD0000D4
:1011C000001001400349086000BF02490968002976
:1011D000FBD17047240000200448006820B1034878
:1011E0000068401E0149086070470000240000208C
:1011F00000B587B04FF4A06000F02CFF0121194822
:1012000000F08EF9684600F0F3FA01208DF81A001C
:101210001548029001208DF81900002003904FF42A
:10122000007004901148009000208DF81800019083
:1012300005906A4601210B4800F0AAF901210948EE
:1012400000F00CF90121074800F0ADFA022201215B
:10125000044800F034FA0121024800F0CDF807B04C
:1012600000BD000000000240040F002004480040C0
:1012700000B587B01C216846FEF7D2FF4FF4A0608E
:1012800000F0E8FE0221194800F04AF9684600F033
:10129000AFFA00208DF81A001548029001208DF851
:1012A0001900002003904FF4007004901148009042
:1012B00000208DF81800039005906A4602210B4823
:1012C00000F066F90221094800F0C8F80221074839
:1012D00000F069FA40210748001F01F00DF90221D2
:1012E000024800F0A2F807B000BD00000000024074
:1012F000041300200448004000B587B04FF4A060FC
:1013000000F0A8FE0321194800F00AF9684600F031
:101310006FFA01208DF81A001548029001208DF80F
:101320001900002003904FF40070049011480090C1
:1013300000208DF81800019005906A4603210B48A3
:1013400000F026F90321094800F088F80321074836
:1013500000F029FA02220321044800F0B0F9032129
:10136000024800F049F807B000BD0000000002404C
:10137000040B00200438014000B587B04FF4A06092
:1013800000F068FE0421194800F0CAF8684600F031
:101390002FFA00208DF81A001548029001208DF8D0
:1013A0001900002003904FF4007004901148009041
:1013B00000208DF81800039005906A4604210B4820
:1013C00000F0E6F80421094800F048F80421074835
:1013D00000F0E9F940210748001F01F08DF80421D1
:1013E000024800F022F807B000BD000000000240F3
:1013F000041100200438014070B505460C46214612
:10140000284600F0E9F908B900BFFEE704EB8400C4
:10141000810005F10800405820F0010104EB840030
:10142000820005F10800815070BD70B505460C467C
:101430002146284600F0D0F908B900BFFEE704EBCA
:101440008400810005F10800405840F0010104EBE0
:101450008400820005F10800815070BD70B505461A
:101460000C462146284600F0B7F908B900BFFEE750
:1014700004EB8400810005F10800405820F02001B1
:1014800004EB8400820005F10800815070BD70B546
:1014900005460C462146284600F09EF908B900BFD3
:1014A000FEE704EB8400810005F10800405840F09D
:1014B000200104EB8400820005F10800815070BD1A
:1014C00000B587B00021134800F02AF812480090B8
:1014D00000208DF818001148029001208DF81900A5
:1014E000000201908000039000208DF81A00202057
:1014F0000490000205906A460021064800F048F872
:1015000000210448FFF7C3FF00210248FFF78DFFC9
:1015100007B000BD000002404C240140C20800207A
:1015200070B504460D462946204600F055F908B925
:1015300000BFFEE705EB8500810004F1080040587C
:1015400020F0010105EB8500820004F108008150C4
:10155000002105EB8500820004F10800815005EBB5
:101560008500820004F10C00815005EB85008200AB
:1015700004F11000815005EB8500820004F1140095
:1015800081506068AA000F2191400843606070BDDF
:101590002DE9F04104460D4616462946204600F046
:1015A0001BF908B900BFFEE705EB8500820004F1D6
:1015B00010003168815005EB8500820004F11400B1
:1015C000B1688150308A81B205EB8500820004F158
:1015D0000C00815005EB8500810004F1080047589C
:1015E00027F47C57F1687068084371690843074322
:1015F00005EB8500810004F108004750307E01288A
:101600000ED105EB8500810004F10800405840F040
:10161000400105EB8500820004F1080081500DE0D7
:1016200005EB8500810004F10800405820F04001DE
:1016300005EB8500820004F108008150707E0128CE
:101640000ED105EB8500810004F10800405840F000
:10165000800105EB8500820004F1080081500DE057
:1016600005EB8500810004F10800405820F080015E
:1016700005EB8500820004F108008150B07E70B94E
:1016800005EB8500810004F10800405820F01001AE
:1016900005EB8500820004F1080081500DE005EBA8
:1016A0008500810004F10800405840F0100105EB6E
:1016B0008500820004F108008150BDE8F08170B51A
:1016C00004460D4616462946204600F085F808B91E
:1016D00000BFFEE705EB8500810004F108004058DB
:1016E000304305EB85018A0004F10801885070BD84
:1016F00010B543688C0002FA04F42343436010BD24
:1017000070B5034600BF00BF022A04D0042A11D0DE
:10171000082A2DD11DE018688E0002FA06F600EAAC
:10172000060501EB8100860003F10800805900F0F6
:1017300002041FE018688E0002FA06F600EA0605A9
:1017400001EB8100860003F10800805900F00404D9
:1017500010E018688E0002FA06F600EA060501EBB2
:101760008100860003F10800805900F0080401E0C0
:1017700000BFFEE700BF15B10CB1012070BD002015
:10178000FCE770B506460C4615462146304600F08B
:1017900023F808B900BFFEE704EB8400810006F1DE
:1017A0001400455070BD70B505460C4621462846CC
:1017B00000F012F808B900BFFEE704EB84008100D6
:1017C00005F10800405820F4804104EB84008200B9
:1017D00005F10800815070BD02460120034B9A427A
:1017E00002D1042900DD00207047000000040240FF
:1017F00008B900BFFEE70021016041600176816009
:10180000C1604176016181764161704770B50646DD
:101810000C46154621463046FFF7DEFF08B900BFEB
:10182000FEE7A9B204EB8400820006F10C008150AF
:1018300070BD70B505460C4621462846FFF7CCFF23
:1018400008B900BFFEE704EB8400810005F10C003D
:10185000405870BD70B505460E4600241E488542AE
:1018600000D103E01D48854200D102241C4931F813
:10187000140000F0EFFB1B4931F8140000F0EAFB04
:10188000194951F82430194951F82400032218212C
:1018900000F050F8164951F82430144951F824004A
:1018A0000322042100F046F8284600F0DDFD314611
:1018B000284600F091FD0421284600F071FE082121
:1018C000284600F075FE284600F03CFE4FF44171BA
:1018D000284600F03CFE70BD003801400048004042
:1018E000840000204A0000205400002074000020E2
:1018F00064000020416170470161704710B5012309
:10190000042200210A4800F015F8022304220021D5
:10191000074800F00FF804231A460021044800F09D
:1019200009F8082304220021014800F003F810BD43
:1019300000080140F0B5044616460025002201F0DB
:101940000F0501F0100747B1042E05D145F003053E
:10195000E76B1F43E76300E0354300201EE00127EB
:1019600087401F40C7B122684FEA800C0F2707FA53
:101970000CF7BA43870005FA07F73A43282904D140
:10198000012787401F40676105E0482903D10127EF
:1019900087401F4027612260471CB8B20828DED369
:1019A000082022E0012787401F40E7B16268A0F1CC
:1019B00008074FEA870C0F2707FA0CF7BA43A0F184
:1019C0000807BF0005FA07F73A43282904D1012781
:1019D00087401F40676105E0482903D10127874000
:1019E0001F4027616260471CB8B21028DAD3F0BDEF
:1019F000F0B50A46002300240021002500F000462F
:101A0000B6F1004F02D11D4EF16901E01B4E716825
:101A1000C0F3034583B200F44016B6F5401F08D169
:101A200021F0E061154E766826F0E066134F7E6087
:101A300012E000F48016B6F5801F06D1032606FAE0
:101A400005F4A14341F0E06106E0460D360103FADA
:101A500006F6B14341F0E06122B1460D360103FACA
:101A600006F6314300F00046B6F1004F02D1034EB6
:101A7000F16101E0014E7160F0BD00000000014025
:101A80002DED0A8B00270025002600F0D5FBFFF77F
:101A9000DCFAFFF725F8FFF785FB4FF4E13000F0A3
:101AA00081FC4FF4E13000F03BFC0F20FEF712FE0A
:101AB00020218C48FFF720FF13E18B48D0E900205C
:101AC000521C40F100008849C1E900204FF4FA722D
:101AD000002303C9FEF75AFB00214A404B401A433A
:101AE00005D18248007880F0010080490870012209
:101AF00000237D4903C9FEF749FB00214A404B40C2
:101B00001A4302D17A48FFF74BF8012200237649A5
:101B100003C9FEF73BFB00214A404B401A434AD120
:101B2000002445E07249601C31F81000142804DAE2
:101B30000021704820F8141038E06D4A611C32F81A
:101B40001100FEF700FD41EC1A0B694A611C32F8E6
:101B50001100FEF7F8FC41EC1C0B9FED670B53ECFA
:101B6000102BFEF70CFC41EC1B0B53EC1A2BFEF771
:101B70007BFC41EC190B9FED620B53EC102BFEF735
:101B800001FC41EC180BFEF7EBFC81B2594820F840
:101B9000141030F8140041F28831884202DD5548B3
:101BA00020F81410062F00DD04E000BF601CC4B252
:101BB000062CB7DB00BF4E480588B5F57A7F0CDDF3
:101BC000B6F57A7F09DA4848D0E90010491D40F19E
:101BD00000004D4AC2E900102E46B5F57A7F0CDAB6
:101BE000B6F57A7F09DD4048D0E900305A1D40F152
:101BF00000004549C1E900202E464348D0E90010C5
:101C0000394AD2E900325940504001430AD1B5F572
:101C10007A7F07DD012000F071FA4FF4004131486E
:101C2000FFF768FE3848D0E900102F4AD2E90032A9
:101C300059405040014314D1B5F57A7F11DA0220A2
:101C400000F05CFA2848D0E900300A229A1840F1E6
:101C500000002E49C1E900204FF400412148FFF760
:101C60004BFE2A48D0E900101F4AD2E90032594001
:101C70005040014332D1B5F57A7F2FDA084600F0A3
:101C80003DFA4FF400411748FFF734FE3220FFF7CA
:101C900099FA4FF400411348FFF72EFE3220FFF768
:101CA00091FA4FF400410F48FFF724FE3220FFF76E
:101CB00089FA4FF400410B48FFF71EFE3220FFF770
:101CC00081FA4FF400410748FFF714FE3220FFF776
:101CD00079FA4FF400410348FFF70EFE6420FFF746
:101CE00071FAEAE600080140080000202000002008
:101CF0008C020020B40800200000000000CCAF409F
:101D000000000000000059401000002018000020D2
:101D100010B504461448204490B1B0F5704F1FD15F
:101D2000012200210E2000F021F8002211460F2090
:101D300000F01CF801221146252000F017F810E0F1
:101D4000002211460D2000F011F8012200210C2084
:101D500000F00CF801220021272000F007F800E035
:101D600000BF00BF10BD000000B8FFBF2DE9F0416B
:101D700003460D46164600240027A0462448006866
:101D800000F4E060B0F5A06F15D006DCB0F5407F40
:101D900018D0B0F5806F19D110E0B0F5C06F06D043
:101DA000B0F5E06F12D100274FF0040815E00127CD
:101DB0004FF0030811E00227B8460EE003274FF06A
:101DC00001080AE004274FF0000806E04FF4A06085
:101DD00000F022F80227B84600BF00BFC7F1040098
:101DE00005FA00F4C8F104010F20C8403040044354
:101DF00024010848C45403F01F01012088405911F0
:101E0000890001F1E021C1F80001BDE8F081000086
:101E10000CED00E000E400E002490143024A1160D9
:101E2000704700000000FA050CED00E0024A0A408D
:101E30000243024B1A60704780FFFF1F08ED00E06D
:101E4000184B5968184B1940164BDA6A22F00052A9
:101E50000C2820D2DFE800F0060708091F0C1F0D30
:101E60001516171800BF00BF00BF41EA803113E00C
:101E700000BF20F004004FF0805343EA8033194341
:101E80000AE000BF00BF00BF20F00C0041EA803133
:101E900042F0005200E000BF00BF024B5960DA621E
:101EA0007047000000100240FF3FFFEF2DE9F14FA7
:101EB0008EB000200C9055A090E8004CC068CDE991
:101EC00005BECDF810A0079051A0D0F804A000687E
:101ED000CDE9020A0FF2381ADAE9000ACDE9000A60
:101EE0004E484068C0F381000D900D9820B1012844
:101EF00004D0022856D103E0494A55E0494A53E04C
:101F00004648406800F48039B9F5803F2FD14348F6
:101F1000C06A00F080400B900B9808B9414900E07E
:101F200041493E48C06A00F480300A900A98B0F5F2
:101F3000803F12D13948C06AC0F30310401C08909A
:101F40003648C06AC0F30320871C112F00D1142724
:101F50000898B1FBF0F000FB07F13048C06A00F0D0
:101F60000F00401C09900998B1FBF0F100E02F49E7
:101F70002A484068C0F383432848406800F0005076
:101F800008B143F010030F2B01D29B1C00E05B1C37
:101F900001FB03F20F2B04D101EB4100400000EBE9
:101FA000510201E01E4A00BF00BF1C484068C0F358
:101FB000031504A8465D22FA06F418484068C0F3E9
:101FC000022502A8465D24FA06FC14484068C0F3C6
:101FD000C2251DF8056024FA06F80E9830B10128D4
:101FE00006D0022806D003280AD106E00C9208E0A9
:101FF0000C9406E0CDF830C003E0CDF8308000E06E
:1020000000BF00BF0C980FB0BDE8F08F00000000CB
:102010000000000001020304060708090010024046
:1020200000127A0040787D01006CDC0200093D005E
:1020300010B540F2026000F00DF840F2096000F0C7
:1020400009F84FF4A06000F005F80120FFF7F8FE52
:1020500010BD0000064A02EB9011096800F01F0352
:1020600001229A401143024B03EB9012116070471A
:1020700000100240064A02EB9011096800F01F03AD
:1020800001229A409143024B03EB9012116070477A
:1020900000100240064A02EB9011096800F01F038D
:1020A00001229A401143024B03EB901211607047DA
:1020B0000010024010B50020002118E0002000228E
:1020C00008E00C4B03EBC20333F81130034498B221
:1020D000531CDAB2082AF4DB0246C31700EB537331
:1020E000C3F3CF03044C24F811304A1CD1B20429A5
:1020F000E4DB10BDC20800204000002070B504469B
:102100000D460A480A490860084604711420A1F8DF
:1021100005000120C87114210548FEF7F9FB0449A8
:1021200088821622002000F0EFF970BDA55A55AA4A
:10213000AC08002000200021374A126842F48032A7
:10214000354B1A6000BF401C334A126802F400315C
:1021500019B94FF6FF729042F5D12F4A126802F476
:1021600000320AB900BFFEE72C4A126822F00702CB
:10217000D21C2A4B1A60284A5268274B5A601A46CA
:1021800052685A601A46526842F480625A601A468F
:102190005268234B1A40204B5A601A465268214B12
:1021A0001A431D4B5A601A46D26A1F4B1A401A4BEB
:1021B000DA621A46D26A1D4B1A43174BDA621A4684
:1021C000126842F080621A6000BF134A126802F07F
:1021D0000062002AF9D0104A126842F080720E4B59
:1021E0001A6000BF0C4A126802F00072002AF9D08F
:1021F000094A526822F00302074B5A601A46526895
:1022000042F002025A6000BF034A526802F008021C
:10221000002AF9D070470000001002400020024060
:10222000FFFFC3DF0000352000F0FEBF49060100BC
:1022300010B5FFF77FFF10BD10B5124800684FF4CE
:102240007A71B0FBF1F4601EB0F1807F01D3012000
:102250000FE0601E4FF0E02148610F214FF0FF308A
:10226000FEF788FC00204FF0E0218861072008611C
:10227000002008B100BFFEE70021481EFEF77AFCEF
:1022800010BD0000380000200246002031B10129B5
:1022900006D0022906D0032908D105E0506B06E0DC
:1022A000906B04E0D06B02E0106C00E000BF00BF58
:1022B0007047CA43026170470246D06800EA0103D2
:1022C0001069084010B10BB1012070470020FCE7F5
:1022D00070B504460D4600BF0E4800780028FBD0BC
:1022E00000200C49087003210B48FFF785F82246AF
:1022F00003210948FFF745FA2A4603210648FFF75C
:1023000085FA03210448FFF790F88021034800F084
:1023100011F970BD49000020000002400038014062
:1023200010B5044621460848FFF794FA0648FFF71F
:10233000EFFC4FF4007205490548FEF719FBFEF764
:10234000DBFFFFF719F810BD003801400409002039
:102350000415002070B504460D4600BF0E480078F5
:102360000028FBD000200C49087001210B48FFF722
:1023700043F8224601210948FFF703FA2A460121C2
:102380000648FFF743FA01210448FFF74EF8802181
:10239000034800F0CFF870BD480000200000024064
:1023A0000048004010B5044621460848FFF752FA9D
:1023B0000648FFF7ADFC4FF4007205490548FEF7EB
:1023C000D7FAFEF715FFFEF753FF10BD0048004097
:1023D000040D0020141500202DE9F04704460D4699
:1023E0000027B846B94600261D49601A8C421CD009
:1023F00006DC1C48204470B1B0F5806F1FD10FE09F
:10240000B0F5806F16D0B0F56C4F18D10320FFF7F0
:102410004DFD074614E00220FFF748FD07460FE098
:102420000220FFF743FD07460AE00220FFF73EFDCA
:10243000074605E00220FFF739FD074600E000BF30
:1024400000BF07EB5500B0FBF5F64FF6F07006EA5B
:10245000000806F00F0948EA0900A060BDE8F0870F
:10246000004C004000BCFFBF10B504462049601A74
:102470008C4228D006DC1F48204490B1B0F5806F14
:1024800033D117E0B0F5806F26D0B0F56C4F2CD16A
:1024900040F20E30FFF7FEFD40F20E30FFF7EAFD8E
:1024A00024E040F21140FFF7F5FD40F21140FFF744
:1024B000E1FD1BE040F21240FFF7ECFD40F212405C
:1024C000FFF7D8FD12E040F21340FFF7E3FD40F2C2
:1024D0001340FFF7CFFD09E040F21440FFF7DAFDAB
:1024E00040F21440FFF7C6FD00E000BF00BF10BD82
:1024F000004C004000BCFFBF0A460021416921F0AA
:10250000400111434161704770B506460C461546BF
:1025100016B1022E0AD104E029462046FFF7D8FE64
:1025200005E029462046FFF715FF00E070BD00BF1B
:1025300000BFFBE70A460021416921F080011143F9
:1025400041617047C16841F40051C160704710B5E6
:1025500000EB9112126801F01F040123A3401A43FB
:1025600000EB91131A6010BD70B5024600230024E1
:10257000C1F38910105801F01F060125B54000EA8B
:10258000050302EB91500068C1F304460125B540F4
:1025900000EA050414B10BB1012070BD0020FCE776
:1025A0000A460021C16821F004011143C16070474F
:1025B0000A460021C16821F008011143C16070473B
:1025C00001000000020000000400000008000000FC
:1025D000100000002000000040000000800000000B
:1025E00000010000000200000004000000080000DC
:1025F00000100000002000000040000000800000EB
:1026000020260008000000208C000000380E000882
:10261000AC2600088C0000209C180000480E000822
:1026200001000000000000000000000000000000A9
:10263000000000000000000000000000000000009A
:10264000000000000000000000000000000000008A
:102650000000000000000000000E27070302000138
:10266000000000000000000001010E061107120723
:102670001307000000020000040000000004000036
:102680000004000000040000080000000008000032
:102690000008000000080140000C0140000C01404F
:0C26A000001001400206050603060506B6
:04000005080001519D
:00000001FF
