:020000040800F2
:10000000D004002005010008690300086B03000804
:100010006F03000873030008770300080000000066
:100020000000000000000000000000007B0300084A
:100030007D030008000000007F0300088103000822
:100040001F0100081F0100081F010008AB03000882
:100050001F0100081F0100081F0100081F01000800
:100060001F0100081F0100081F0100081F010008F0
:100070001F0100081F0100081F0100081F010008E0
:100080001F0100081F0100081F0100081F010008D0
:100090001F0100081F0100081F0100081F010008C0
:1000A0001F0100081F0100081F0100081F010008B0
:1000B0001F0100081F0100081F0100081F010008A0
:1000C0001F0100081F0100081F0100081F01000890
:1000D0001F010008A30200081F0100081F010008FB
:1000E0001F0100081F0100081F010008DFF810D0E1
:1000F00001F01CFF0048004773010008AFF30080C7
:10010000D00400200648804706480047FEE7FEE787
:10011000FEE7FEE7FEE7FEE7FEE7FEE7FEE7FEE7B7
:100120000F170008ED00000813B582B019E07349FD
:100130000020CDE9001006E0DDE900305A1E60F134
:100140000000CDE900200023DDE90012591A73EB0D
:100150000200F1DADDE90220521E60F10000CDE973
:1001600002200023DDE90210594058400143DED14E
:100170001FBD002401F0D8FB00F0E6FA4FF4A060A8
:1001800000F0F8FA4FF4E120002101F041FB00F00B
:10019000C8FA5B4801F0FCFE02E05AA001F0F8FE4C
:1001A00000F0C3F90028F8D1554801F0F1FE00F045
:1001B00063FA75E02CB14FF400515D4800F0B7FCD4
:1001C00004E04FF400515A4800F0B3FC84F00104FD
:1001D0005848006800285ED1574800F0DCF95648BE
:1001E000417856A001F0D4FE53484078312806D01B
:1001F000322814D0332822D034283ED12EE00120DA
:100200005349086000205349C1F884010120504936
:100210002831086000204F49C1F8AC013AE00020C5
:100220004B49086001204B49C1F88401002048492E
:100230002831086001204749C1F8AC012AE00120BB
:100240004349086000204349C1F8840140492831EE
:10025000086001203F49C1F8AC011BE000203C4987
:10026000086001203B49C1F8840139492831086000
:1002700000203849C1F8AC010CE000203449086086
:100280003449C1F884013249283108603149C1F844
:10029000AC0100BF00BF4CF250300021FFF744FF1B
:1002A00088E710B540F225512B4801F07DF918B3CD
:1002B000294801F0F9F829490870084600782849CA
:1002C000C97F274A50541046C07F401C1146C8774A
:1002D0000846C07F91F8201088420DDB00201146AF
:1002E000C877084690F820201E4801F07DFD1C4884
:1002F00090F820001B49C87710BD000090D0030083
:100300004824000820202020202020206E72663201
:10031000346C303120696E69742073756363657362
:10032000732C20B0C2C0EFB8F8212121210A0000AF
:10033000001001400801214200000020726563693D
:1003400076652021212120257820200A0000000048
:10035000808121420080214200380140220000209B
:100360005C0000207E000020704700BFFEE700BF59
:10037000FEE700BFFEE700BFFEE77047704770472B
:10038000194801680068401C174A106017488142EC
:1003900002D30020114608601548008820B1144897
:1003A0000088401E12490880704710B5012000F0F7
:1003B00021FFB8B1012000F02DFF0E48007828B1D0
:1003C0004FF400510C4800F0B2FB04E04FF4005130
:1003D000094800F0AEFB07480078C04305490870A3
:1003E00001F00BFC10BD00002800002020A1070038
:1003F000240000202C00002000100140002107E014
:10040000642201E0531EDAB2002AFBDC4B1CD9B295
:100410008142F5DC7047002001E0411C88B2B0F554
:10042000167FFADC7047002119E000F08002802A74
:1004300003D10122BD4B1A6002E00022BB4B1A60BF
:100440004206100E0122B94B083B1A60B84AD2F896
:1004500018210243D0B200221A604A1CD1B20829E6
:10046000E3DB704730B504460020B0490C39086022
:100470002046FFF7D8FFFF20FFF7D5FF05460120F4
:10048000AB49C1F89001284630BD70B505460C4611
:100490000020A6490C3908602846FFF7C4FF06462D
:1004A0002046FFF7C0FF0120A149C1F89001304666
:1004B00070BD2DE9F04107460C46154600209B49CA
:1004C0000C3908603846FFF7AEFF8046002605E08D
:1004D00014F8010BFFF7A7FF701CC6B2AE42F7DBA2
:1004E000012092490C3908604046BDE8F0812DE9B1
:1004F000F04107460D46164600208C490C3908602D
:100500003846FFF790FF8046002405E0FF20FFF704
:100510008AFF2855601CC4B2B442F7DB012083492E
:100520000C3908604046BDE8F0810FB581A103C9D0
:10053000CDE902010020009001907C490839086053
:1005400001207B49C1F890010020784910390860EA
:10055000052202A93020FFF7ACFF052269461020D2
:10056000FFF7C5FF9DF80000112812D19DF801008A
:1005700022280ED19DF8020033280AD19DF80300ED
:10058000442806D19DF80400552802D1002004B06B
:1005900000BD0120FBE730B504460720FFF762FFEE
:1005A000054629462720FFF770FF05F04000A0B15F
:1005B00000205E4910390860202221466120FFF7A3
:1005C00096FFFF21E220FFF760FF01205849C1F8A4
:1005D0008C01FFF720FF002030BD0120FCE708B5AB
:1005E0000121042000F018FDB820ADF80000102013
:1005F0008DF8030003208DF8020069464F4800F093
:10060000E9F94420ADF8000048208DF803000320EC
:100610008DF802006946494800F0DCF908BD30B5A4
:100620000546002041491039086020222946A020B3
:10063000FFF73FFF01203E49C1F88C0100BF3B4856
:10064000943800680128FAD00720FFF70BFF044612
:1006500021462720FFF719FF04F0100028B1FF21E1
:10066000E120FFF712FF102030BD04F0200008B198
:100670002020F9E7FF20F7E700B500202B491039CB
:10068000086020213120FFF700FFFF21E220FFF763
:10069000FCFE05222A493020FFF70BFF05222949DD
:1006A0002A20FFF706FF01212120FFF7EEFE01219E
:1006B0002220FFF7EAFE1A212420FFF7E6FE0021A0
:1006C0002520FFF7E2FE0F212620FFF7DEFE0F2197
:1006D0002020FFF7DAFE01201549C1F88C0100BD8A
:1006E00010B5044600201149103908600E21202061
:1006F000FFF7CBFE01200E49C1F88C010F20FFF758
:100700007DFE2046FFF78BFF002008491039086066
:100710000F212020FFF7B9FE01200549C1F88C0107
:1007200010BD10B5FFF75BFF10BD00009C0121421A
:10073000000021421122334455000000000801400E
:10074000262400082B24000808B50121082000F009
:1007500063FC40F60340ADF8000010208DF8030064
:1007600003208DF802006946014800F033F908BD06
:10077000000C014031490143314A1160704770B5A6
:10078000002100230F22C47804B32D4C246804F404
:10079000E064C4F5E064210AC1F10403CA4044786E
:1007A00004FA03F18478144021430901254C0678AA
:1007B000A155047804F01F050124AC4005786D11A3
:1007C000AD0005F1E025C5F8004109E0047804F02A
:1007D0001F050124AC401C4D0678761145F82640D3
:1007E00070BD1A4A0A400243154B1B1F1A6070471E
:1007F00039B1134A121D12680243114B1B1D1A60B6
:1008000006E00F4A121D126882430D4B1B1D1A6031
:100810007047042808D14FF0E021096941F0040134
:100820004FF0E022116107E04FF0E021096921F06B
:1008300004014FF0E0221161704700000000FA054A
:100840000CED00E000E400E080E100E080FFFF1F2D
:1008500010B5012000F014FC002000F011FC10BDC8
:100860002A49086070472949091F086070472749CD
:1008700084310860704701460020254A10884FF6F1
:100880007F4210400843224A1080704701460020F2
:100890001F4A10884FF68072104008431C4A10808F
:1008A000704708B500220092194A2C3A0092009A2B
:1008B00002440092009A116008BD08B5014600206C
:1008C000009013482C38009000980844009000983D
:1008D000008808BD0D489C300068C0B270470C48C5
:1008E0000830008840F0010009490831088070474D
:1008F0000648A0300068C0B270470548083000883C
:1009000040F00200024908310880704704860D4219
:100910002C6C004010B50446CC48844208D101211B
:10092000042000F093FB0021042000F08FFB46E040
:10093000C748844208D10121082000F087FB00212C
:10094000082000F083FB3AE0C248844208D101212C
:10095000102000F07BFB0021102000F077FB2EE040
:10096000BD48844208D10121202000F06FFB002106
:10097000202000F06BFB22E0B848844208D101211E
:10098000402000F063FB0021402000F05FFB16E0F8
:10099000B348844208D10121802000F057FB002198
:1009A000802000F053FB0AE0AE48844207D10121C9
:1009B000801500F04BFB0021A01500F047FB10BD97
:1009C00010B50121084600F041FB0021012000F094
:1009D0003DFB10BD2DE9F041024600250026002018
:1009E00000230024002791F803C00CF00F0591F8B4
:1009F00003C00CF0100CBCF1000F03D091F802C042
:100A00004CEA050591F800C0BCF1000F31D0146824
:100A100000202BE04FF0010C0CFA00F3B1F800C0FD
:100A20000CEA03069E4220D183004FF00F0C0CFA13
:100A300003F7BC4305FA03FC4CEA040491F803C035
:100A4000BCF1280F06D14FF0010C0CFA00FCC2F8E3
:100A500014C00AE091F803C0BCF1480F05D14FF073
:100A6000010C0CFA00FCC2F810C0401C0828D1D3BD
:100A70001460B1F800C0BCF1FF0F34DD54680020F1
:100A80002EE000F1080C4FF0010808FA0CF3B1F861
:100A900000C00CEA03069E4221D183004FF00F0CE8
:100AA0000CFA03F7BC4305FA03FC4CEA040491F882
:100AB00003C0BCF1280F05D100F1080C08FA0CF8AE
:100AC000C2F8148091F803C0BCF1480F07D100F1BF
:100AD000080C4FF0010808FA0CF8C2F81080401C0E
:100AE0000828CED35460BDE8F0814FF6FF71018035
:100AF000022181700421C170704702460020936872
:100B00000B400BB1012000E00020704701468868CF
:100B100080B2704702460020D3680B400BB1012021
:100B200000E0002070470146C86880B2704701614C
:100B30007047416170470AB1016100E0416170474F
:100B4000C16070474FF480320A43826181618261E3
:100B500082698269704702460020434B18684FF64D
:100B60008073184040EA021008433F4B18607047FA
:100B70003E49C8617047F0B50A46002300240021B1
:100B8000002500F00046B6F1004F02D1364EF16963
:100B900001E0354E7168C0F3034583B200F440169E
:100BA000B6F5401F08D121F070612F4E766826F00F
:100BB00070662D4F7E6012E000F48016B6F5801F3F
:100BC00006D1032606FA05F4A14341F0706106E060
:100BD000460D360103FA06F6B14341F0706122B1C9
:100BE000460D360103FA06F6314300F00046B6F131
:100BF000004F02D11C4EF16101E01B4E7160F0BD4F
:100C000030B500228B071C0F0F2303FA04F2164B9A
:100C100008338C1053F824309343134C08348D1050
:100C200044F8253023468C1053F824308C07240FC9
:100C300000FA04F423430C4C08348D1044F825309A
:100C400030BD0A49DC3108607047000000080140EF
:100C5000000C014000100140001401400018014048
:100C6000001C014000200140000001400000204223
:100C700010B50121080700F0F6F900214FF080506F
:100C800000F0F1F910BD2A4908627047284908614F
:100C9000704701460020274A106820F0E000084312
:100CA000106070472249A0310860704710B50246B5
:100CB0000020204B186820F00300104318601E4BE2
:100CC0001B6843F004031C4C2360012901D130BF91
:100CD00000E020BF184B1B6823F00403164C236070
:100CE00010BD1448006840F004001249086008462E
:100CF000006840F0020008600F48006840F00400FF
:100D00000D49086000BF00BF30BF7047014600209A
:100D1000084A52680A400AB1012000E000207047EA
:100D20000449096841EA8001024A116070470000E5
:100D300000000E420070004010ED00E0DF48006847
:100D400040F00100DD49086008464068DC49084081
:100D5000DA49486008460068DA490840D74908601F
:100D60000846006820F4802008600846406820F4A7
:100D7000FE0048604FF41F0088607047CF49096843
:100D800021F48031CD4A11601146096821F4802197
:100D90001160B0F5803F03D0B0F5802F0ED106E092
:100DA000C649096841F48031C44A116007E0C3496B
:100DB000096841F4A021C14A116000E000BF00BFF2
:100DC000704710B501460022002300204A11012A75
:100DD00002D1BA4C236806E0022A02D1B74C236A3A
:100DE00001E0B64C636A01F01F02012494401C40EC
:100DF0000CB1012000E0002010BD38B500200090AB
:100E00000024002500BF3120FFF7DBFF05460098D6
:100E1000401C00900098B0F5A06F01D0002DF2D0DA
:100E20003120FFF7CEFF08B1012400E00024204666
:100E300038BD01460020A14A106820F0F80040EAC1
:100E4000C10010607047A04908607047024600204A
:100E50009A4B586820F47C1042EA01031843974BE0
:100E60005860704798490866704701460020934AC9
:100E7000506820F003000843506070478F48406876
:100E800000F00C007047014600208C4A506820F0AA
:100E9000F00008435060704701460020874A5068C0
:100EA00020F4E06008435060704701460020834A08
:100EB000506820F4605040EAC1005060704729B18A
:100EC0007E4A527A02437D4B5A7204E07B4A527A40
:100ED00082437A4B5A7270477B49D8310860704719
:100EE00001460020754A506820F440400843506095
:100EF00070470021714A20321170704A82F8201028
:100F0000012802D004280AD104E001216B4A2032D2
:100F1000117005E00521694A2032117000E000BF20
:100F200000BF70476949086070476449096A014316
:100F3000624A11627047654944390860704730B5AC
:100F400000210022002400235C4D6D6805F00C0197
:100F500021B1042905D0082923D105E05C4D0560A5
:100F600022E05B4D05601FE0544D6D6805F4701282
:100F7000524D6D6805F48034022505EB92421CB990
:100F8000544D554305600BE04C4D6D6805F400353C
:100F90001DB1504D5543056002E04D4D5543056070
:100FA00002E04B4D056000BF00BF444D6D6805F089
:100FB000F0010909484D6B5C0568DD4045603F4D17
:100FC0006D6805F4E061090A434D6B5C4568DD40DE
:100FD00085603A4D6D6805F46051C90A3E4D6B5C01
:100FE0004568DD40C560354D6D6805F44041890BAD
:100FF0003A4D6B5CC568B5FBF3F5056130BD29B1B1
:101000002E4A526902432D4B5A6104E02B4A526921
:1010100082432A4B5A61704729B1284A9269024398
:10102000264B9A6104E0254A92698243234B9A61D8
:10103000704729B1214AD2690243204BDA6104E0AA
:101040001E4AD26982431D4BDA61704729B11B4A9F
:10105000D2680243194BDA6004E0184AD26882432E
:10106000164BDA60704729B1144A12690243134BD8
:101070001A6104E0114A12698243104B1A617047E9
:1010800012494039086070470F49C86470470B49DE
:10109000C87170470948406A40F08070074948624B
:1010A000704701460020054A92680A400AB10120B3
:1010B00000E000207047014988727047001002402C
:1010C0000000FFF8FFFFF6FE0000424280044242AB
:1010D00000127A0000093D002D0000203D00002094
:1010E00029B1504A128802434E4B1A8004E04D4AFF
:1010F000128882434B4B1A8070474A48001D008873
:1011000040F010004749091D088070474548001D00
:1011100000884FF6EF7108404249091D088070476A
:10112000002140481C300188001F008841EA00402F
:10113000704700B50246FFF7E0FF100C394918313F
:101140000880091D0A80FFF7E1FF00BD00B50246D7
:10115000FFF7D3FFC2F30340324908310880091D6D
:101160000A80FFF7D3FF00BD00B50246FFF7C5FFB9
:10117000100C2C4920310880091D0A80FFF7C6FF9A
:1011800000BD00202749103109880907080B2549AF
:10119000143109880843704700BF2248001D0088A9
:1011A00000F020000028F8D070471E48001D00887D
:1011B0004FF6F77108401B49091D088000BF194808
:1011C000001D008800F008000028F8D07047014694
:1011D0000020144A121D12880A400AB1012000E0C2
:1011E000002070470F49091D098881430D4A121DCF
:1011F00011807047014600200A4A121D12880A40D9
:10120000D0B2084A12880A4012B108B1012000E0A9
:10121000002070470349091D09888143014A121DB6
:10122000118070470028004010B50446FB488442F6
:1012300009D101218803FFF709FF00214FF4804005
:10124000FFF704FF32E0F648844209D10121480447
:10125000FFF709FF00214FF40030FFF704FF25E0FE
:10126000F048844209D101218804FFF7FCFE0021E7
:101270004FF48020FFF7F7FE18E0EB48844209D1D5
:101280000121C804FFF7EFFE00214FF40020FFF713
:10129000EAFE0BE0E548844208D101210805FFF78A
:1012A000E2FE00214FF48010FFF7DDFE10BD2DE9B6
:1012B000F04786B005460E460024A24600BFA14670
:1012C0000027B08900B100BF2F462C8A4CF6FF7072
:1012D0000440F08804432C82AC894EF6F31004409D
:1012E000B08831890843718908430443AC81AC8AD2
:1012F0004FF6FF400440B0890443AC8201A8FFF7D9
:101300001EFEC648874202D1DDF810A001E0DDF8DC
:101310000CA0A88900F4004040B10AEBCA0000EB21
:101320000A1031684900B0FBF1F807E00AEBCA0087
:1013300000EB0A1031688900B0FBF1F86420B8FBBB
:10134000F0F004012009642101FB1089A88900F450
:10135000004040B1322000EBC900B0FBF1F000F0DA
:101360000700044308E0322000EB09106421B0FBC1
:10137000F1F000F00F0004432C8106B0BDE8F087C7
:101380004FF41651016000218180C18001810C2140
:10139000418100218181704710B502460020108AEA
:1013A0004FF2FF0318400B884C8823438C8823435B
:1013B000CC8823431843108210BD00210180418056
:1013C0008180C180704721B1828942F400528281BC
:1013D00004E082894DF6FF731A4082817047F0B5B0
:1013E0000346002400260025002040F66A17B94273
:1013F00000D100BF1846C1F3421401F01F060127B7
:1014000007FA06F5012C01D10C3004E0022C01D1C1
:10141000103000E014301AB107682F43076002E073
:101420000768AF430760F0BD1AB1838A0B4383821C
:1014300002E0838A8B4383827047028A4FF6F073FF
:101440001A400282028A0A430282704782894FF25E
:10145000FF731A40828182890A438281704721B1D9
:10146000828942F00202828104E082894FF6FD7394
:101470001A4082817047028A4FF6DF731A40028257
:10148000028A0A430282704721B1028A42F48042F2
:10149000028204E0028A4BF6FF731A400282704710
:1014A000C1F308028280704701468888C0F30800B3
:1014B0007047818941F0010181817047028BD2B26E
:1014C0000283028B42EA012202837047028B02F4FC
:1014D0007F420283028B0A430283704721B1828AD2
:1014E00042F02002828204E0828A4FF6DF731A40C3
:1014F0008282704721B1828A42F01002828204E027
:10150000828A4FF6EF731A408282704721B1828A35
:1015100042F00802828204E0828A4FF6F7731A4092
:101520008282704721B1828942F40042828103E0C5
:101530008289C2F30E028281704721B1828A42F40D
:101540000062828204E0828A4FF2FF731A40828234
:101550007047828A4FF6FB731A408282828A0A435E
:101560008282704721B1828A42F00202828204E0C4
:10157000828A4FF6FD731A4082827047024600202D
:10158000B1F5007F00D100BF13880B400BB10120E3
:1015900000E00020704701F40072B2F5007F00D136
:1015A00000BFCA430280704770B502460024002382
:1015B0000025002040F66A16B14200D100BFC1F3F9
:1015C000421501F01F03012606FA03F3012D02D193
:1015D0009689334006E0022D02D1168A334001E09D
:1015E000968A33400C12012606FA04F41688344019
:1015F00013B10CB1012000E0002070BD10B5002235
:10160000002340F66A14A14200D100BF0A1201244F
:101610009440A3B2DC43048010BD000000380140B8
:101620000044004000480040004C00400050004092
:101630000CB50020019000906C48006840F48030A8
:101640006A49086000BF6948006800F400300090F3
:101650000198401C0190009818B90198B0F5A06F4E
:10166000F1D16248006800F4003010B10120009010
:1016700001E0002000900098012843D15C480068F8
:1016800040F010005A4908600846006820F0030046
:1016900008600846006840F002000860534840684F
:1016A000524948600846406848600846406840F42F
:1016B000806048600846406820F47C104860084616
:1016C000406840F4E81048600846006840F08070C8
:1016D000086000BF4548006800F000700028F9D09D
:1016E0004248406820F0030040494860084640688E
:1016F00040F00200486000BF3C48406800F00C0029
:101700000828F9D10CBD10B5FFF792FF10BD10B538
:101710003648006840F001003449086008464068D7
:101720003449084031494860084600683249084059
:101730002E4908600846006820F4802008600846AA
:10174000406820F4FE0048604FF41F008860FFF7F7
:10175000DAFF4FF000602949086010BD10B5002184
:1017600000200022214B5B6803F00C0121B1042909
:1017700006D0082928D107E0214B224C236027E01E
:101780001F4B204C236023E0184B5B6803F4701060
:10179000164B5B6803F48032022303EB904022B9BE
:1017A000194B4343174C23600DE0104B5B6803F467
:1017B000003323B1144B4343124C236003E0104B1E
:1017C0004343104C236003E00D4B0E4C236000BFDD
:1017D00000BF064B5B68C3F303130C4CE15C094B81
:1017E0001B68CB40074C236010BD00000010024076
:1017F000002002400000FFF8FFFFF6FE08ED00E0C9
:1018000000127A004400002000093D00480000203A
:1018100030B587B004460D46012144F20400FFF7BD
:10182000FBFB3F48FFF700FD4FF40070ADF81800D8
:1018300018208DF81B0003208DF81A0006A93948DE
:10184000FFF7C8F84FF48060ADF8180004208DF859
:101850001B0003208DF81A0006A93248FFF7BAF8DA
:1018600002940020ADF80C00ADF80E00ADF81000A9
:10187000ADF814000C20ADF8120002A92848FFF7BB
:1018800016FDC0212648FFF786FE25208DF80400AE
:1018900003208DF805008DF8060001208DF8070063
:1018A00001A8FEF76CFF012240F225511C48FFF70A
:1018B00096FD01211A48FFF786FD07B030BD70B5CF
:1018C00004460D46E1B21648FFF7EAFD00BF80214D
:1018D0001348FFF753FE0028F9D0204670BD10B51D
:1018E000044621460E48FFF7DBFD00BF80210C486F
:1018F000FFF744FE0028F9D010BD10B504460BE0F8
:1019000014F8011B0648FFF7CBFD00BF80210448F7
:10191000FFF734FE0028F9D020780028F0D110BD60
:10192000003801400008014008B501211020FFF7F0
:1019300073FB42F20700ADF8000010208DF80300A1
:1019400003208DF8020069460148FFF743F808BDFF
:101950000010014073B5054601A800F09BFA04464B
:10196000606900F26C7060612C222146284600F00C
:101970003BFA7CBD0FB410B50798A0F26C700790CD
:1019800002A800F0DDF910BC5DF814FB10B5FFF7FC
:10199000C7FB10BD30B58BB00446FFF7C1FB054651
:1019A00029466846FFF7D6FF2C226946204600F0FC
:1019B0001BFA0BB030BD10B50446FFF7EDFB204617
:1019C000FFF7B7FBFFF7E8FB10BD0FB410B588B009
:1019D0001C220EA9684600F007FA0AA80FC8FFF7F4
:1019E000C9FF0446FFF7E7FF08B010BC5DF814FB21
:1019F00008B54FF4C060FEF7BDFE03208DF800006F
:101A000001208DF8010000208DF8020001208DF8E2
:101A100003006846FEF7B3FE08BD10B501214FF084
:101A2000C050FFF706FB0120FFF72DF9FEF710FF6E
:101A30000120FFF75EFA00BF4120FFF7C2F900283E
:101A4000FAD04FF48070FFF770FA0120FFF773FAB5
:101A5000FFF7ABFBFFF7A0FB01210846FFF740FBB8
:101A6000FFF79AFB47F6FF70FFF770FBFFF794FB59
:101A700010BD2DE9FF4105460E4617460024002003
:101A8000009001900290039026E000BF202165485D
:101A9000FFF774FD0028F9D06248FFF705FD2146E5
:101AA000621C94B24DF82100601E5DF820000D28E4
:101AB00002D1601E84B20FE0601E5DF82000302865
:101AC00004D3601E5DF82000392804D956A000F028
:101AD0005FFA601E84B200BFBC42D6DB022F09D180
:101AE000019830380099303901EB810100EB410059
:101AF00084B218E0039830380299303901EB810143
:101B000000EB41010198303800EBC00202EB0010FD
:101B100001EB80010098303800EB4002C2EBC010AE
:101B200001EBC00084B2B44201D8AC4208D23246C4
:101B3000294648A000F02CFA002004B0BDE8F0814E
:101B40002046FAE700B593B02C2108A800F065F90B
:101B50004C4800F01DFA4CA000F01AFA40F2DD707B
:101B60000D900A200C900D200B9002200A901E2050
:101B70000990152008901C220CA9684600F034F941
:101B800008A80FC8FFF721FF13B000BD10B504204F
:101B9000FEF793FE4AF2A55188420FD042A000F012
:101BA000F7F9FFF73AFFFFF7CDFF45A000F0F0F996
:101BB0004AF2A5510420FEF774FE19E07B20FFF7DE
:101BC00000F918B143A000F0E3F906E07A20FFF72E
:101BD000F8F810B146A000F0DBF94BA000F0D8F9FE
:101BE000FFF7E3FA01210846FFF77AFAFFF7D4FA84
:101BF000FFF7FEFEFFF74EFA10BD00B58FB004A848
:101C0000FFF7C8FEDDE905210498CDE90012029036
:101C1000DDE90730421C41A0099900F0B9F90FB085
:101C200000BD000000380140506C6561736520659F
:101C30006E7465722076616C6964206E756D626584
:101C400072206265747765656E203020616E642055
:101C5000390D0A00506C6561736520656E7465729C
:101C60002076616C6964206E756D626572206265B4
:101C7000747765656E20256420616E642025640D8F
:101C80000A0000008C240008C7EBCAE4C8EBC4EAD1
:101C9000B7DDD4DA31393730B5BD32303337D6AE6F
:101CA000BCE40D0A0000000052544320BBB9C3BB82
:101CB000D3D0B1BBC9E8D6C32E2E2E2E0D0A0000FC
:101CC00052544320B3F5CABCBBAF2E2E2E2E0D0AA4
:101CD00000000000B7A2C9FAD2BBB4CEB5E7D4B4B5
:101CE000C9CFB5E7D6D8C6F42E2E2E2E0D0A000089
:101CF000B7A2C9FAD2BBB4CECDE2B2BFB8B4CEBBA4
:101D00002E2E2E2E0D0A0000B2BBD0E8D2AAC9E8B2
:101D1000D6C35243542E2E2E2E0D0A0054696D65E3
:101D20003A2025642D25642D25642020202530327D
:101D3000643A253032643A25303264200D0A0000BE
:101D400038B5D0E90221491E01EB410102EBC10186
:101D50004268C1EB011102EB81010268C1EB011184
:101D600002EB8102D0E9043101EB410103EB810177
:101D70003023A1F5527191FBF3F4174D6C4302EB44
:101D8000C41291FBF3F403FB141100921A2902DB35
:101D9000124B1A4400920C2291FBF2F3104C634355
:101DA000009C04EBC313009391FBF2F302FB1311AD
:101DB0000C4A08E0491E40F2A324535C6343009C94
:101DC00004EBC31300930029F4DC0146684600F0DD
:101DD00067F8009838BD00003F0C0F0080510100EB
:101DE00067C203003024000840EA01039B0703D0C8
:101DF00009E008C9121F08C0042AFAD203E011F84A
:101E0000013B00F8013B521EF9D27047D2B201E00B
:101E100000F8012B491EFBD270470022F6E710B5EF
:101E200013460A4604461946FFF7F0FF204610BD48
:101E30002DE9F05F0546002092469B4688460646FF
:101E4000814640241BE0284641464746224600F092
:101E50008EF853465A46C01A914110D3114618467F
:101E6000224600F075F82D1A67EB01084F4622460E
:101E70000120002100F06CF817EB00094E41201EF4
:101E8000A4F10104DFDC484631462A464346BDE85A
:101E9000F09F0000014900F003B80000A0000020FE
:101EA00010B500683C22B0FBF2F302FB1303B0FB59
:101EB000F2F00B60B0FBF2F302FB1303B0FBF2F0A5
:101EC00018224B60B0FBF2F302FB1303B0FBF2F0FD
:101ED000021D8B600723B2FBF3F403FB1422800086
:101EE00040F2B55300F66C308A61B0FBF3F2B0FB00
:101EF000F3F403FB1400443280084A61C8613B28B4
:101F000002D3920700D0401C0022074C13460A61FE
:101F1000E25C824203D8801A5B1C0B61F8E7401C2C
:101F2000C860084610BD00003C240008064C074D60
:101F300006E0E06840F0010394E807009847103499
:101F4000AC42F6D3FEF7D6F8D0240008F0240008FF
:101F5000202A04DB203A00FA02F100207047914069
:101F6000C2F1200320FA03F3194390407047202A5E
:101F700004DB203A21FA02F00021704721FA02F333
:101F8000D040C2F12002914008431946704700003A
:101F90000FB4054B10B503A9044A029800F018F8D5
:101FA00010BC5DF814FB0000BF18000858000020AA
:101FB00002E008C8121F08C1002AFAD17047704712
:101FC000002001E001C1121F002AFBD17047000070
:101FD0002DE9FF4F8DB00F460546002606E0252867
:101FE0000BD0DDE90F1290476D1C761C2878002875
:101FF000F5D111B03046BDE8F08F0024A246A146CD
:102000000122E94900E0044315F8013F203B02FAB0
:1020100003F00842F7D128782A2810D06FF02F0259
:102020002878A0F13001092914D80AEB8A0102EBC3
:10203000410144F0020400EB010A6D1CF0E701CFFE
:102040005FEA000A03D544F40054CAF1000A44F0E0
:1020500002046D1C28782E2817D115F8010F44F0C2
:1020600004042A280ED06FF02F022878A0F1300146
:1020700009290AD809EB890102EB410100EB0109AA
:102080006D1CF2E757F8049B6D1C28786C280FD064
:1020900006DC4C2817D068280DD06A2814D104E03B
:1020A000742810D07A280FD10DE044F400140AE00F
:1020B00044F4801401E044F440146978814202D170
:1020C00004F580146D1C6D1C28786E281ED00CDC65
:1020D000632830D004DC00288BD0582811D19FE031
:1020E000642867D069280CD164E073282DD004DC03
:1020F0006F2872D0702804D194E075286ED07828AB
:102100006DD0DDE90F129047761C4BE1C4F302500D
:10211000022806D0032809D0042801CF09D0066080
:1021200040E101CFF117C0E900613BE101CF06803A
:1021300038E1067036E117F8040B8DF80000002036
:102140008DF80100EB46012003E057F804BB4FF087
:10215000FF3061074FF0000102D40DE008F10101EA
:10216000884649450FDA8045F8DB1BF8081000293E
:10217000F4D108E008F1010188468142FADB1BF83E
:1021800008100029F6D1DDE90F23AAEB08008146EB
:10219000214600F031F9304400EB080604E0DDE9A7
:1021A0000F121BF8010B9047B8F10108F7D2214636
:1021B0004846F2E00A21C4F302524FF0000B0891A6
:1021C000022A04D001CFC117032A09D00AE0FF1D5B
:1021D00027F00707F7E8020108E02CE01EE01FE007
:1021E00000B2C117042A01D140B2C117021E71F119
:1021F000000206DA0023D0EB030063EB01012D227D
:1022000002E0220504D52B228DF82420012203E0D0
:10221000E20701D02022F7E7904653E00A210BE0C5
:10222000102109E010214FF0000B44F004044FF09E
:102230000809089103E008214FF0000B0891C4F34E
:102240000252022A04D001CF0021032A06D006E060
:10225000FF1D27F00707F7E8020103E080B2042A18
:1022600000D1C0B24FF0000822072BD52A78702A7F
:1022700007D0DDF820C08CF0100C5CEA0B0C05D008
:102280000EE040228DF82420012208E050EA0103EC
:1022900006D030238DF824308DF825200222904678
:1022A000089B83F0080353EA0B030BD150EA0102A9
:1022B00001D1620706D530228DF824204FF00108A5
:1022C000A9F101092A78582A04D038A20B9208AA49
:1022D0000A920BE03AA2F9E75B46089AFFF7A8FDDD
:1022E0000B9B9B5C0A9A521E0A92137050EA0102E1
:1022F000F2D10A98ADEB000000F1200B600702D587
:1023000024F4803401E04FF00109D94502DDA9EB46
:102310000B0000E0002000EB0B0141440890AAEB09
:10232000010AE00306D4DDE90F232146504600F000
:1023300063F806444FF0000908E009A911F8090004
:10234000DDE90F12904709F10109761CC145F4DB64
:10235000E0030CD5DDE90F232146504600F04CF890
:10236000064404E0DDE90F1230209047761C0899FE
:10237000481E08900029F5DC08E00A980A990078C0
:10238000491C0A91DDE90F129047761CBBF1000150
:10239000ABF1010BF1DC21465046DDE90F2300F0E3
:1023A00019F806446D1C21E609280100303132334A
:1023B0003435363738396162636465660000000081
:1023C000303132333435363738394142434445466B
:1023D000000000002DE9F041044600251E46174686
:1023E000880404D405E039462020B0476D1C641EE3
:1023F000F9D52846BDE8F0812DE9F04104460025D5
:102400001E469046C80301D5302700E020278804E7
:1024100004D505E041463846B0476D1C641EF9D529
:102420002846BDE8F081FFFFFFFFFFFFFFFFFFFF32
:102430001F1C1F1E1F1E1F1F1E1F1E1F1F1D1F1EB6
:102440001F1E1F1F1E1F1E1F2A2A2A2A2A2A2A2A47
:102450002A2A2A2A2A2A2A2A2A2A2A2A2A2A2A2ADC
:102460002A2A2A2A2A2A2A2A2A2A2A2A2A2A2A2ACC
:102470002A2A2A2A2A2A2A2A2A2A2A2A2A2A2A2ABC
:102480002A2A2A2A2A2A2A2A2A0D0A003D3D3D3DC7
:102490003D3D3D3D3D3D3D3D3D3D3D3D3D3D3D3D6C
:1024A0003D3D3D52544320CAB1BCE4C8D5C6DAC94B
:1024B000E8D6C33D3D3D3D3D3D3D3D3D3D3D3D3D82
:1024C0003D3D3D3D3D3D3D3D3D3D3D3D3D0D0A00DC
:1024D000F0240008000000205C000000B01F00088D
:1024E0004C2500085C00002074040000C01F000898
:1024F0001122330000000000000000000000000076
:1025000000000000000000000000000000000000CB
:1025100000000000000000000000000000000000BB
:10252000000102030401020304060708090204066D
:102530000800000000A24A040000000000000000A3
:0C25400001020304060708090000000067
:04000005080000ED02
:00000001FF
